{"contracts/DexRouter.sol":{"DexRouter":{"abi":[{"inputs":[{"internalType":"address","name":"_factory","type":"address"}],"stateMutability":"nonpayable","type":"constructor"},{"anonymous":false,"inputs":[{"indexed":true,"internalType":"address","name":"tokenA","type":"address"},{"indexed":true,"internalType":"address","name":"tokenB","type":"address"},{"indexed":false,"internalType":"uint256","name":"amountA","type":"uint256"},{"indexed":false,"internalType":"uint256","name":"amountB","type":"uint256"},{"indexed":false,"internalType":"uint256","name":"liquidity","type":"uint256"}],"name":"AddLiquidity","type":"event"},{"anonymous":false,"inputs":[{"indexed":true,"internalType":"address","name":"tokenA","type":"address"},{"indexed":true,"internalType":"address","name":"tokenB","type":"address"},{"indexed":false,"internalType":"uint256","name":"amountA","type":"uint256"},{"indexed":false,"internalType":"uint256","name":"amountB","type":"uint256"},{"indexed":false,"internalType":"uint256","name":"liquidity","type":"uint256"}],"name":"RemoveLiquidity","type":"event"},{"inputs":[],"name":"FEE_DENOMINATOR","outputs":[{"internalType":"uint256","name":"","type":"uint256"}],"stateMutability":"view","type":"function"},{"inputs":[],"name":"FEE_NUMERATOR","outputs":[{"internalType":"uint256","name":"","type":"uint256"}],"stateMutability":"view","type":"function"},{"inputs":[{"internalType":"address","name":"tokenA","type":"address"},{"internalType":"address","name":"tokenB","type":"address"},{"internalType":"uint256","name":"amountADesired","type":"uint256"},{"internalType":"uint256","name":"amountBDesired","type":"uint256"},{"internalType":"uint256","name":"amountAMin","type":"uint256"},{"internalType":"uint256","name":"amountBMin","type":"uint256"},{"internalType":"address","name":"to","type":"address"},{"internalType":"uint256","name":"deadline","type":"uint256"}],"name":"addLiquidity","outputs":[{"internalType":"uint256","name":"amountA","type":"uint256"},{"internalType":"uint256","name":"amountB","type":"uint256"},{"internalType":"uint256","name":"liquidity","type":"uint256"}],"stateMutability":"nonpayable","type":"function"},{"inputs":[],"name":"factory","outputs":[{"internalType":"address","name":"","type":"address"}],"stateMutability":"view","type":"function"},{"inputs":[{"internalType":"uint256","name":"amountOut","type":"uint256"},{"internalType":"uint256","name":"reserveIn","type":"uint256"},{"internalType":"uint256","name":"reserveOut","type":"uint256"}],"name":"getAmountIn","outputs":[{"internalType":"uint256","name":"amountIn","type":"uint256"}],"stateMutability":"pure","type":"function"},{"inputs":[{"internalType":"uint256","name":"amountIn","type":"uint256"},{"internalType":"uint256","name":"reserveIn","type":"uint256"},{"internalType":"uint256","name":"reserveOut","type":"uint256"}],"name":"getAmountOut","outputs":[{"internalType":"uint256","name":"amountOut","type":"uint256"}],"stateMutability":"pure","type":"function"},{"inputs":[{"internalType":"uint256","name":"amountOut","type":"uint256"},{"internalType":"address[]","name":"path","type":"address[]"}],"name":"getAmountsIn","outputs":[{"internalType":"uint256[]","name":"amounts","type":"uint256[]"}],"stateMutability":"view","type":"function"},{"inputs":[{"internalType":"uint256","name":"amountIn","type":"uint256"},{"internalType":"address[]","name":"path","type":"address[]"}],"name":"getAmountsOut","outputs":[{"internalType":"uint256[]","name":"amounts","type":"uint256[]"}],"stateMutability":"view","type":"function"},{"inputs":[{"internalType":"address","name":"tokenA","type":"address"},{"internalType":"address","name":"tokenB","type":"address"}],"name":"getPair","outputs":[{"internalType":"address","name":"","type":"address"}],"stateMutability":"view","type":"function"},{"inputs":[{"internalType":"address","name":"tokenA","type":"address"},{"internalType":"address","name":"tokenB","type":"address"}],"name":"getReserves","outputs":[{"internalType":"uint256","name":"reserveA","type":"uint256"},{"internalType":"uint256","name":"reserveB","type":"uint256"}],"stateMutability":"view","type":"function"},{"inputs":[{"internalType":"address","name":"tokenA","type":"address"},{"internalType":"address","name":"tokenB","type":"address"},{"internalType":"uint256","name":"liquidity","type":"uint256"},{"internalType":"uint256","name":"amountAMin","type":"uint256"},{"internalType":"uint256","name":"amountBMin","type":"uint256"},{"internalType":"address","name":"to","type":"address"},{"internalType":"uint256","name":"deadline","type":"uint256"}],"name":"removeLiquidity","outputs":[{"internalType":"uint256","name":"amountA","type":"uint256"},{"internalType":"uint256","name":"amountB","type":"uint256"}],"stateMutability":"nonpayable","type":"function"},{"inputs":[{"internalType":"uint256","name":"amountIn","type":"uint256"},{"internalType":"uint256","name":"amountOutMin","type":"uint256"},{"internalType":"address[]","name":"path","type":"address[]"},{"internalType":"address","name":"to","type":"address"},{"internalType":"uint256","name":"deadline","type":"uint256"}],"name":"swapExactTokensForTokens","outputs":[{"internalType":"uint256[]","name":"amounts","type":"uint256[]"}],"stateMutability":"nonpayable","type":"function"},{"inputs":[{"internalType":"uint256","name":"amountOut","type":"uint256"},{"internalType":"uint256","name":"amountInMax","type":"uint256"},{"internalType":"address[]","name":"path","type":"address[]"},{"internalType":"address","name":"to","type":"address"},{"internalType":"uint256","name":"deadline","type":"uint256"}],"name":"swapTokensForExactTokens","outputs":[{"internalType":"uint256[]","name":"amounts","type":"uint256[]"}],"stateMutability":"nonpayable","type":"function"}],"evm":{"bytecode":{"linkReferences":{},"object":"60a03461008d57601f61177e38819003918201601f19168301916001600160401b038311848410176100925780849260209460405283398101031261008d57516001600160a01b038116810361008d576080526040516116d590816100a98239608051818181610135015281816104f0015281816105a90152818161082b01528181610bcb015261129e0152f35b600080fd5b634e487b7160e01b600052604160045260246000fdfe6040608081526004908136101561001557600080fd5b600091823560e01c8063054d50d4146109ee5780631f00ca74146109d157806338ed17391461096f57806341cd47bf1461095357806385f8c259146109305780638803dbee1461078c578063baa2abde1461051f578063c45a0155146104db578063d06ca61f146104b3578063d52bb6f41461047b578063d73792a91461045e578063e6a439051461041f5763e8e33700146100b057600080fd5b3461041b5761010036600319011261041b576100ca610ac9565b6100d2610adf565b6001600160a01b03946044359491906064359060c435888116908190036104175790859392916101064260e4351015611147565b855163e6a4390560e01b81526001600160a01b03978816898201908152978516602089810191909152979093907f00000000000000000000000000000000000000000000000000000000000000008c16908990869081906040010381845afa94851561040d5789939291879186976103ee575b508d871615610362575b505061018f8688610c2e565b91908c81158061035a575b156102bf575050602491509a995b6101b48b87338b61155d565b6101c08c87338a61155d565b848d8a5197889586946335313c2160e11b8652850152165af19586156102b3578196610259575b5050507f2f3289d16dbc3007471d28c4936df3a95222bc938112449400d049637e3309ce876102559697988551931693169180610237878b8b846040919493926060820195825260208201520152565b0390a351938493846040919493926060820195825260208201520152565b0390f35b909180999650813d83116102ac575b6102728183610b44565b810103126102a95750955192957f2f3289d16dbc3007471d28c4936df3a95222bc938112449400d049637e3309ce610255386101e7565b80fd5b503d610268565b508451903d90823e3d90fd5b83826102ca9261121e565b928284116102ed575050506024906102e660a4358210156111d3565b9a996101a8565b9091809495506102fd935061121e565b998a116103175790602488926102e66084358d1015611188565b865162461bcd60e51b8152808a01899052601b60248201527f446578526f757465723a20494e56414c49445f414d4f554e545f4100000000006044820152606490fd5b50831561019a565b89516364e329cb60e11b81526001600160a01b03808b16828f019081529316602084015292965092939192839182908790829060400103925af19081156103e4579088929184916103b7575b50938538610183565b6103d79150833d85116103dd575b6103cf8183610b44565b810190610b7c565b386103ae565b503d6103c5565b87513d85823e3d90fd5b610406919750853d87116103dd576103cf8183610b44565b9538610179565b88513d86823e3d90fd5b5080fd5b8280fd5b50503461041757806003193601126104175760209061044d61043f610ac9565b610447610adf565b90610b9b565b90516001600160a01b039091168152f35b505034610417578160031936011261041757602090516103e88152f35b8284346102a957816003193601126102a957506104a7610499610ac9565b6104a1610adf565b90610c2e565b82519182526020820152f35b50503461041757610255906104d06104ca36610a5a565b91610ff1565b905191829182610a8e565b505034610417578160031936011261041757517f00000000000000000000000000000000000000000000000000000000000000006001600160a01b03168152602090f35b508290346104175760e03660031901126104175761053b610ac9565b90610544610adf565b604435929060a4356001600160a01b038181169182900361070a5761056d4260c4351015611147565b875163e6a4390560e01b81526001600160a01b0380861687830190815290851660208281019190915296919391908790859081906040010381867f0000000000000000000000000000000000000000000000000000000000000000165afa938415610782578994610763575b50828416938415610720578a92916105f58a602493338161155d565b8a8451968794859363226bf2d160e21b85528401525af196871561071557809281986106db575b508382169480831694868610156106d35750905b501682036106a75761069a7feb755d537a0caac69ccb1ac1dc2b7397a32bb19f93bd06013c57ac0b2e5dd69c9196955b61066e606435891015611188565b61067c6084358810156111d3565b8851918291888a846040919493926060820195825260208201520152565b0390a38351928352820152f35b937feb755d537a0caac69ccb1ac1dc2b7397a32bb19f93bd06013c57ac0b2e5dd69c9061069a90610660565b905090610630565b89809299508194503d831161070e575b6106f58183610b44565b8101031261070a57848251920151968961061c565b8680fd5b503d6106eb565b8851903d90823e3d90fd5b8a5162461bcd60e51b8152808301899052601a60248201527f446578526f757465723a20504149525f4e4f545f4558495354530000000000006044820152606490fd5b61077b919450873d89116103dd576103cf8183610b44565b928a6105d9565b8a513d8b823e3d90fd5b50903461041b576107bb6107b66107a236610af5565b94829684969a959a98949298421115611147565b61108f565b956107c587610f87565b51116108e35782156108d0576107da82610fdd565b906107e483610fdd565b84600110156108bd576020906107fb828601610fdd565b885163e6a4390560e01b81526001600160a01b0392831694810194855291166020840152918290819060400103817f00000000000000000000000000000000000000000000000000000000000000006001600160a01b03165afa9081156108b357916108859161088b969594936102559a91610895575b5061087c89610f87565b5191339061155d565b85611290565b5191829182610a8e565b6108ad915060203d81116103dd576103cf8183610b44565b38610872565b86513d8a823e3d90fd5b634e487b7160e01b895260328252602489fd5b634e487b7160e01b875260329052602486fd5b608490602086519162461bcd60e51b8352820152602160248201527f446578526f757465723a204558434553534956455f494e5055545f414d4f554e6044820152601560fa1b6064820152fd5b5050346104175760209061094c61094636610a0a565b91610e82565b9051908152f35b5050346104175781600319360112610417576020905160038152f35b50903461041b5761098a6109856107a236610af5565b610ff1565b95865160001981019081116109be57906109a76109af9289610faa565b511015610e28565b82156108d0576107da82610fdd565b634e487b7160e01b895260118352602489fd5b50503461041757610255906104d06109e836610a5a565b9161108f565b5050346104175760209061094c610a0436610a0a565b91610d7e565b6060906003190112610a2457600435906024359060443590565b600080fd5b9181601f84011215610a245782359167ffffffffffffffff8311610a24576020808501948460051b010111610a2457565b906040600319830112610a2457600435916024359067ffffffffffffffff8211610a2457610a8a91600401610a29565b9091565b6020908160408183019282815285518094520193019160005b828110610ab5575050505090565b835185529381019392810192600101610aa7565b600435906001600160a01b0382168203610a2457565b602435906001600160a01b0382168203610a2457565b60a0600319820112610a245760043591602435916044359067ffffffffffffffff8211610a2457610b2891600401610a29565b90916064356001600160a01b0381168103610a24579060843590565b90601f8019910116810190811067ffffffffffffffff821117610b6657604052565b634e487b7160e01b600052604160045260246000fd5b90816020910312610a2457516001600160a01b0381168103610a245790565b60405163e6a4390560e01b81526001600160a01b03918216600482015291166024820152602081806044810103817f00000000000000000000000000000000000000000000000000000000000000006001600160a01b03165afa908115610c2257600091610c07575090565b610c1f915060203d81116103dd576103cf8183610b44565b90565b6040513d6000823e3d90fd5b906004906001600160a01b03808416916060908290610c5790828116861015610cc15787610b9b565b1660405194858092630240bc6b60e21b82525afa938415610c22576000938495610c86575b501603610a8a5791565b939094506060843d8211610cb9575b81610ca260609383610b44565b810103126102a95750602083519301519338610c7c565b3d9150610c95565b8097610b9b565b15610ccf57565b60405162461bcd60e51b815260206004820152602160248201527f446578526f757465723a20494e53554646494349454e545f4c495155494449546044820152605960f81b6064820152608490fd5b906103e591828102928184041490151715610d3557565b634e487b7160e01b600052601160045260246000fd5b81810292918115918404141715610d3557565b8115610d68570490565b634e487b7160e01b600052601260045260246000fd5b918215610dd757610dab610da4831594851580610dce575b610d9f90610cc8565b610d1e565b9182610d4b565b926103e8808402938404141715610d35578101809111610d3557610c1f91610d5e565b50831515610d96565b60405162461bcd60e51b8152602060048201526024808201527f446578526f757465723a20494e53554646494349454e545f494e5055545f414d60448201526313d5539560e21b6064820152608490fd5b15610e2f57565b60405162461bcd60e51b815260206004820152602560248201527f446578526f757465723a20494e53554646494349454e545f4f55545055545f416044820152641353d5539560da1b6064820152608490fd5b9081610eaa91610e93821515610e28565b80151580610ee8575b610ea590610cc8565b610d4b565b906103e891828102928184041490151715610d35578203918211610d3557610ed4610eda92610d1e565b90610d5e565b60018101809111610d355790565b50841515610e9c565b15610ef857565b60405162461bcd60e51b815260206004820152601760248201527f446578526f757465723a20494e56414c49445f504154480000000000000000006044820152606490fd5b67ffffffffffffffff8111610b665760051b60200190565b90610f5f82610f3d565b610f6c6040519182610b44565b8281528092610f7d601f1991610f3d565b0190602036910137565b805115610f945760200190565b634e487b7160e01b600052603260045260246000fd5b8051821015610f945760209160051b010190565b6000198114610d355760010190565b9190811015610f945760051b0190565b356001600160a01b0381168103610a245790565b909291926110026002851015610ef1565b61100b84610f55565b9161101583610f87565b5260005b6000198501858111610d35578110156110895761103f61103a828785610fcd565b610fdd565b9060018101808211610d355761107e611077611066611084956104a161103a868d8b610fcd565b90611071868a610faa565b51610d7e565b9186610faa565b52610fbe565b611019565b50509150565b909291926110a06002851015610ef1565b6110a984610f55565b9384519260001993848101908111610d35576110c59087610faa565b52828101818111610d3557805b6110dc5750505050565b8381018181116111325761112361111c61110b6110fd61103a85888a610fcd565b6104a161103a87898b610fcd565b90611116868c610faa565b51610e82565b9188610faa565b528015611132578301806110d2565b60246000634e487b7160e01b81526011600452fd5b1561114e57565b60405162461bcd60e51b815260206004820152601260248201527111195e149bdd5d195c8e881156141254915160721b6044820152606490fd5b1561118f57565b606460405162461bcd60e51b815260206004820152602060248201527f446578526f757465723a20494e53554646494349454e545f415f414d4f554e546044820152fd5b156111da57565b606460405162461bcd60e51b815260206004820152602060248201527f446578526f757465723a20494e53554646494349454e545f425f414d4f554e546044820152fd5b801561124b57610c1f9261123d918315158061124257610ea590610cc8565b610d5e565b50811515610e9c565b60405162461bcd60e51b815260206004820152601e60248201527f446578526f757465723a20494e53554646494349454e545f414d4f554e5400006044820152606490fd5b929392916001600160a01b037f000000000000000000000000000000000000000000000000000000000000000081169060005b6000198401848111610d3557811015611553576112e461103a828688610fcd565b6001820190818311610d35576112fe61103a83888a610fcd565b90848116858316811015611548578561131983955b8c610faa565b5194160361154057600092905b6001198801888111610d355785101561153a5760028501808611610d355761103a611352918a8c610fcd565b6040805163e6a4390560e01b81526001600160a01b03868116600483015292909216602483015290602080826044818d5afa9283156115305750600092611513575b50505b6040805163e6a4390560e01b81526001600160a01b03938416600480830191909152959093166024840152939160209081816044818d5afa908115611508579089916000916114eb575b5016908551908082019367ffffffffffffffff94838110868211176114d657885260008352833b15610a2457979192908a8851998a9463022c0d9f60e01b865288860152602498898601521660448401526080606484015283519081608485015260005b8281106114bf575050600080945083918260a49183838284010152601f801991011681010301925af180156114b45761148c575b505050505061148790610fbe565b6112c3565b84116114a15750505261148738808080611479565b604190634e487b7160e01b600052526000fd5b84513d6000823e3d90fd5b8086018201518b820160a401528a94508101611445565b604187634e487b7160e01b6000525260246000fd5b6115029150833d85116103dd576103cf8183610b44565b386113e1565b86513d6000823e3d90fd5b6115299250803d106103dd576103cf8183610b44565b3880611394565b513d6000823e3d90fd5b8b611397565b600090611326565b856113198495611313565b5050505050509050565b6040516323b872dd60e01b60208083019182526001600160a01b039485166024840152939094166044820152606480820195909552938452909267ffffffffffffffff929060a0810184811182821017610b6657604052600092839283809351925af1913d15611697573d90811161168357604051906115e6601f8201601f1916860183610b44565b81523d828583013e5b82611643575b5050156115ff5750565b6064906040519062461bcd60e51b82526004820152601f60248201527f446578526f757465723a205452414e534645525f46524f4d5f4641494c4544006044820152fd5b805192508215919084831561165f575b505050905038806115f5565b919381809450010312610417578201519081151582036102a9575080388084611653565b634e487b7160e01b82526041600452602482fd5b5060606115ef56fea26469706673582212203f08b22c114df8f51fec1c8f856e868938e2f4a2a9bf73df08aae5833141c75a64736f6c63430008130033","opcodes":"PUSH1 0xA0 CALLVALUE PUSH2 0x8D JUMPI PUSH1 0x1F PUSH2 0x177E CODESIZE DUP2 SWAP1 SUB SWAP2 DUP3 ADD PUSH1 0x1F NOT AND DUP4 ADD SWAP2 PUSH1 0x1 PUSH1 0x1 PUSH1 0x40 SHL SUB DUP4 GT DUP5 DUP5 LT OR PUSH2 0x92 JUMPI DUP1 DUP5 SWAP3 PUSH1 0x20 SWAP5 PUSH1 0x40 MSTORE DUP4 CODECOPY DUP2 ADD SUB SLT PUSH2 0x8D JUMPI MLOAD PUSH1 0x1 PUSH1 0x1 PUSH1 0xA0 SHL SUB DUP2 AND DUP2 SUB PUSH2 0x8D JUMPI PUSH1 0x80 MSTORE PUSH1 0x40 MLOAD PUSH2 0x16D5 SWAP1 DUP2 PUSH2 0xA9 DUP3 CODECOPY PUSH1 0x80 MLOAD DUP2 DUP2 DUP2 PUSH2 0x135 ADD MSTORE DUP2 DUP2 PUSH2 0x4F0 ADD MSTORE DUP2 DUP2 PUSH2 0x5A9 ADD MSTORE DUP2 DUP2 PUSH2 0x82B ADD MSTORE DUP2 DUP2 PUSH2 0xBCB ADD MSTORE PUSH2 0x129E ADD MSTORE RETURN JUMPDEST PUSH1 0x0 DUP1 REVERT JUMPDEST PUSH4 0x4E487B71 PUSH1 0xE0 SHL PUSH1 0x0 MSTORE PUSH1 0x41 PUSH1 0x4 MSTORE PUSH1 0x24 PUSH1 0x0 REVERT INVALID PUSH1 0x40 PUSH1 0x80 DUP2 MSTORE PUSH1 0x4 SWAP1 DUP2 CALLDATASIZE LT ISZERO PUSH2 0x15 JUMPI PUSH1 0x0 DUP1 REVERT JUMPDEST PUSH1 0x0 SWAP2 DUP3 CALLDATALOAD PUSH1 0xE0 SHR DUP1 PUSH4 0x54D50D4 EQ PUSH2 0x9EE JUMPI DUP1 PUSH4 0x1F00CA74 EQ PUSH2 0x9D1 JUMPI DUP1 PUSH4 0x38ED1739 EQ PUSH2 0x96F JUMPI DUP1 PUSH4 0x41CD47BF EQ PUSH2 0x953 JUMPI DUP1 PUSH4 0x85F8C259 EQ PUSH2 0x930 JUMPI DUP1 PUSH4 0x8803DBEE EQ PUSH2 0x78C JUMPI DUP1 PUSH4 0xBAA2ABDE EQ PUSH2 0x51F JUMPI DUP1 PUSH4 0xC45A0155 EQ PUSH2 0x4DB JUMPI DUP1 PUSH4 0xD06CA61F EQ PUSH2 0x4B3 JUMPI DUP1 PUSH4 0xD52BB6F4 EQ PUSH2 0x47B JUMPI DUP1 PUSH4 0xD73792A9 EQ PUSH2 0x45E JUMPI DUP1 PUSH4 0xE6A43905 EQ PUSH2 0x41F JUMPI PUSH4 0xE8E33700 EQ PUSH2 0xB0 JUMPI PUSH1 0x0 DUP1 REVERT JUMPDEST CALLVALUE PUSH2 0x41B JUMPI PUSH2 0x100 CALLDATASIZE PUSH1 0x3 NOT ADD SLT PUSH2 0x41B JUMPI PUSH2 0xCA PUSH2 0xAC9 JUMP JUMPDEST PUSH2 0xD2 PUSH2 0xADF JUMP JUMPDEST PUSH1 0x1 PUSH1 0x1 PUSH1 0xA0 SHL SUB SWAP5 PUSH1 0x44 CALLDATALOAD SWAP5 SWAP2 SWAP1 PUSH1 0x64 CALLDATALOAD SWAP1 PUSH1 0xC4 CALLDATALOAD DUP9 DUP2 AND SWAP1 DUP2 SWAP1 SUB PUSH2 0x417 JUMPI SWAP1 DUP6 SWAP4 SWAP3 SWAP2 PUSH2 0x106 TIMESTAMP PUSH1 0xE4 CALLDATALOAD LT ISZERO PUSH2 0x1147 JUMP JUMPDEST DUP6 MLOAD PUSH4 0xE6A43905 PUSH1 0xE0 SHL DUP2 MSTORE PUSH1 0x1 PUSH1 0x1 PUSH1 0xA0 SHL SUB SWAP8 DUP9 AND DUP10 DUP3 ADD SWAP1 DUP2 MSTORE SWAP8 DUP6 AND PUSH1 0x20 DUP10 DUP2 ADD SWAP2 SWAP1 SWAP2 MSTORE SWAP8 SWAP1 SWAP4 SWAP1 PUSH32 0x0 DUP13 AND SWAP1 DUP10 SWAP1 DUP7 SWAP1 DUP2 SWAP1 PUSH1 0x40 ADD SUB DUP2 DUP5 GAS STATICCALL SWAP5 DUP6 ISZERO PUSH2 0x40D JUMPI DUP10 SWAP4 SWAP3 SWAP2 DUP8 SWAP2 DUP7 SWAP8 PUSH2 0x3EE JUMPI JUMPDEST POP DUP14 DUP8 AND ISZERO PUSH2 0x362 JUMPI JUMPDEST POP POP PUSH2 0x18F DUP7 DUP9 PUSH2 0xC2E JUMP JUMPDEST SWAP2 SWAP1 DUP13 DUP2 ISZERO DUP1 PUSH2 0x35A JUMPI JUMPDEST ISZERO PUSH2 0x2BF JUMPI POP POP PUSH1 0x24 SWAP2 POP SWAP11 SWAP10 JUMPDEST PUSH2 0x1B4 DUP12 DUP8 CALLER DUP12 PUSH2 0x155D JUMP JUMPDEST PUSH2 0x1C0 DUP13 DUP8 CALLER DUP11 PUSH2 0x155D JUMP JUMPDEST DUP5 DUP14 DUP11 MLOAD SWAP8 DUP9 SWAP6 DUP7 SWAP5 PUSH4 0x35313C21 PUSH1 0xE1 SHL DUP7 MSTORE DUP6 ADD MSTORE AND GAS CALL SWAP6 DUP7 ISZERO PUSH2 0x2B3 JUMPI DUP2 SWAP7 PUSH2 0x259 JUMPI JUMPDEST POP POP POP PUSH32 0x2F3289D16DBC3007471D28C4936DF3A95222BC938112449400D049637E3309CE DUP8 PUSH2 0x255 SWAP7 SWAP8 SWAP9 DUP6 MLOAD SWAP4 AND SWAP4 AND SWAP2 DUP1 PUSH2 0x237 DUP8 DUP12 DUP12 DUP5 PUSH1 0x40 SWAP2 SWAP5 SWAP4 SWAP3 PUSH1 0x60 DUP3 ADD SWAP6 DUP3 MSTORE PUSH1 0x20 DUP3 ADD MSTORE ADD MSTORE JUMP JUMPDEST SUB SWAP1 LOG3 MLOAD SWAP4 DUP5 SWAP4 DUP5 PUSH1 0x40 SWAP2 SWAP5 SWAP4 SWAP3 PUSH1 0x60 DUP3 ADD SWAP6 DUP3 MSTORE PUSH1 0x20 DUP3 ADD MSTORE ADD MSTORE JUMP JUMPDEST SUB SWAP1 RETURN JUMPDEST SWAP1 SWAP2 DUP1 SWAP10 SWAP7 POP DUP2 RETURNDATASIZE DUP4 GT PUSH2 0x2AC JUMPI JUMPDEST PUSH2 0x272 DUP2 DUP4 PUSH2 0xB44 JUMP JUMPDEST DUP2 ADD SUB SLT PUSH2 0x2A9 JUMPI POP SWAP6 MLOAD SWAP3 SWAP6 PUSH32 0x2F3289D16DBC3007471D28C4936DF3A95222BC938112449400D049637E3309CE PUSH2 0x255 CODESIZE PUSH2 0x1E7 JUMP JUMPDEST DUP1 REVERT JUMPDEST POP RETURNDATASIZE PUSH2 0x268 JUMP JUMPDEST POP DUP5 MLOAD SWAP1 RETURNDATASIZE SWAP1 DUP3 RETURNDATACOPY RETURNDATASIZE SWAP1 REVERT JUMPDEST DUP4 DUP3 PUSH2 0x2CA SWAP3 PUSH2 0x121E JUMP JUMPDEST SWAP3 DUP3 DUP5 GT PUSH2 0x2ED JUMPI POP POP POP PUSH1 0x24 SWAP1 PUSH2 0x2E6 PUSH1 0xA4 CALLDATALOAD DUP3 LT ISZERO PUSH2 0x11D3 JUMP JUMPDEST SWAP11 SWAP10 PUSH2 0x1A8 JUMP JUMPDEST SWAP1 SWAP2 DUP1 SWAP5 SWAP6 POP PUSH2 0x2FD SWAP4 POP PUSH2 0x121E JUMP JUMPDEST SWAP10 DUP11 GT PUSH2 0x317 JUMPI SWAP1 PUSH1 0x24 DUP9 SWAP3 PUSH2 0x2E6 PUSH1 0x84 CALLDATALOAD DUP14 LT ISZERO PUSH2 0x1188 JUMP JUMPDEST DUP7 MLOAD PUSH3 0x461BCD PUSH1 0xE5 SHL DUP2 MSTORE DUP1 DUP11 ADD DUP10 SWAP1 MSTORE PUSH1 0x1B PUSH1 0x24 DUP3 ADD MSTORE PUSH32 0x446578526F757465723A20494E56414C49445F414D4F554E545F410000000000 PUSH1 0x44 DUP3 ADD MSTORE PUSH1 0x64 SWAP1 REVERT JUMPDEST POP DUP4 ISZERO PUSH2 0x19A JUMP JUMPDEST DUP10 MLOAD PUSH4 0x64E329CB PUSH1 0xE1 SHL DUP2 MSTORE PUSH1 0x1 PUSH1 0x1 PUSH1 0xA0 SHL SUB DUP1 DUP12 AND DUP3 DUP16 ADD SWAP1 DUP2 MSTORE SWAP4 AND PUSH1 0x20 DUP5 ADD MSTORE SWAP3 SWAP7 POP SWAP3 SWAP4 SWAP2 SWAP3 DUP4 SWAP2 DUP3 SWAP1 DUP8 SWAP1 DUP3 SWAP1 PUSH1 0x40 ADD SUB SWAP3 GAS CALL SWAP1 DUP2 ISZERO PUSH2 0x3E4 JUMPI SWAP1 DUP9 SWAP3 SWAP2 DUP5 SWAP2 PUSH2 0x3B7 JUMPI JUMPDEST POP SWAP4 DUP6 CODESIZE PUSH2 0x183 JUMP JUMPDEST PUSH2 0x3D7 SWAP2 POP DUP4 RETURNDATASIZE DUP6 GT PUSH2 0x3DD JUMPI JUMPDEST PUSH2 0x3CF DUP2 DUP4 PUSH2 0xB44 JUMP JUMPDEST DUP2 ADD SWAP1 PUSH2 0xB7C JUMP JUMPDEST CODESIZE PUSH2 0x3AE JUMP JUMPDEST POP RETURNDATASIZE PUSH2 0x3C5 JUMP JUMPDEST DUP8 MLOAD RETURNDATASIZE DUP6 DUP3 RETURNDATACOPY RETURNDATASIZE SWAP1 REVERT JUMPDEST PUSH2 0x406 SWAP2 SWAP8 POP DUP6 RETURNDATASIZE DUP8 GT PUSH2 0x3DD JUMPI PUSH2 0x3CF DUP2 DUP4 PUSH2 0xB44 JUMP JUMPDEST SWAP6 CODESIZE PUSH2 0x179 JUMP JUMPDEST DUP9 MLOAD RETURNDATASIZE DUP7 DUP3 RETURNDATACOPY RETURNDATASIZE SWAP1 REVERT JUMPDEST POP DUP1 REVERT JUMPDEST DUP3 DUP1 REVERT JUMPDEST POP POP CALLVALUE PUSH2 0x417 JUMPI DUP1 PUSH1 0x3 NOT CALLDATASIZE ADD SLT PUSH2 0x417 JUMPI PUSH1 0x20 SWAP1 PUSH2 0x44D PUSH2 0x43F PUSH2 0xAC9 JUMP JUMPDEST PUSH2 0x447 PUSH2 0xADF JUMP JUMPDEST SWAP1 PUSH2 0xB9B JUMP JUMPDEST SWAP1 MLOAD PUSH1 0x1 PUSH1 0x1 PUSH1 0xA0 SHL SUB SWAP1 SWAP2 AND DUP2 MSTORE RETURN JUMPDEST POP POP CALLVALUE PUSH2 0x417 JUMPI DUP2 PUSH1 0x3 NOT CALLDATASIZE ADD SLT PUSH2 0x417 JUMPI PUSH1 0x20 SWAP1 MLOAD PUSH2 0x3E8 DUP2 MSTORE RETURN JUMPDEST DUP3 DUP5 CALLVALUE PUSH2 0x2A9 JUMPI DUP2 PUSH1 0x3 NOT CALLDATASIZE ADD SLT PUSH2 0x2A9 JUMPI POP PUSH2 0x4A7 PUSH2 0x499 PUSH2 0xAC9 JUMP JUMPDEST PUSH2 0x4A1 PUSH2 0xADF JUMP JUMPDEST SWAP1 PUSH2 0xC2E JUMP JUMPDEST DUP3 MLOAD SWAP2 DUP3 MSTORE PUSH1 0x20 DUP3 ADD MSTORE RETURN JUMPDEST POP POP CALLVALUE PUSH2 0x417 JUMPI PUSH2 0x255 SWAP1 PUSH2 0x4D0 PUSH2 0x4CA CALLDATASIZE PUSH2 0xA5A JUMP JUMPDEST SWAP2 PUSH2 0xFF1 JUMP JUMPDEST SWAP1 MLOAD SWAP2 DUP3 SWAP2 DUP3 PUSH2 0xA8E JUMP JUMPDEST POP POP CALLVALUE PUSH2 0x417 JUMPI DUP2 PUSH1 0x3 NOT CALLDATASIZE ADD SLT PUSH2 0x417 JUMPI MLOAD PUSH32 0x0 PUSH1 0x1 PUSH1 0x1 PUSH1 0xA0 SHL SUB AND DUP2 MSTORE PUSH1 0x20 SWAP1 RETURN JUMPDEST POP DUP3 SWAP1 CALLVALUE PUSH2 0x417 JUMPI PUSH1 0xE0 CALLDATASIZE PUSH1 0x3 NOT ADD SLT PUSH2 0x417 JUMPI PUSH2 0x53B PUSH2 0xAC9 JUMP JUMPDEST SWAP1 PUSH2 0x544 PUSH2 0xADF JUMP JUMPDEST PUSH1 0x44 CALLDATALOAD SWAP3 SWAP1 PUSH1 0xA4 CALLDATALOAD PUSH1 0x1 PUSH1 0x1 PUSH1 0xA0 SHL SUB DUP2 DUP2 AND SWAP2 DUP3 SWAP1 SUB PUSH2 0x70A JUMPI PUSH2 0x56D TIMESTAMP PUSH1 0xC4 CALLDATALOAD LT ISZERO PUSH2 0x1147 JUMP JUMPDEST DUP8 MLOAD PUSH4 0xE6A43905 PUSH1 0xE0 SHL DUP2 MSTORE PUSH1 0x1 PUSH1 0x1 PUSH1 0xA0 SHL SUB DUP1 DUP7 AND DUP8 DUP4 ADD SWAP1 DUP2 MSTORE SWAP1 DUP6 AND PUSH1 0x20 DUP3 DUP2 ADD SWAP2 SWAP1 SWAP2 MSTORE SWAP7 SWAP2 SWAP4 SWAP2 SWAP1 DUP8 SWAP1 DUP6 SWAP1 DUP2 SWAP1 PUSH1 0x40 ADD SUB DUP2 DUP7 PUSH32 0x0 AND GAS STATICCALL SWAP4 DUP5 ISZERO PUSH2 0x782 JUMPI DUP10 SWAP5 PUSH2 0x763 JUMPI JUMPDEST POP DUP3 DUP5 AND SWAP4 DUP5 ISZERO PUSH2 0x720 JUMPI DUP11 SWAP3 SWAP2 PUSH2 0x5F5 DUP11 PUSH1 0x24 SWAP4 CALLER DUP2 PUSH2 0x155D JUMP JUMPDEST DUP11 DUP5 MLOAD SWAP7 DUP8 SWAP5 DUP6 SWAP4 PUSH4 0x226BF2D1 PUSH1 0xE2 SHL DUP6 MSTORE DUP5 ADD MSTORE GAS CALL SWAP7 DUP8 ISZERO PUSH2 0x715 JUMPI DUP1 SWAP3 DUP2 SWAP9 PUSH2 0x6DB JUMPI JUMPDEST POP DUP4 DUP3 AND SWAP5 DUP1 DUP4 AND SWAP5 DUP7 DUP7 LT ISZERO PUSH2 0x6D3 JUMPI POP SWAP1 JUMPDEST POP AND DUP3 SUB PUSH2 0x6A7 JUMPI PUSH2 0x69A PUSH32 0xEB755D537A0CAAC69CCB1AC1DC2B7397A32BB19F93BD06013C57AC0B2E5DD69C SWAP2 SWAP7 SWAP6 JUMPDEST PUSH2 0x66E PUSH1 0x64 CALLDATALOAD DUP10 LT ISZERO PUSH2 0x1188 JUMP JUMPDEST PUSH2 0x67C PUSH1 0x84 CALLDATALOAD DUP9 LT ISZERO PUSH2 0x11D3 JUMP JUMPDEST DUP9 MLOAD SWAP2 DUP3 SWAP2 DUP9 DUP11 DUP5 PUSH1 0x40 SWAP2 SWAP5 SWAP4 SWAP3 PUSH1 0x60 DUP3 ADD SWAP6 DUP3 MSTORE PUSH1 0x20 DUP3 ADD MSTORE ADD MSTORE JUMP JUMPDEST SUB SWAP1 LOG3 DUP4 MLOAD SWAP3 DUP4 MSTORE DUP3 ADD MSTORE RETURN JUMPDEST SWAP4 PUSH32 0xEB755D537A0CAAC69CCB1AC1DC2B7397A32BB19F93BD06013C57AC0B2E5DD69C SWAP1 PUSH2 0x69A SWAP1 PUSH2 0x660 JUMP JUMPDEST SWAP1 POP SWAP1 PUSH2 0x630 JUMP JUMPDEST DUP10 DUP1 SWAP3 SWAP10 POP DUP2 SWAP5 POP RETURNDATASIZE DUP4 GT PUSH2 0x70E JUMPI JUMPDEST PUSH2 0x6F5 DUP2 DUP4 PUSH2 0xB44 JUMP JUMPDEST DUP2 ADD SUB SLT PUSH2 0x70A JUMPI DUP5 DUP3 MLOAD SWAP3 ADD MLOAD SWAP7 DUP10 PUSH2 0x61C JUMP JUMPDEST DUP7 DUP1 REVERT JUMPDEST POP RETURNDATASIZE PUSH2 0x6EB JUMP JUMPDEST DUP9 MLOAD SWAP1 RETURNDATASIZE SWAP1 DUP3 RETURNDATACOPY RETURNDATASIZE SWAP1 REVERT JUMPDEST DUP11 MLOAD PUSH3 0x461BCD PUSH1 0xE5 SHL DUP2 MSTORE DUP1 DUP4 ADD DUP10 SWAP1 MSTORE PUSH1 0x1A PUSH1 0x24 DUP3 ADD MSTORE PUSH32 0x446578526F757465723A20504149525F4E4F545F455849535453000000000000 PUSH1 0x44 DUP3 ADD MSTORE PUSH1 0x64 SWAP1 REVERT JUMPDEST PUSH2 0x77B SWAP2 SWAP5 POP DUP8 RETURNDATASIZE DUP10 GT PUSH2 0x3DD JUMPI PUSH2 0x3CF DUP2 DUP4 PUSH2 0xB44 JUMP JUMPDEST SWAP3 DUP11 PUSH2 0x5D9 JUMP JUMPDEST DUP11 MLOAD RETURNDATASIZE DUP12 DUP3 RETURNDATACOPY RETURNDATASIZE SWAP1 REVERT JUMPDEST POP SWAP1 CALLVALUE PUSH2 0x41B JUMPI PUSH2 0x7BB PUSH2 0x7B6 PUSH2 0x7A2 CALLDATASIZE PUSH2 0xAF5 JUMP JUMPDEST SWAP5 DUP3 SWAP7 DUP5 SWAP7 SWAP11 SWAP6 SWAP11 SWAP9 SWAP5 SWAP3 SWAP9 TIMESTAMP GT ISZERO PUSH2 0x1147 JUMP JUMPDEST PUSH2 0x108F JUMP JUMPDEST SWAP6 PUSH2 0x7C5 DUP8 PUSH2 0xF87 JUMP JUMPDEST MLOAD GT PUSH2 0x8E3 JUMPI DUP3 ISZERO PUSH2 0x8D0 JUMPI PUSH2 0x7DA DUP3 PUSH2 0xFDD JUMP JUMPDEST SWAP1 PUSH2 0x7E4 DUP4 PUSH2 0xFDD JUMP JUMPDEST DUP5 PUSH1 0x1 LT ISZERO PUSH2 0x8BD JUMPI PUSH1 0x20 SWAP1 PUSH2 0x7FB DUP3 DUP7 ADD PUSH2 0xFDD JUMP JUMPDEST DUP9 MLOAD PUSH4 0xE6A43905 PUSH1 0xE0 SHL DUP2 MSTORE PUSH1 0x1 PUSH1 0x1 PUSH1 0xA0 SHL SUB SWAP3 DUP4 AND SWAP5 DUP2 ADD SWAP5 DUP6 MSTORE SWAP2 AND PUSH1 0x20 DUP5 ADD MSTORE SWAP2 DUP3 SWAP1 DUP2 SWAP1 PUSH1 0x40 ADD SUB DUP2 PUSH32 0x0 PUSH1 0x1 PUSH1 0x1 PUSH1 0xA0 SHL SUB AND GAS STATICCALL SWAP1 DUP2 ISZERO PUSH2 0x8B3 JUMPI SWAP2 PUSH2 0x885 SWAP2 PUSH2 0x88B SWAP7 SWAP6 SWAP5 SWAP4 PUSH2 0x255 SWAP11 SWAP2 PUSH2 0x895 JUMPI JUMPDEST POP PUSH2 0x87C DUP10 PUSH2 0xF87 JUMP JUMPDEST MLOAD SWAP2 CALLER SWAP1 PUSH2 0x155D JUMP JUMPDEST DUP6 PUSH2 0x1290 JUMP JUMPDEST MLOAD SWAP2 DUP3 SWAP2 DUP3 PUSH2 0xA8E JUMP JUMPDEST PUSH2 0x8AD SWAP2 POP PUSH1 0x20 RETURNDATASIZE DUP2 GT PUSH2 0x3DD JUMPI PUSH2 0x3CF DUP2 DUP4 PUSH2 0xB44 JUMP JUMPDEST CODESIZE PUSH2 0x872 JUMP JUMPDEST DUP7 MLOAD RETURNDATASIZE DUP11 DUP3 RETURNDATACOPY RETURNDATASIZE SWAP1 REVERT JUMPDEST PUSH4 0x4E487B71 PUSH1 0xE0 SHL DUP10 MSTORE PUSH1 0x32 DUP3 MSTORE PUSH1 0x24 DUP10 REVERT JUMPDEST PUSH4 0x4E487B71 PUSH1 0xE0 SHL DUP8 MSTORE PUSH1 0x32 SWAP1 MSTORE PUSH1 0x24 DUP7 REVERT JUMPDEST PUSH1 0x84 SWAP1 PUSH1 0x20 DUP7 MLOAD SWAP2 PUSH3 0x461BCD PUSH1 0xE5 SHL DUP4 MSTORE DUP3 ADD MSTORE PUSH1 0x21 PUSH1 0x24 DUP3 ADD MSTORE PUSH32 0x446578526F757465723A204558434553534956455F494E5055545F414D4F554E PUSH1 0x44 DUP3 ADD MSTORE PUSH1 0x15 PUSH1 0xFA SHL PUSH1 0x64 DUP3 ADD MSTORE REVERT JUMPDEST POP POP CALLVALUE PUSH2 0x417 JUMPI PUSH1 0x20 SWAP1 PUSH2 0x94C PUSH2 0x946 CALLDATASIZE PUSH2 0xA0A JUMP JUMPDEST SWAP2 PUSH2 0xE82 JUMP JUMPDEST SWAP1 MLOAD SWAP1 DUP2 MSTORE RETURN JUMPDEST POP POP CALLVALUE PUSH2 0x417 JUMPI DUP2 PUSH1 0x3 NOT CALLDATASIZE ADD SLT PUSH2 0x417 JUMPI PUSH1 0x20 SWAP1 MLOAD PUSH1 0x3 DUP2 MSTORE RETURN JUMPDEST POP SWAP1 CALLVALUE PUSH2 0x41B JUMPI PUSH2 0x98A PUSH2 0x985 PUSH2 0x7A2 CALLDATASIZE PUSH2 0xAF5 JUMP JUMPDEST PUSH2 0xFF1 JUMP JUMPDEST SWAP6 DUP7 MLOAD PUSH1 0x0 NOT DUP2 ADD SWAP1 DUP2 GT PUSH2 0x9BE JUMPI SWAP1 PUSH2 0x9A7 PUSH2 0x9AF SWAP3 DUP10 PUSH2 0xFAA JUMP JUMPDEST MLOAD LT ISZERO PUSH2 0xE28 JUMP JUMPDEST DUP3 ISZERO PUSH2 0x8D0 JUMPI PUSH2 0x7DA DUP3 PUSH2 0xFDD JUMP JUMPDEST PUSH4 0x4E487B71 PUSH1 0xE0 SHL DUP10 MSTORE PUSH1 0x11 DUP4 MSTORE PUSH1 0x24 DUP10 REVERT JUMPDEST POP POP CALLVALUE PUSH2 0x417 JUMPI PUSH2 0x255 SWAP1 PUSH2 0x4D0 PUSH2 0x9E8 CALLDATASIZE PUSH2 0xA5A JUMP JUMPDEST SWAP2 PUSH2 0x108F JUMP JUMPDEST POP POP CALLVALUE PUSH2 0x417 JUMPI PUSH1 0x20 SWAP1 PUSH2 0x94C PUSH2 0xA04 CALLDATASIZE PUSH2 0xA0A JUMP JUMPDEST SWAP2 PUSH2 0xD7E JUMP JUMPDEST PUSH1 0x60 SWAP1 PUSH1 0x3 NOT ADD SLT PUSH2 0xA24 JUMPI PUSH1 0x4 CALLDATALOAD SWAP1 PUSH1 0x24 CALLDATALOAD SWAP1 PUSH1 0x44 CALLDATALOAD SWAP1 JUMP JUMPDEST PUSH1 0x0 DUP1 REVERT JUMPDEST SWAP2 DUP2 PUSH1 0x1F DUP5 ADD SLT ISZERO PUSH2 0xA24 JUMPI DUP3 CALLDATALOAD SWAP2 PUSH8 0xFFFFFFFFFFFFFFFF DUP4 GT PUSH2 0xA24 JUMPI PUSH1 0x20 DUP1 DUP6 ADD SWAP5 DUP5 PUSH1 0x5 SHL ADD ADD GT PUSH2 0xA24 JUMPI JUMP JUMPDEST SWAP1 PUSH1 0x40 PUSH1 0x3 NOT DUP4 ADD SLT PUSH2 0xA24 JUMPI PUSH1 0x4 CALLDATALOAD SWAP2 PUSH1 0x24 CALLDATALOAD SWAP1 PUSH8 0xFFFFFFFFFFFFFFFF DUP3 GT PUSH2 0xA24 JUMPI PUSH2 0xA8A SWAP2 PUSH1 0x4 ADD PUSH2 0xA29 JUMP JUMPDEST SWAP1 SWAP2 JUMP JUMPDEST PUSH1 0x20 SWAP1 DUP2 PUSH1 0x40 DUP2 DUP4 ADD SWAP3 DUP3 DUP2 MSTORE DUP6 MLOAD DUP1 SWAP5 MSTORE ADD SWAP4 ADD SWAP2 PUSH1 0x0 JUMPDEST DUP3 DUP2 LT PUSH2 0xAB5 JUMPI POP POP POP POP SWAP1 JUMP JUMPDEST DUP4 MLOAD DUP6 MSTORE SWAP4 DUP2 ADD SWAP4 SWAP3 DUP2 ADD SWAP3 PUSH1 0x1 ADD PUSH2 0xAA7 JUMP JUMPDEST PUSH1 0x4 CALLDATALOAD SWAP1 PUSH1 0x1 PUSH1 0x1 PUSH1 0xA0 SHL SUB DUP3 AND DUP3 SUB PUSH2 0xA24 JUMPI JUMP JUMPDEST PUSH1 0x24 CALLDATALOAD SWAP1 PUSH1 0x1 PUSH1 0x1 PUSH1 0xA0 SHL SUB DUP3 AND DUP3 SUB PUSH2 0xA24 JUMPI JUMP JUMPDEST PUSH1 0xA0 PUSH1 0x3 NOT DUP3 ADD SLT PUSH2 0xA24 JUMPI PUSH1 0x4 CALLDATALOAD SWAP2 PUSH1 0x24 CALLDATALOAD SWAP2 PUSH1 0x44 CALLDATALOAD SWAP1 PUSH8 0xFFFFFFFFFFFFFFFF DUP3 GT PUSH2 0xA24 JUMPI PUSH2 0xB28 SWAP2 PUSH1 0x4 ADD PUSH2 0xA29 JUMP JUMPDEST SWAP1 SWAP2 PUSH1 0x64 CALLDATALOAD PUSH1 0x1 PUSH1 0x1 PUSH1 0xA0 SHL SUB DUP2 AND DUP2 SUB PUSH2 0xA24 JUMPI SWAP1 PUSH1 0x84 CALLDATALOAD SWAP1 JUMP JUMPDEST SWAP1 PUSH1 0x1F DUP1 NOT SWAP2 ADD AND DUP2 ADD SWAP1 DUP2 LT PUSH8 0xFFFFFFFFFFFFFFFF DUP3 GT OR PUSH2 0xB66 JUMPI PUSH1 0x40 MSTORE JUMP JUMPDEST PUSH4 0x4E487B71 PUSH1 0xE0 SHL PUSH1 0x0 MSTORE PUSH1 0x41 PUSH1 0x4 MSTORE PUSH1 0x24 PUSH1 0x0 REVERT JUMPDEST SWAP1 DUP2 PUSH1 0x20 SWAP2 SUB SLT PUSH2 0xA24 JUMPI MLOAD PUSH1 0x1 PUSH1 0x1 PUSH1 0xA0 SHL SUB DUP2 AND DUP2 SUB PUSH2 0xA24 JUMPI SWAP1 JUMP JUMPDEST PUSH1 0x40 MLOAD PUSH4 0xE6A43905 PUSH1 0xE0 SHL DUP2 MSTORE PUSH1 0x1 PUSH1 0x1 PUSH1 0xA0 SHL SUB SWAP2 DUP3 AND PUSH1 0x4 DUP3 ADD MSTORE SWAP2 AND PUSH1 0x24 DUP3 ADD MSTORE PUSH1 0x20 DUP2 DUP1 PUSH1 0x44 DUP2 ADD SUB DUP2 PUSH32 0x0 PUSH1 0x1 PUSH1 0x1 PUSH1 0xA0 SHL SUB AND GAS STATICCALL SWAP1 DUP2 ISZERO PUSH2 0xC22 JUMPI PUSH1 0x0 SWAP2 PUSH2 0xC07 JUMPI POP SWAP1 JUMP JUMPDEST PUSH2 0xC1F SWAP2 POP PUSH1 0x20 RETURNDATASIZE DUP2 GT PUSH2 0x3DD JUMPI PUSH2 0x3CF DUP2 DUP4 PUSH2 0xB44 JUMP JUMPDEST SWAP1 JUMP JUMPDEST PUSH1 0x40 MLOAD RETURNDATASIZE PUSH1 0x0 DUP3 RETURNDATACOPY RETURNDATASIZE SWAP1 REVERT JUMPDEST SWAP1 PUSH1 0x4 SWAP1 PUSH1 0x1 PUSH1 0x1 PUSH1 0xA0 SHL SUB DUP1 DUP5 AND SWAP2 PUSH1 0x60 SWAP1 DUP3 SWAP1 PUSH2 0xC57 SWAP1 DUP3 DUP2 AND DUP7 LT ISZERO PUSH2 0xCC1 JUMPI DUP8 PUSH2 0xB9B JUMP JUMPDEST AND PUSH1 0x40 MLOAD SWAP5 DUP6 DUP1 SWAP3 PUSH4 0x240BC6B PUSH1 0xE2 SHL DUP3 MSTORE GAS STATICCALL SWAP4 DUP5 ISZERO PUSH2 0xC22 JUMPI PUSH1 0x0 SWAP4 DUP5 SWAP6 PUSH2 0xC86 JUMPI JUMPDEST POP AND SUB PUSH2 0xA8A JUMPI SWAP2 JUMP JUMPDEST SWAP4 SWAP1 SWAP5 POP PUSH1 0x60 DUP5 RETURNDATASIZE DUP3 GT PUSH2 0xCB9 JUMPI JUMPDEST DUP2 PUSH2 0xCA2 PUSH1 0x60 SWAP4 DUP4 PUSH2 0xB44 JUMP JUMPDEST DUP2 ADD SUB SLT PUSH2 0x2A9 JUMPI POP PUSH1 0x20 DUP4 MLOAD SWAP4 ADD MLOAD SWAP4 CODESIZE PUSH2 0xC7C JUMP JUMPDEST RETURNDATASIZE SWAP2 POP PUSH2 0xC95 JUMP JUMPDEST DUP1 SWAP8 PUSH2 0xB9B JUMP JUMPDEST ISZERO PUSH2 0xCCF JUMPI JUMP JUMPDEST PUSH1 0x40 MLOAD PUSH3 0x461BCD PUSH1 0xE5 SHL DUP2 MSTORE PUSH1 0x20 PUSH1 0x4 DUP3 ADD MSTORE PUSH1 0x21 PUSH1 0x24 DUP3 ADD MSTORE PUSH32 0x446578526F757465723A20494E53554646494349454E545F4C49515549444954 PUSH1 0x44 DUP3 ADD MSTORE PUSH1 0x59 PUSH1 0xF8 SHL PUSH1 0x64 DUP3 ADD MSTORE PUSH1 0x84 SWAP1 REVERT JUMPDEST SWAP1 PUSH2 0x3E5 SWAP2 DUP3 DUP2 MUL SWAP3 DUP2 DUP5 DIV EQ SWAP1 ISZERO OR ISZERO PUSH2 0xD35 JUMPI JUMP JUMPDEST PUSH4 0x4E487B71 PUSH1 0xE0 SHL PUSH1 0x0 MSTORE PUSH1 0x11 PUSH1 0x4 MSTORE PUSH1 0x24 PUSH1 0x0 REVERT JUMPDEST DUP2 DUP2 MUL SWAP3 SWAP2 DUP2 ISZERO SWAP2 DUP5 DIV EQ OR ISZERO PUSH2 0xD35 JUMPI JUMP JUMPDEST DUP2 ISZERO PUSH2 0xD68 JUMPI DIV SWAP1 JUMP JUMPDEST PUSH4 0x4E487B71 PUSH1 0xE0 SHL PUSH1 0x0 MSTORE PUSH1 0x12 PUSH1 0x4 MSTORE PUSH1 0x24 PUSH1 0x0 REVERT JUMPDEST SWAP2 DUP3 ISZERO PUSH2 0xDD7 JUMPI PUSH2 0xDAB PUSH2 0xDA4 DUP4 ISZERO SWAP5 DUP6 ISZERO DUP1 PUSH2 0xDCE JUMPI JUMPDEST PUSH2 0xD9F SWAP1 PUSH2 0xCC8 JUMP JUMPDEST PUSH2 0xD1E JUMP JUMPDEST SWAP2 DUP3 PUSH2 0xD4B JUMP JUMPDEST SWAP3 PUSH2 0x3E8 DUP1 DUP5 MUL SWAP4 DUP5 DIV EQ OR ISZERO PUSH2 0xD35 JUMPI DUP2 ADD DUP1 SWAP2 GT PUSH2 0xD35 JUMPI PUSH2 0xC1F SWAP2 PUSH2 0xD5E JUMP JUMPDEST POP DUP4 ISZERO ISZERO PUSH2 0xD96 JUMP JUMPDEST PUSH1 0x40 MLOAD PUSH3 0x461BCD PUSH1 0xE5 SHL DUP2 MSTORE PUSH1 0x20 PUSH1 0x4 DUP3 ADD MSTORE PUSH1 0x24 DUP1 DUP3 ADD MSTORE PUSH32 0x446578526F757465723A20494E53554646494349454E545F494E5055545F414D PUSH1 0x44 DUP3 ADD MSTORE PUSH4 0x13D55395 PUSH1 0xE2 SHL PUSH1 0x64 DUP3 ADD MSTORE PUSH1 0x84 SWAP1 REVERT JUMPDEST ISZERO PUSH2 0xE2F JUMPI JUMP JUMPDEST PUSH1 0x40 MLOAD PUSH3 0x461BCD PUSH1 0xE5 SHL DUP2 MSTORE PUSH1 0x20 PUSH1 0x4 DUP3 ADD MSTORE PUSH1 0x25 PUSH1 0x24 DUP3 ADD MSTORE PUSH32 0x446578526F757465723A20494E53554646494349454E545F4F55545055545F41 PUSH1 0x44 DUP3 ADD MSTORE PUSH5 0x1353D55395 PUSH1 0xDA SHL PUSH1 0x64 DUP3 ADD MSTORE PUSH1 0x84 SWAP1 REVERT JUMPDEST SWAP1 DUP2 PUSH2 0xEAA SWAP2 PUSH2 0xE93 DUP3 ISZERO ISZERO PUSH2 0xE28 JUMP JUMPDEST DUP1 ISZERO ISZERO DUP1 PUSH2 0xEE8 JUMPI JUMPDEST PUSH2 0xEA5 SWAP1 PUSH2 0xCC8 JUMP JUMPDEST PUSH2 0xD4B JUMP JUMPDEST SWAP1 PUSH2 0x3E8 SWAP2 DUP3 DUP2 MUL SWAP3 DUP2 DUP5 DIV EQ SWAP1 ISZERO OR ISZERO PUSH2 0xD35 JUMPI DUP3 SUB SWAP2 DUP3 GT PUSH2 0xD35 JUMPI PUSH2 0xED4 PUSH2 0xEDA SWAP3 PUSH2 0xD1E JUMP JUMPDEST SWAP1 PUSH2 0xD5E JUMP JUMPDEST PUSH1 0x1 DUP2 ADD DUP1 SWAP2 GT PUSH2 0xD35 JUMPI SWAP1 JUMP JUMPDEST POP DUP5 ISZERO ISZERO PUSH2 0xE9C JUMP JUMPDEST ISZERO PUSH2 0xEF8 JUMPI JUMP JUMPDEST PUSH1 0x40 MLOAD PUSH3 0x461BCD PUSH1 0xE5 SHL DUP2 MSTORE PUSH1 0x20 PUSH1 0x4 DUP3 ADD MSTORE PUSH1 0x17 PUSH1 0x24 DUP3 ADD MSTORE PUSH32 0x446578526F757465723A20494E56414C49445F50415448000000000000000000 PUSH1 0x44 DUP3 ADD MSTORE PUSH1 0x64 SWAP1 REVERT JUMPDEST PUSH8 0xFFFFFFFFFFFFFFFF DUP2 GT PUSH2 0xB66 JUMPI PUSH1 0x5 SHL PUSH1 0x20 ADD SWAP1 JUMP JUMPDEST SWAP1 PUSH2 0xF5F DUP3 PUSH2 0xF3D JUMP JUMPDEST PUSH2 0xF6C PUSH1 0x40 MLOAD SWAP2 DUP3 PUSH2 0xB44 JUMP JUMPDEST DUP3 DUP2 MSTORE DUP1 SWAP3 PUSH2 0xF7D PUSH1 0x1F NOT SWAP2 PUSH2 0xF3D JUMP JUMPDEST ADD SWAP1 PUSH1 0x20 CALLDATASIZE SWAP2 ADD CALLDATACOPY JUMP JUMPDEST DUP1 MLOAD ISZERO PUSH2 0xF94 JUMPI PUSH1 0x20 ADD SWAP1 JUMP JUMPDEST PUSH4 0x4E487B71 PUSH1 0xE0 SHL PUSH1 0x0 MSTORE PUSH1 0x32 PUSH1 0x4 MSTORE PUSH1 0x24 PUSH1 0x0 REVERT JUMPDEST DUP1 MLOAD DUP3 LT ISZERO PUSH2 0xF94 JUMPI PUSH1 0x20 SWAP2 PUSH1 0x5 SHL ADD ADD SWAP1 JUMP JUMPDEST PUSH1 0x0 NOT DUP2 EQ PUSH2 0xD35 JUMPI PUSH1 0x1 ADD SWAP1 JUMP JUMPDEST SWAP2 SWAP1 DUP2 LT ISZERO PUSH2 0xF94 JUMPI PUSH1 0x5 SHL ADD SWAP1 JUMP JUMPDEST CALLDATALOAD PUSH1 0x1 PUSH1 0x1 PUSH1 0xA0 SHL SUB DUP2 AND DUP2 SUB PUSH2 0xA24 JUMPI SWAP1 JUMP JUMPDEST SWAP1 SWAP3 SWAP2 SWAP3 PUSH2 0x1002 PUSH1 0x2 DUP6 LT ISZERO PUSH2 0xEF1 JUMP JUMPDEST PUSH2 0x100B DUP5 PUSH2 0xF55 JUMP JUMPDEST SWAP2 PUSH2 0x1015 DUP4 PUSH2 0xF87 JUMP JUMPDEST MSTORE PUSH1 0x0 JUMPDEST PUSH1 0x0 NOT DUP6 ADD DUP6 DUP2 GT PUSH2 0xD35 JUMPI DUP2 LT ISZERO PUSH2 0x1089 JUMPI PUSH2 0x103F PUSH2 0x103A DUP3 DUP8 DUP6 PUSH2 0xFCD JUMP JUMPDEST PUSH2 0xFDD JUMP JUMPDEST SWAP1 PUSH1 0x1 DUP2 ADD DUP1 DUP3 GT PUSH2 0xD35 JUMPI PUSH2 0x107E PUSH2 0x1077 PUSH2 0x1066 PUSH2 0x1084 SWAP6 PUSH2 0x4A1 PUSH2 0x103A DUP7 DUP14 DUP12 PUSH2 0xFCD JUMP JUMPDEST SWAP1 PUSH2 0x1071 DUP7 DUP11 PUSH2 0xFAA JUMP JUMPDEST MLOAD PUSH2 0xD7E JUMP JUMPDEST SWAP2 DUP7 PUSH2 0xFAA JUMP JUMPDEST MSTORE PUSH2 0xFBE JUMP JUMPDEST PUSH2 0x1019 JUMP JUMPDEST POP POP SWAP2 POP JUMP JUMPDEST SWAP1 SWAP3 SWAP2 SWAP3 PUSH2 0x10A0 PUSH1 0x2 DUP6 LT ISZERO PUSH2 0xEF1 JUMP JUMPDEST PUSH2 0x10A9 DUP5 PUSH2 0xF55 JUMP JUMPDEST SWAP4 DUP5 MLOAD SWAP3 PUSH1 0x0 NOT SWAP4 DUP5 DUP2 ADD SWAP1 DUP2 GT PUSH2 0xD35 JUMPI PUSH2 0x10C5 SWAP1 DUP8 PUSH2 0xFAA JUMP JUMPDEST MSTORE DUP3 DUP2 ADD DUP2 DUP2 GT PUSH2 0xD35 JUMPI DUP1 JUMPDEST PUSH2 0x10DC JUMPI POP POP POP POP JUMP JUMPDEST DUP4 DUP2 ADD DUP2 DUP2 GT PUSH2 0x1132 JUMPI PUSH2 0x1123 PUSH2 0x111C PUSH2 0x110B PUSH2 0x10FD PUSH2 0x103A DUP6 DUP9 DUP11 PUSH2 0xFCD JUMP JUMPDEST PUSH2 0x4A1 PUSH2 0x103A DUP8 DUP10 DUP12 PUSH2 0xFCD JUMP JUMPDEST SWAP1 PUSH2 0x1116 DUP7 DUP13 PUSH2 0xFAA JUMP JUMPDEST MLOAD PUSH2 0xE82 JUMP JUMPDEST SWAP2 DUP9 PUSH2 0xFAA JUMP JUMPDEST MSTORE DUP1 ISZERO PUSH2 0x1132 JUMPI DUP4 ADD DUP1 PUSH2 0x10D2 JUMP JUMPDEST PUSH1 0x24 PUSH1 0x0 PUSH4 0x4E487B71 PUSH1 0xE0 SHL DUP2 MSTORE PUSH1 0x11 PUSH1 0x4 MSTORE REVERT JUMPDEST ISZERO PUSH2 0x114E JUMPI JUMP JUMPDEST PUSH1 0x40 MLOAD PUSH3 0x461BCD PUSH1 0xE5 SHL DUP2 MSTORE PUSH1 0x20 PUSH1 0x4 DUP3 ADD MSTORE PUSH1 0x12 PUSH1 0x24 DUP3 ADD MSTORE PUSH18 0x11195E149BDD5D195C8E8811561412549151 PUSH1 0x72 SHL PUSH1 0x44 DUP3 ADD MSTORE PUSH1 0x64 SWAP1 REVERT JUMPDEST ISZERO PUSH2 0x118F JUMPI JUMP JUMPDEST PUSH1 0x64 PUSH1 0x40 MLOAD PUSH3 0x461BCD PUSH1 0xE5 SHL DUP2 MSTORE PUSH1 0x20 PUSH1 0x4 DUP3 ADD MSTORE PUSH1 0x20 PUSH1 0x24 DUP3 ADD MSTORE PUSH32 0x446578526F757465723A20494E53554646494349454E545F415F414D4F554E54 PUSH1 0x44 DUP3 ADD MSTORE REVERT JUMPDEST ISZERO PUSH2 0x11DA JUMPI JUMP JUMPDEST PUSH1 0x64 PUSH1 0x40 MLOAD PUSH3 0x461BCD PUSH1 0xE5 SHL DUP2 MSTORE PUSH1 0x20 PUSH1 0x4 DUP3 ADD MSTORE PUSH1 0x20 PUSH1 0x24 DUP3 ADD MSTORE PUSH32 0x446578526F757465723A20494E53554646494349454E545F425F414D4F554E54 PUSH1 0x44 DUP3 ADD MSTORE REVERT JUMPDEST DUP1 ISZERO PUSH2 0x124B JUMPI PUSH2 0xC1F SWAP3 PUSH2 0x123D SWAP2 DUP4 ISZERO ISZERO DUP1 PUSH2 0x1242 JUMPI PUSH2 0xEA5 SWAP1 PUSH2 0xCC8 JUMP JUMPDEST PUSH2 0xD5E JUMP JUMPDEST POP DUP2 ISZERO ISZERO PUSH2 0xE9C JUMP JUMPDEST PUSH1 0x40 MLOAD PUSH3 0x461BCD PUSH1 0xE5 SHL DUP2 MSTORE PUSH1 0x20 PUSH1 0x4 DUP3 ADD MSTORE PUSH1 0x1E PUSH1 0x24 DUP3 ADD MSTORE PUSH32 0x446578526F757465723A20494E53554646494349454E545F414D4F554E540000 PUSH1 0x44 DUP3 ADD MSTORE PUSH1 0x64 SWAP1 REVERT JUMPDEST SWAP3 SWAP4 SWAP3 SWAP2 PUSH1 0x1 PUSH1 0x1 PUSH1 0xA0 SHL SUB PUSH32 0x0 DUP2 AND SWAP1 PUSH1 0x0 JUMPDEST PUSH1 0x0 NOT DUP5 ADD DUP5 DUP2 GT PUSH2 0xD35 JUMPI DUP2 LT ISZERO PUSH2 0x1553 JUMPI PUSH2 0x12E4 PUSH2 0x103A DUP3 DUP7 DUP9 PUSH2 0xFCD JUMP JUMPDEST PUSH1 0x1 DUP3 ADD SWAP1 DUP2 DUP4 GT PUSH2 0xD35 JUMPI PUSH2 0x12FE PUSH2 0x103A DUP4 DUP9 DUP11 PUSH2 0xFCD JUMP JUMPDEST SWAP1 DUP5 DUP2 AND DUP6 DUP4 AND DUP2 LT ISZERO PUSH2 0x1548 JUMPI DUP6 PUSH2 0x1319 DUP4 SWAP6 JUMPDEST DUP13 PUSH2 0xFAA JUMP JUMPDEST MLOAD SWAP5 AND SUB PUSH2 0x1540 JUMPI PUSH1 0x0 SWAP3 SWAP1 JUMPDEST PUSH1 0x1 NOT DUP9 ADD DUP9 DUP2 GT PUSH2 0xD35 JUMPI DUP6 LT ISZERO PUSH2 0x153A JUMPI PUSH1 0x2 DUP6 ADD DUP1 DUP7 GT PUSH2 0xD35 JUMPI PUSH2 0x103A PUSH2 0x1352 SWAP2 DUP11 DUP13 PUSH2 0xFCD JUMP JUMPDEST PUSH1 0x40 DUP1 MLOAD PUSH4 0xE6A43905 PUSH1 0xE0 SHL DUP2 MSTORE PUSH1 0x1 PUSH1 0x1 PUSH1 0xA0 SHL SUB DUP7 DUP2 AND PUSH1 0x4 DUP4 ADD MSTORE SWAP3 SWAP1 SWAP3 AND PUSH1 0x24 DUP4 ADD MSTORE SWAP1 PUSH1 0x20 DUP1 DUP3 PUSH1 0x44 DUP2 DUP14 GAS STATICCALL SWAP3 DUP4 ISZERO PUSH2 0x1530 JUMPI POP PUSH1 0x0 SWAP3 PUSH2 0x1513 JUMPI JUMPDEST POP POP JUMPDEST PUSH1 0x40 DUP1 MLOAD PUSH4 0xE6A43905 PUSH1 0xE0 SHL DUP2 MSTORE PUSH1 0x1 PUSH1 0x1 PUSH1 0xA0 SHL SUB SWAP4 DUP5 AND PUSH1 0x4 DUP1 DUP4 ADD SWAP2 SWAP1 SWAP2 MSTORE SWAP6 SWAP1 SWAP4 AND PUSH1 0x24 DUP5 ADD MSTORE SWAP4 SWAP2 PUSH1 0x20 SWAP1 DUP2 DUP2 PUSH1 0x44 DUP2 DUP14 GAS STATICCALL SWAP1 DUP2 ISZERO PUSH2 0x1508 JUMPI SWAP1 DUP10 SWAP2 PUSH1 0x0 SWAP2 PUSH2 0x14EB JUMPI JUMPDEST POP AND SWAP1 DUP6 MLOAD SWAP1 DUP1 DUP3 ADD SWAP4 PUSH8 0xFFFFFFFFFFFFFFFF SWAP5 DUP4 DUP2 LT DUP7 DUP3 GT OR PUSH2 0x14D6 JUMPI DUP9 MSTORE PUSH1 0x0 DUP4 MSTORE DUP4 EXTCODESIZE ISZERO PUSH2 0xA24 JUMPI SWAP8 SWAP2 SWAP3 SWAP1 DUP11 DUP9 MLOAD SWAP10 DUP11 SWAP5 PUSH4 0x22C0D9F PUSH1 0xE0 SHL DUP7 MSTORE DUP9 DUP7 ADD MSTORE PUSH1 0x24 SWAP9 DUP10 DUP7 ADD MSTORE AND PUSH1 0x44 DUP5 ADD MSTORE PUSH1 0x80 PUSH1 0x64 DUP5 ADD MSTORE DUP4 MLOAD SWAP1 DUP2 PUSH1 0x84 DUP6 ADD MSTORE PUSH1 0x0 JUMPDEST DUP3 DUP2 LT PUSH2 0x14BF JUMPI POP POP PUSH1 0x0 DUP1 SWAP5 POP DUP4 SWAP2 DUP3 PUSH1 0xA4 SWAP2 DUP4 DUP4 DUP3 DUP5 ADD ADD MSTORE PUSH1 0x1F DUP1 NOT SWAP2 ADD AND DUP2 ADD SUB ADD SWAP3 GAS CALL DUP1 ISZERO PUSH2 0x14B4 JUMPI PUSH2 0x148C JUMPI JUMPDEST POP POP POP POP POP PUSH2 0x1487 SWAP1 PUSH2 0xFBE JUMP JUMPDEST PUSH2 0x12C3 JUMP JUMPDEST DUP5 GT PUSH2 0x14A1 JUMPI POP POP MSTORE PUSH2 0x1487 CODESIZE DUP1 DUP1 DUP1 PUSH2 0x1479 JUMP JUMPDEST PUSH1 0x41 SWAP1 PUSH4 0x4E487B71 PUSH1 0xE0 SHL PUSH1 0x0 MSTORE MSTORE PUSH1 0x0 REVERT JUMPDEST DUP5 MLOAD RETURNDATASIZE PUSH1 0x0 DUP3 RETURNDATACOPY RETURNDATASIZE SWAP1 REVERT JUMPDEST DUP1 DUP7 ADD DUP3 ADD MLOAD DUP12 DUP3 ADD PUSH1 0xA4 ADD MSTORE DUP11 SWAP5 POP DUP2 ADD PUSH2 0x1445 JUMP JUMPDEST PUSH1 0x41 DUP8 PUSH4 0x4E487B71 PUSH1 0xE0 SHL PUSH1 0x0 MSTORE MSTORE PUSH1 0x24 PUSH1 0x0 REVERT JUMPDEST PUSH2 0x1502 SWAP2 POP DUP4 RETURNDATASIZE DUP6 GT PUSH2 0x3DD JUMPI PUSH2 0x3CF DUP2 DUP4 PUSH2 0xB44 JUMP JUMPDEST CODESIZE PUSH2 0x13E1 JUMP JUMPDEST DUP7 MLOAD RETURNDATASIZE PUSH1 0x0 DUP3 RETURNDATACOPY RETURNDATASIZE SWAP1 REVERT JUMPDEST PUSH2 0x1529 SWAP3 POP DUP1 RETURNDATASIZE LT PUSH2 0x3DD JUMPI PUSH2 0x3CF DUP2 DUP4 PUSH2 0xB44 JUMP JUMPDEST CODESIZE DUP1 PUSH2 0x1394 JUMP JUMPDEST MLOAD RETURNDATASIZE PUSH1 0x0 DUP3 RETURNDATACOPY RETURNDATASIZE SWAP1 REVERT JUMPDEST DUP12 PUSH2 0x1397 JUMP JUMPDEST PUSH1 0x0 SWAP1 PUSH2 0x1326 JUMP JUMPDEST DUP6 PUSH2 0x1319 DUP5 SWAP6 PUSH2 0x1313 JUMP JUMPDEST POP POP POP POP POP POP SWAP1 POP JUMP JUMPDEST PUSH1 0x40 MLOAD PUSH4 0x23B872DD PUSH1 0xE0 SHL PUSH1 0x20 DUP1 DUP4 ADD SWAP2 DUP3 MSTORE PUSH1 0x1 PUSH1 0x1 PUSH1 0xA0 SHL SUB SWAP5 DUP6 AND PUSH1 0x24 DUP5 ADD MSTORE SWAP4 SWAP1 SWAP5 AND PUSH1 0x44 DUP3 ADD MSTORE PUSH1 0x64 DUP1 DUP3 ADD SWAP6 SWAP1 SWAP6 MSTORE SWAP4 DUP5 MSTORE SWAP1 SWAP3 PUSH8 0xFFFFFFFFFFFFFFFF SWAP3 SWAP1 PUSH1 0xA0 DUP2 ADD DUP5 DUP2 GT DUP3 DUP3 LT OR PUSH2 0xB66 JUMPI PUSH1 0x40 MSTORE PUSH1 0x0 SWAP3 DUP4 SWAP3 DUP4 DUP1 SWAP4 MLOAD SWAP3 GAS CALL SWAP2 RETURNDATASIZE ISZERO PUSH2 0x1697 JUMPI RETURNDATASIZE SWAP1 DUP2 GT PUSH2 0x1683 JUMPI PUSH1 0x40 MLOAD SWAP1 PUSH2 0x15E6 PUSH1 0x1F DUP3 ADD PUSH1 0x1F NOT AND DUP7 ADD DUP4 PUSH2 0xB44 JUMP JUMPDEST DUP2 MSTORE RETURNDATASIZE DUP3 DUP6 DUP4 ADD RETURNDATACOPY JUMPDEST DUP3 PUSH2 0x1643 JUMPI JUMPDEST POP POP ISZERO PUSH2 0x15FF JUMPI POP JUMP JUMPDEST PUSH1 0x64 SWAP1 PUSH1 0x40 MLOAD SWAP1 PUSH3 0x461BCD PUSH1 0xE5 SHL DUP3 MSTORE PUSH1 0x4 DUP3 ADD MSTORE PUSH1 0x1F PUSH1 0x24 DUP3 ADD MSTORE PUSH32 0x446578526F757465723A205452414E534645525F46524F4D5F4641494C454400 PUSH1 0x44 DUP3 ADD MSTORE REVERT JUMPDEST DUP1 MLOAD SWAP3 POP DUP3 ISZERO SWAP2 SWAP1 DUP5 DUP4 ISZERO PUSH2 0x165F JUMPI JUMPDEST POP POP POP SWAP1 POP CODESIZE DUP1 PUSH2 0x15F5 JUMP JUMPDEST SWAP2 SWAP4 DUP2 DUP1 SWAP5 POP ADD SUB SLT PUSH2 0x417 JUMPI DUP3 ADD MLOAD SWAP1 DUP2 ISZERO ISZERO DUP3 SUB PUSH2 0x2A9 JUMPI POP DUP1 CODESIZE DUP1 DUP5 PUSH2 0x1653 JUMP JUMPDEST PUSH4 0x4E487B71 PUSH1 0xE0 SHL DUP3 MSTORE PUSH1 0x41 PUSH1 0x4 MSTORE PUSH1 0x24 DUP3 REVERT JUMPDEST POP PUSH1 0x60 PUSH2 0x15EF JUMP INVALID LOG2 PUSH5 0x6970667358 0x22 SLT KECCAK256 EXTCODEHASH ADDMOD 0xB2 0x2C GT 0x4D 0xF8 CREATE2 0x1F 0xEC SHR DUP16 DUP6 PUSH15 0x868938E2F4A2A9BF73DF08AAE58331 COINBASE 0xC7 GAS PUSH5 0x736F6C6343 STOP ADDMOD SGT STOP CALLER "},"methodIdentifiers":{"FEE_DENOMINATOR()":"d73792a9","FEE_NUMERATOR()":"41cd47bf","addLiquidity(address,address,uint256,uint256,uint256,uint256,address,uint256)":"e8e33700","factory()":"c45a0155","getAmountIn(uint256,uint256,uint256)":"85f8c259","getAmountOut(uint256,uint256,uint256)":"054d50d4","getAmountsIn(uint256,address[])":"1f00ca74","getAmountsOut(uint256,address[])":"d06ca61f","getPair(address,address)":"e6a43905","getReserves(address,address)":"d52bb6f4","removeLiquidity(address,address,uint256,uint256,uint256,address,uint256)":"baa2abde","swapExactTokensForTokens(uint256,uint256,address[],address,uint256)":"38ed1739","swapTokensForExactTokens(uint256,uint256,address[],address,uint256)":"8803dbee"}}}}}