{"contracts/DexPair.sol":{"DexPair":{"abi":[{"inputs":[],"stateMutability":"nonpayable","type":"constructor"},{"anonymous":false,"inputs":[{"indexed":true,"internalType":"address","name":"owner","type":"address"},{"indexed":true,"internalType":"address","name":"spender","type":"address"},{"indexed":false,"internalType":"uint256","name":"value","type":"uint256"}],"name":"Approval","type":"event"},{"anonymous":false,"inputs":[{"indexed":true,"internalType":"address","name":"sender","type":"address"},{"indexed":false,"internalType":"uint256","name":"amount0","type":"uint256"},{"indexed":false,"internalType":"uint256","name":"amount1","type":"uint256"},{"indexed":true,"internalType":"address","name":"to","type":"address"}],"name":"Burn","type":"event"},{"anonymous":false,"inputs":[{"indexed":true,"internalType":"address","name":"sender","type":"address"},{"indexed":false,"internalType":"uint256","name":"amount0","type":"uint256"},{"indexed":false,"internalType":"uint256","name":"amount1","type":"uint256"}],"name":"Mint","type":"event"},{"anonymous":false,"inputs":[{"indexed":true,"internalType":"address","name":"sender","type":"address"},{"indexed":false,"internalType":"uint256","name":"amount0In","type":"uint256"},{"indexed":false,"internalType":"uint256","name":"amount1In","type":"uint256"},{"indexed":false,"internalType":"uint256","name":"amount0Out","type":"uint256"},{"indexed":false,"internalType":"uint256","name":"amount1Out","type":"uint256"},{"indexed":true,"internalType":"address","name":"to","type":"address"}],"name":"Swap","type":"event"},{"anonymous":false,"inputs":[{"indexed":false,"internalType":"uint256","name":"reserve0","type":"uint256"},{"indexed":false,"internalType":"uint256","name":"reserve1","type":"uint256"}],"name":"Sync","type":"event"},{"anonymous":false,"inputs":[{"indexed":true,"internalType":"address","name":"from","type":"address"},{"indexed":true,"internalType":"address","name":"to","type":"address"},{"indexed":false,"internalType":"uint256","name":"value","type":"uint256"}],"name":"Transfer","type":"event"},{"inputs":[],"name":"FEE_DENOMINATOR","outputs":[{"internalType":"uint256","name":"","type":"uint256"}],"stateMutability":"view","type":"function"},{"inputs":[],"name":"FEE_NUMERATOR","outputs":[{"internalType":"uint256","name":"","type":"uint256"}],"stateMutability":"view","type":"function"},{"inputs":[],"name":"MINIMUM_LIQUIDITY","outputs":[{"internalType":"uint256","name":"","type":"uint256"}],"stateMutability":"view","type":"function"},{"inputs":[{"internalType":"address","name":"owner","type":"address"},{"internalType":"address","name":"spender","type":"address"}],"name":"allowance","outputs":[{"internalType":"uint256","name":"","type":"uint256"}],"stateMutability":"view","type":"function"},{"inputs":[{"internalType":"address","name":"spender","type":"address"},{"internalType":"uint256","name":"amount","type":"uint256"}],"name":"approve","outputs":[{"internalType":"bool","name":"","type":"bool"}],"stateMutability":"nonpayable","type":"function"},{"inputs":[{"internalType":"address","name":"account","type":"address"}],"name":"balanceOf","outputs":[{"internalType":"uint256","name":"","type":"uint256"}],"stateMutability":"view","type":"function"},{"inputs":[],"name":"blockTimestampLast","outputs":[{"internalType":"uint256","name":"","type":"uint256"}],"stateMutability":"view","type":"function"},{"inputs":[{"internalType":"address","name":"to","type":"address"}],"name":"burn","outputs":[{"internalType":"uint256","name":"amount0","type":"uint256"},{"internalType":"uint256","name":"amount1","type":"uint256"}],"stateMutability":"nonpayable","type":"function"},{"inputs":[],"name":"decimals","outputs":[{"internalType":"uint8","name":"","type":"uint8"}],"stateMutability":"view","type":"function"},{"inputs":[{"internalType":"address","name":"spender","type":"address"},{"internalType":"uint256","name":"subtractedValue","type":"uint256"}],"name":"decreaseAllowance","outputs":[{"internalType":"bool","name":"","type":"bool"}],"stateMutability":"nonpayable","type":"function"},{"inputs":[],"name":"factory","outputs":[{"internalType":"address","name":"","type":"address"}],"stateMutability":"view","type":"function"},{"inputs":[],"name":"getReserves","outputs":[{"internalType":"uint256","name":"_reserve0","type":"uint256"},{"internalType":"uint256","name":"_reserve1","type":"uint256"},{"internalType":"uint256","name":"_blockTimestampLast","type":"uint256"}],"stateMutability":"view","type":"function"},{"inputs":[{"internalType":"address","name":"spender","type":"address"},{"internalType":"uint256","name":"addedValue","type":"uint256"}],"name":"increaseAllowance","outputs":[{"internalType":"bool","name":"","type":"bool"}],"stateMutability":"nonpayable","type":"function"},{"inputs":[{"internalType":"address","name":"_token0","type":"address"},{"internalType":"address","name":"_token1","type":"address"}],"name":"initialize","outputs":[],"stateMutability":"nonpayable","type":"function"},{"inputs":[{"internalType":"address","name":"to","type":"address"}],"name":"mint","outputs":[{"internalType":"uint256","name":"liquidity","type":"uint256"}],"stateMutability":"nonpayable","type":"function"},{"inputs":[],"name":"name","outputs":[{"internalType":"string","name":"","type":"string"}],"stateMutability":"view","type":"function"},{"inputs":[],"name":"price0CumulativeLast","outputs":[{"internalType":"uint256","name":"","type":"uint256"}],"stateMutability":"view","type":"function"},{"inputs":[],"name":"price1CumulativeLast","outputs":[{"internalType":"uint256","name":"","type":"uint256"}],"stateMutability":"view","type":"function"},{"inputs":[],"name":"reserve0","outputs":[{"internalType":"uint256","name":"","type":"uint256"}],"stateMutability":"view","type":"function"},{"inputs":[],"name":"reserve1","outputs":[{"internalType":"uint256","name":"","type":"uint256"}],"stateMutability":"view","type":"function"},{"inputs":[{"internalType":"uint256","name":"amount0Out","type":"uint256"},{"internalType":"uint256","name":"amount1Out","type":"uint256"},{"internalType":"address","name":"to","type":"address"},{"internalType":"bytes","name":"data","type":"bytes"}],"name":"swap","outputs":[],"stateMutability":"nonpayable","type":"function"},{"inputs":[],"name":"symbol","outputs":[{"internalType":"string","name":"","type":"string"}],"stateMutability":"view","type":"function"},{"inputs":[],"name":"sync","outputs":[],"stateMutability":"nonpayable","type":"function"},{"inputs":[],"name":"token0","outputs":[{"internalType":"address","name":"","type":"address"}],"stateMutability":"view","type":"function"},{"inputs":[],"name":"token1","outputs":[{"internalType":"address","name":"","type":"address"}],"stateMutability":"view","type":"function"},{"inputs":[],"name":"totalSupply","outputs":[{"internalType":"uint256","name":"","type":"uint256"}],"stateMutability":"view","type":"function"},{"inputs":[{"internalType":"address","name":"to","type":"address"},{"internalType":"uint256","name":"amount","type":"uint256"}],"name":"transfer","outputs":[{"internalType":"bool","name":"","type":"bool"}],"stateMutability":"nonpayable","type":"function"},{"inputs":[{"internalType":"address","name":"from","type":"address"},{"internalType":"address","name":"to","type":"address"},{"internalType":"uint256","name":"amount","type":"uint256"}],"name":"transferFrom","outputs":[{"internalType":"bool","name":"","type":"bool"}],"stateMutability":"nonpayable","type":"function"}],"evm":{"bytecode":{"linkReferences":{},"object":"608060405234620002f15762000014620002f6565b6200001e620002f6565b815190916001600160401b03808311620001f157600380546001948582811c9216948515620002e6575b60209586841014620002d0578190601f938481116200027a575b508690848311600114620002135760009262000207575b505060001982851b1c191690861b1782555b8551928311620001f15760049384548681811c91168015620001e6575b82821014620001d15782811162000186575b5080918411600114620001185750829394956000936200010c575b505082851b92600019911b1c19161790555b600555600680546001600160a01b03191633179055604051611b6c90816200032a8239f35b015191503880620000d5565b9190601f198416968560005283600020936000905b8982106200016e5750508487989796971062000153575b50505050811b019055620000e7565b01519060f884600019921b161c191690553880808062000144565b8089859782949686015181550196019301906200012d565b85600052816000208380870160051c820192848810620001c7575b0160051c019087905b828110620001ba575050620000ba565b60008155018790620001aa565b92508192620001a1565b602286634e487b7160e01b6000525260246000fd5b90607f1690620000a8565b634e487b7160e01b600052604160045260246000fd5b01519050388062000079565b90889350601f1983169186600052886000209260005b8a8282106200026357505084116200024a575b505050811b0182556200008b565b015160001983871b60f8161c191690553880806200023c565b8385015186558c9790950194938401930162000229565b90915084600052866000208480850160051c820192898610620002c6575b918a91869594930160051c01915b828110620002b657505062000062565b600081558594508a9101620002a6565b9250819262000298565b634e487b7160e01b600052602260045260246000fd5b91607f169162000048565b600080fd5b60408051919082016001600160401b03811183821017620001f157604052600682526504445582d4c560d41b602083015256fe6080604052600436101561001257600080fd5b60003560e01c8063022c0d9f14610fe257806306fdde0314610f245780630902f1ac14610ef5578063095ea7b314610ecf5780630dfe168114610ea657806318160ddd14610e8857806323b872dd14610dca578063313ce56714610dae5780633950935114610d5d57806341cd47bf14610d41578063443cb4bc14610d23578063485cc95514610c885780635909c0d514610c6a5780635a3d549314610c4c5780635a76f25e14610c2e5780636a627842146108cd57806370a082311461089357806389afcb44146104fe57806395d89b41146103f9578063a457c2d714610352578063a9059cbb14610321578063ba9a7a56146102ac578063c45a0155146102f8578063c5700a02146102da578063d21220a7146102b1578063d73792a9146102ac578063dd62ed3e1461025b5763fff6cae91461015057600080fd5b346102145760003660031901126102145761016961183d565b6007546040516370a0823160e01b808252306004830152916020906001600160a01b039082908490602490829085165afa9283156102205760009361022c575b508190600854169360246040518096819382523060048301525afa908115610220576000916101eb575b600954600a546101e4918486611893565b6001600555005b905082813d8311610219575b610201818361155a565b81010312610214576101e49151386101d3565b600080fd5b503d6101f7565b6040513d6000823e3d90fd5b9092508181813d8311610254575b610244818361155a565b81010312610214575191816101a9565b503d61023a565b34610214576040366003190112610214576102746114c8565b61027c6114de565b9060018060a01b038091166000526001602052604060002091166000526020526020604060002054604051908152f35b61153d565b34610214576000366003190112610214576008546040516001600160a01b039091168152602090f35b34610214576000366003190112610214576020600b54604051908152f35b34610214576000366003190112610214576006546040516001600160a01b039091168152602090f35b346102145760403660031901126102145761034761033d6114c8565b602435903361159f565b602060405160018152f35b346102145760403660031901126102145761036b6114c8565b60243590336000526001602052604060002060018060a01b038216600052602052604060002054918083106103a657610347920390336116fb565b60405162461bcd60e51b815260206004820152602560248201527f45524332303a2064656372656173656420616c6c6f77616e63652062656c6f77604482015264207a65726f60d81b6064820152608490fd5b3461021457600036600319011261021457604051600090600454600181811c908083169283156104f4575b60209384841081146104de578386529081156104be5750600114610463575b61045f846104538188038261155a565b604051918291826114f4565b0390f35b600460009081529294507f8a35acfbc15ff81a39ae7d344fd709f28e8600b4aa8c65c6b64bfe7fe36bd19b5b8284106104ab575050508161045f936104539282010193610443565b805485850187015292850192810161048f565b60ff1916858501525050151560051b82010191506104538161045f610443565b634e487b7160e01b600052602260045260246000fd5b91607f1691610424565b3461021457602080600319360112610214576105186114c8565b61052061183d565b60095491600a549060018060a01b0392836007541693806008541693604051946370a0823160e01b808752306004880152602490868883818c5afa97881561022057600098610864575b5060405198818a523060048b0152878a8481875afa998a156102205760009a610835575b5030600052600088526105cb604060002054996105a9611961565b506105bf6105c48c6105bf60025494859261180a565b61181d565b9c8c61180a565b988a15158061082c575b156107d957301561078b57306000526000895260406000205481811061073c57916000828b938796953084528386520360408320558060025403600255604051908152600080516020611b17833981519152843092a36106368c8a836119de565b6106418b8a886119de565b604051938480928582523060048301525afa92831561022057889260009461070b575b506040518095819382523060048301525afa918215610220576000926106d5575b50976106949291604099611893565b855191858352848484015216907fdccd412f0b1252819cb1fd330b93224ca42612892bb3f4f789976e6d81936496863392a360016005558351928352820152f35b929150978583813d8311610704575b6106ee818361155a565b8101031261021457915191979091906040610685565b503d6106e4565b8381949295503d8311610735575b610723818361155a565b8101031261021457879151928c610664565b503d610719565b60405162461bcd60e51b8152600481018b90526022818701527f45524332303a206275726e20616d6f756e7420657863656564732062616c616e604482015261636560f01b6064820152608490fd5b60405162461bcd60e51b8152600481018a90526021818601527f45524332303a206275726e2066726f6d20746865207a65726f206164647265736044820152607360f81b6064820152608490fd5b60405162461bcd60e51b8152600481018a90526026818601527f446578506169723a20494e53554646494349454e545f4c49515549444954595f60448201526510955493915160d21b6064820152608490fd5b508915156105d5565b9099508781813d831161085d575b61084d818361155a565b810103126102145751988b61058e565b503d610843565b9097508681813d831161088c575b61087c818361155a565b810103126102145751968a61056a565b503d610872565b34610214576020366003190112610214576001600160a01b036108b46114c8565b1660005260006020526020604060002054604051908152f35b3461021457602080600319360112610214576108e76114c8565b906108f061183d565b60095491600a5460018060a01b0380600754169160405195869386856370a0823160e01b9283825230600483015260249a8b915afa94851561022057600095610bff575b5086846008541691896040518094819382523060048301525afa90811561022057600091610bd2575b5061096882866117fd565b9461097384836117fd565b9461097c611961565b506002549788610b9e57610990878961180a565b60006003821115610b9057508060019080821c828101809111610b7b5791905b838310610b5b575050505b6103e7198101908111610b4657986103e890818101809111610b3157600080516020611b178339815191528c60019360009360025584845283825260408420818154019055604051908152a35b8815610ade57168015610a9a5790610a5d94939291610a2989600254611592565b6002558060005260008a5260406000208981540190556000600080516020611b178339815191528b6040518c8152a3611893565b604051918252838201527f4c209b5fc8ad50758f13e2e1088ba56a560dff690a1c6fef26394f4c03821c4f60403392a26001600555604051908152f35b60405162461bcd60e51b8152600481018a9052601f818c01527f45524332303a206d696e7420746f20746865207a65726f2061646472657373006044820152606490fd5b60405162461bcd60e51b8152600481018b90526026818d01527f446578506169723a20494e53554646494349454e545f4c49515549444954595f60448201526513525395115160d21b6064820152608490fd5b8c634e487b7160e01b60005260116004526000fd5b8b634e487b7160e01b60005260116004526000fd5b90919250610b7283610b6d818461181d565b611592565b821c91906109b0565b8e634e487b7160e01b60005260116004526000fd5b90156109bb575060016109bb565b97610bbb866105bf610bb4886105bf868e61180a565b938a61180a565b80821015610bcb57505b97610a08565b9050610bc5565b90508681813d8311610bf8575b610be9818361155a565b8101031261021457518861095d565b503d610bdf565b9094508681813d8311610c27575b610c17818361155a565b8101031261021457519388610934565b503d610c0d565b34610214576000366003190112610214576020600a54604051908152f35b34610214576000366003190112610214576020600d54604051908152f35b34610214576000366003190112610214576020600c54604051908152f35b3461021457604036600319011261021457610ca16114c8565b610ca96114de565b6006546001600160a01b03919082163303610ce957816bffffffffffffffffffffffff60a01b931683600754161760075516906008541617600855600080f35b60405162461bcd60e51b81526020600482015260126024820152712232bc2830b4b91d102327a92124a22222a760711b6044820152606490fd5b34610214576000366003190112610214576020600954604051908152f35b3461021457600036600319011261021457602060405160038152f35b3461021457604036600319011261021457610347610d796114c8565b336000526001602052604060002060018060a01b038216600052602052610da7602435604060002054611592565b90336116fb565b3461021457600036600319011261021457602060405160128152f35b3461021457606036600319011261021457610de36114c8565b610deb6114de565b6044359060018060a01b0383166000526001602052604060002033600052602052604060002054926000198403610e27575b610347935061159f565b828410610e4357610e3e83610347950333836116fb565b610e1d565b60405162461bcd60e51b815260206004820152601d60248201527f45524332303a20696e73756666696369656e7420616c6c6f77616e63650000006044820152606490fd5b34610214576000366003190112610214576020600254604051908152f35b34610214576000366003190112610214576007546040516001600160a01b039091168152602090f35b3461021457604036600319011261021457610347610eeb6114c8565b60243590336116fb565b34610214576000366003190112610214576060600954600a54600b549060405192835260208301526040820152f35b3461021457600036600319011261021457604051600090600354600181811c90808316928315610fd8575b60209384841081146104de578386529081156104be5750600114610f7d5761045f846104538188038261155a565b600360009081529294507fc2575a0e9e593c00f959f8c92f12db2869c3395a3b0502d05e2516446f71f85b5b828410610fc5575050508161045f936104539282010193610443565b8054858501870152928501928101610fa9565b91607f1691610f4f565b34610214576080366003190112610214576044356001600160a01b0380821682036102145760643567ffffffffffffffff808211610214573660238301121561021457816004013590811161021457369101602401116102145761104461183d565b6004351591821580936114bd575b1561146c5760095492600a5490846004351080611461575b1561141c578360075416908185851614158061140c575b156113d1576113bd575b506024356113a7575b826007541690604051906020826024816370a0823160e01b968782523060048301525afa91821561022057600092611373575b50602085600854169360246040518096819382523060048301525afa9283156102205760009361133f575b506110ff600435876117fd565b8211156113375761111b611115600435886117fd565b836117fd565b955b611129602435836117fd565b84111561132f5761114561113f602435846117fd565b856117fd565b935b8715158815611326575b156112d657836103e88102046103e8148415171561129757600388028881046003148915171561129757611189906103e886026117fd565b816103e88102046103e814821517156112975785600381020460031486151715611297576111c8906111c2600388026103e885026117fd565b9061180a565b6111d2848461180a565b6001906103e860025b600181116112ad575080600019048311611297576111fa92029061180a565b116112525761120893611893565b60405193845260208401526004356040840152602435606084015216907fd78ad95fa46c994b6551d0da85fc275fe613ce37657fb8d5e3d130840159d82260803392a36001600555005b60405162461bcd60e51b815260206004820152601760248201527f446578506169723a204b5f494e53554646494349454e540000000000000000006044820152606490fd5b634e487b7160e01b600052601160045260246000fd5b908060001904811161129757600182166112cd575b80029060011c6111db565b809302926112c2565b60405162461bcd60e51b815260206004820152602260248201527f446578506169723a20494e53554646494349454e545f494e5055545f414d4f55604482015261139560f21b6064820152608490fd5b50841515611151565b600093611147565b60009561111d565b9092506020813d60201161136b575b8161135b6020938361155a565b81010312610214575191866110f2565b3d915061134e565b9091506020813d60201161139f575b8161138f6020938361155a565b81010312610214575190866110c7565b3d9150611382565b6113b86024358385600854166119de565b611094565b6113cb9083600435916119de565b8461108b565b60405162461bcd60e51b8152602060048201526013602482015272446578506169723a20494e56414c49445f544f60681b6044820152606490fd5b5084600854168585161415611081565b60405162461bcd60e51b815260206004820152601f60248201527f446578506169723a20494e53554646494349454e545f4c4951554944495459006044820152606490fd5b50816024351061106a565b60405162461bcd60e51b815260206004820152602360248201527f446578506169723a20494e53554646494349454e545f4f55545055545f414d4f60448201526215539560ea1b6064820152608490fd5b506024351515611052565b600435906001600160a01b038216820361021457565b602435906001600160a01b038216820361021457565b6020808252825181830181905290939260005b82811061152957505060409293506000838284010152601f8019910116010190565b818101860151848201604001528501611507565b346102145760003660031901126102145760206040516103e88152f35b90601f8019910116810190811067ffffffffffffffff82111761157c57604052565b634e487b7160e01b600052604160045260246000fd5b9190820180921161129757565b6001600160a01b039081169182156116a85716918215611657576000828152806020526040812054918083106116035760408282600080516020611b17833981519152958760209652828652038282205586815220818154019055604051908152a3565b60405162461bcd60e51b815260206004820152602660248201527f45524332303a207472616e7366657220616d6f756e7420657863656564732062604482015265616c616e636560d01b6064820152608490fd5b60405162461bcd60e51b815260206004820152602360248201527f45524332303a207472616e7366657220746f20746865207a65726f206164647260448201526265737360e81b6064820152608490fd5b60405162461bcd60e51b815260206004820152602560248201527f45524332303a207472616e736665722066726f6d20746865207a65726f206164604482015264647265737360d81b6064820152608490fd5b6001600160a01b039081169182156117ac571691821561175c5760207f8c5be1e5ebec7d5bd14f71427d1e84f3dd0314c0f7b2291e5b200ac8c7c3b925918360005260018252604060002085600052825280604060002055604051908152a3565b60405162461bcd60e51b815260206004820152602260248201527f45524332303a20617070726f766520746f20746865207a65726f206164647265604482015261737360f01b6064820152608490fd5b60405162461bcd60e51b8152602060048201526024808201527f45524332303a20617070726f76652066726f6d20746865207a65726f206164646044820152637265737360e01b6064820152608490fd5b9190820391821161129757565b8181029291811591840414171561129757565b8115611827570490565b634e487b7160e01b600052601260045260246000fd5b60026005541461184e576002600555565b60405162461bcd60e51b815260206004820152601f60248201527f5265656e7472616e637947756172643a207265656e7472616e742063616c6c006044820152606490fd5b9092919263ffffffff938442169085600b5416820394868611611297577fcf2aa50876cdfbb541206f89af0ee78d44a2abf8d328e37fa4917f982149848a966040961680151580611958575b8061194f575b611905575b5050508260095581600a55600b5582519182526020820152a1565b6119248284611931611929856119246119449961193c9960701b61181d565b61180a565b600c54611592565b600c5560701b61181d565b600d54611592565b600d553880806118ea565b508115156118e5565b508215156118df565b600654604051622fcfcb60e31b81526001600160a01b03916020908290600490829086165afa9081156102205760009161199d575b5016151590565b6020813d82116119d6575b816119b56020938361155a565b810103126119d257519082821682036119cf575038611996565b80fd5b5080fd5b3d91506119a8565b60405163a9059cbb60e01b60208083019182526001600160a01b039094166024830152604480830195909552938152919267ffffffffffffffff92608081018481118282101761157c57604052600092839283809351925af1913d15611b0e573d908111611afa5760405190611a5d601f8201601f191686018361155a565b81523d828583013e5b82611aba575b505015611a765750565b6064906040519062461bcd60e51b82526004820152601860248201527f446578506169723a205452414e534645525f4641494c454400000000000000006044820152fd5b8051925082159190848315611ad6575b50505090503880611a6c565b9193818094500103126119d2578201519081151582036119cf575080388084611aca565b634e487b7160e01b82526041600452602482fd5b506060611a6656feddf252ad1be2c89b69c2b068fc378daa952ba7f163c4a11628f55a4df523b3efa2646970667358221220ec56b28e5f6600dbe793183f553f1e5377da848b842ff878d3c29ebbf8981aef64736f6c63430008130033","opcodes":"PUSH1 0x80 PUSH1 0x40 MSTORE CALLVALUE PUSH3 0x2F1 JUMPI PUSH3 0x14 PUSH3 0x2F6 JUMP JUMPDEST PUSH3 0x1E PUSH3 0x2F6 JUMP JUMPDEST DUP2 MLOAD SWAP1 SWAP2 PUSH1 0x1 PUSH1 0x1 PUSH1 0x40 SHL SUB DUP1 DUP4 GT PUSH3 0x1F1 JUMPI PUSH1 0x3 DUP1 SLOAD PUSH1 0x1 SWAP5 DUP6 DUP3 DUP2 SHR SWAP3 AND SWAP5 DUP6 ISZERO PUSH3 0x2E6 JUMPI JUMPDEST PUSH1 0x20 SWAP6 DUP7 DUP5 LT EQ PUSH3 0x2D0 JUMPI DUP2 SWAP1 PUSH1 0x1F SWAP4 DUP5 DUP2 GT PUSH3 0x27A JUMPI JUMPDEST POP DUP7 SWAP1 DUP5 DUP4 GT PUSH1 0x1 EQ PUSH3 0x213 JUMPI PUSH1 0x0 SWAP3 PUSH3 0x207 JUMPI JUMPDEST POP POP PUSH1 0x0 NOT DUP3 DUP6 SHL SHR NOT AND SWAP1 DUP7 SHL OR DUP3 SSTORE JUMPDEST DUP6 MLOAD SWAP3 DUP4 GT PUSH3 0x1F1 JUMPI PUSH1 0x4 SWAP4 DUP5 SLOAD DUP7 DUP2 DUP2 SHR SWAP2 AND DUP1 ISZERO PUSH3 0x1E6 JUMPI JUMPDEST DUP3 DUP3 LT EQ PUSH3 0x1D1 JUMPI DUP3 DUP2 GT PUSH3 0x186 JUMPI JUMPDEST POP DUP1 SWAP2 DUP5 GT PUSH1 0x1 EQ PUSH3 0x118 JUMPI POP DUP3 SWAP4 SWAP5 SWAP6 PUSH1 0x0 SWAP4 PUSH3 0x10C JUMPI JUMPDEST POP POP DUP3 DUP6 SHL SWAP3 PUSH1 0x0 NOT SWAP2 SHL SHR NOT AND OR SWAP1 SSTORE JUMPDEST PUSH1 0x5 SSTORE PUSH1 0x6 DUP1 SLOAD PUSH1 0x1 PUSH1 0x1 PUSH1 0xA0 SHL SUB NOT AND CALLER OR SWAP1 SSTORE PUSH1 0x40 MLOAD PUSH2 0x1B6C SWAP1 DUP2 PUSH3 0x32A DUP3 CODECOPY RETURN JUMPDEST ADD MLOAD SWAP2 POP CODESIZE DUP1 PUSH3 0xD5 JUMP JUMPDEST SWAP2 SWAP1 PUSH1 0x1F NOT DUP5 AND SWAP7 DUP6 PUSH1 0x0 MSTORE DUP4 PUSH1 0x0 KECCAK256 SWAP4 PUSH1 0x0 SWAP1 JUMPDEST DUP10 DUP3 LT PUSH3 0x16E JUMPI POP POP DUP5 DUP8 SWAP9 SWAP8 SWAP7 SWAP8 LT PUSH3 0x153 JUMPI JUMPDEST POP POP POP POP DUP2 SHL ADD SWAP1 SSTORE PUSH3 0xE7 JUMP JUMPDEST ADD MLOAD SWAP1 PUSH1 0xF8 DUP5 PUSH1 0x0 NOT SWAP3 SHL AND SHR NOT AND SWAP1 SSTORE CODESIZE DUP1 DUP1 DUP1 PUSH3 0x144 JUMP JUMPDEST DUP1 DUP10 DUP6 SWAP8 DUP3 SWAP5 SWAP7 DUP7 ADD MLOAD DUP2 SSTORE ADD SWAP7 ADD SWAP4 ADD SWAP1 PUSH3 0x12D JUMP JUMPDEST DUP6 PUSH1 0x0 MSTORE DUP2 PUSH1 0x0 KECCAK256 DUP4 DUP1 DUP8 ADD PUSH1 0x5 SHR DUP3 ADD SWAP3 DUP5 DUP9 LT PUSH3 0x1C7 JUMPI JUMPDEST ADD PUSH1 0x5 SHR ADD SWAP1 DUP8 SWAP1 JUMPDEST DUP3 DUP2 LT PUSH3 0x1BA JUMPI POP POP PUSH3 0xBA JUMP JUMPDEST PUSH1 0x0 DUP2 SSTORE ADD DUP8 SWAP1 PUSH3 0x1AA JUMP JUMPDEST SWAP3 POP DUP2 SWAP3 PUSH3 0x1A1 JUMP JUMPDEST PUSH1 0x22 DUP7 PUSH4 0x4E487B71 PUSH1 0xE0 SHL PUSH1 0x0 MSTORE MSTORE PUSH1 0x24 PUSH1 0x0 REVERT JUMPDEST SWAP1 PUSH1 0x7F AND SWAP1 PUSH3 0xA8 JUMP JUMPDEST PUSH4 0x4E487B71 PUSH1 0xE0 SHL PUSH1 0x0 MSTORE PUSH1 0x41 PUSH1 0x4 MSTORE PUSH1 0x24 PUSH1 0x0 REVERT JUMPDEST ADD MLOAD SWAP1 POP CODESIZE DUP1 PUSH3 0x79 JUMP JUMPDEST SWAP1 DUP9 SWAP4 POP PUSH1 0x1F NOT DUP4 AND SWAP2 DUP7 PUSH1 0x0 MSTORE DUP9 PUSH1 0x0 KECCAK256 SWAP3 PUSH1 0x0 JUMPDEST DUP11 DUP3 DUP3 LT PUSH3 0x263 JUMPI POP POP DUP5 GT PUSH3 0x24A JUMPI JUMPDEST POP POP POP DUP2 SHL ADD DUP3 SSTORE PUSH3 0x8B JUMP JUMPDEST ADD MLOAD PUSH1 0x0 NOT DUP4 DUP8 SHL PUSH1 0xF8 AND SHR NOT AND SWAP1 SSTORE CODESIZE DUP1 DUP1 PUSH3 0x23C JUMP JUMPDEST DUP4 DUP6 ADD MLOAD DUP7 SSTORE DUP13 SWAP8 SWAP1 SWAP6 ADD SWAP5 SWAP4 DUP5 ADD SWAP4 ADD PUSH3 0x229 JUMP JUMPDEST SWAP1 SWAP2 POP DUP5 PUSH1 0x0 MSTORE DUP7 PUSH1 0x0 KECCAK256 DUP5 DUP1 DUP6 ADD PUSH1 0x5 SHR DUP3 ADD SWAP3 DUP10 DUP7 LT PUSH3 0x2C6 JUMPI JUMPDEST SWAP2 DUP11 SWAP2 DUP7 SWAP6 SWAP5 SWAP4 ADD PUSH1 0x5 SHR ADD SWAP2 JUMPDEST DUP3 DUP2 LT PUSH3 0x2B6 JUMPI POP POP PUSH3 0x62 JUMP JUMPDEST PUSH1 0x0 DUP2 SSTORE DUP6 SWAP5 POP DUP11 SWAP2 ADD PUSH3 0x2A6 JUMP JUMPDEST SWAP3 POP DUP2 SWAP3 PUSH3 0x298 JUMP JUMPDEST PUSH4 0x4E487B71 PUSH1 0xE0 SHL PUSH1 0x0 MSTORE PUSH1 0x22 PUSH1 0x4 MSTORE PUSH1 0x24 PUSH1 0x0 REVERT JUMPDEST SWAP2 PUSH1 0x7F AND SWAP2 PUSH3 0x48 JUMP JUMPDEST PUSH1 0x0 DUP1 REVERT JUMPDEST PUSH1 0x40 DUP1 MLOAD SWAP2 SWAP1 DUP3 ADD PUSH1 0x1 PUSH1 0x1 PUSH1 0x40 SHL SUB DUP2 GT DUP4 DUP3 LT OR PUSH3 0x1F1 JUMPI PUSH1 0x40 MSTORE PUSH1 0x6 DUP3 MSTORE PUSH6 0x4445582D4C5 PUSH1 0xD4 SHL PUSH1 0x20 DUP4 ADD MSTORE JUMP INVALID PUSH1 0x80 PUSH1 0x40 MSTORE PUSH1 0x4 CALLDATASIZE LT ISZERO PUSH2 0x12 JUMPI PUSH1 0x0 DUP1 REVERT JUMPDEST PUSH1 0x0 CALLDATALOAD PUSH1 0xE0 SHR DUP1 PUSH4 0x22C0D9F EQ PUSH2 0xFE2 JUMPI DUP1 PUSH4 0x6FDDE03 EQ PUSH2 0xF24 JUMPI DUP1 PUSH4 0x902F1AC EQ PUSH2 0xEF5 JUMPI DUP1 PUSH4 0x95EA7B3 EQ PUSH2 0xECF JUMPI DUP1 PUSH4 0xDFE1681 EQ PUSH2 0xEA6 JUMPI DUP1 PUSH4 0x18160DDD EQ PUSH2 0xE88 JUMPI DUP1 PUSH4 0x23B872DD EQ PUSH2 0xDCA JUMPI DUP1 PUSH4 0x313CE567 EQ PUSH2 0xDAE JUMPI DUP1 PUSH4 0x39509351 EQ PUSH2 0xD5D JUMPI DUP1 PUSH4 0x41CD47BF EQ PUSH2 0xD41 JUMPI DUP1 PUSH4 0x443CB4BC EQ PUSH2 0xD23 JUMPI DUP1 PUSH4 0x485CC955 EQ PUSH2 0xC88 JUMPI DUP1 PUSH4 0x5909C0D5 EQ PUSH2 0xC6A JUMPI DUP1 PUSH4 0x5A3D5493 EQ PUSH2 0xC4C JUMPI DUP1 PUSH4 0x5A76F25E EQ PUSH2 0xC2E JUMPI DUP1 PUSH4 0x6A627842 EQ PUSH2 0x8CD JUMPI DUP1 PUSH4 0x70A08231 EQ PUSH2 0x893 JUMPI DUP1 PUSH4 0x89AFCB44 EQ PUSH2 0x4FE JUMPI DUP1 PUSH4 0x95D89B41 EQ PUSH2 0x3F9 JUMPI DUP1 PUSH4 0xA457C2D7 EQ PUSH2 0x352 JUMPI DUP1 PUSH4 0xA9059CBB EQ PUSH2 0x321 JUMPI DUP1 PUSH4 0xBA9A7A56 EQ PUSH2 0x2AC JUMPI DUP1 PUSH4 0xC45A0155 EQ PUSH2 0x2F8 JUMPI DUP1 PUSH4 0xC5700A02 EQ PUSH2 0x2DA JUMPI DUP1 PUSH4 0xD21220A7 EQ PUSH2 0x2B1 JUMPI DUP1 PUSH4 0xD73792A9 EQ PUSH2 0x2AC JUMPI DUP1 PUSH4 0xDD62ED3E EQ PUSH2 0x25B JUMPI PUSH4 0xFFF6CAE9 EQ PUSH2 0x150 JUMPI PUSH1 0x0 DUP1 REVERT JUMPDEST CALLVALUE PUSH2 0x214 JUMPI PUSH1 0x0 CALLDATASIZE PUSH1 0x3 NOT ADD SLT PUSH2 0x214 JUMPI PUSH2 0x169 PUSH2 0x183D JUMP JUMPDEST PUSH1 0x7 SLOAD PUSH1 0x40 MLOAD PUSH4 0x70A08231 PUSH1 0xE0 SHL DUP1 DUP3 MSTORE ADDRESS PUSH1 0x4 DUP4 ADD MSTORE SWAP2 PUSH1 0x20 SWAP1 PUSH1 0x1 PUSH1 0x1 PUSH1 0xA0 SHL SUB SWAP1 DUP3 SWAP1 DUP5 SWAP1 PUSH1 0x24 SWAP1 DUP3 SWAP1 DUP6 AND GAS STATICCALL SWAP3 DUP4 ISZERO PUSH2 0x220 JUMPI PUSH1 0x0 SWAP4 PUSH2 0x22C JUMPI JUMPDEST POP DUP2 SWAP1 PUSH1 0x8 SLOAD AND SWAP4 PUSH1 0x24 PUSH1 0x40 MLOAD DUP1 SWAP7 DUP2 SWAP4 DUP3 MSTORE ADDRESS PUSH1 0x4 DUP4 ADD MSTORE GAS STATICCALL SWAP1 DUP2 ISZERO PUSH2 0x220 JUMPI PUSH1 0x0 SWAP2 PUSH2 0x1EB JUMPI JUMPDEST PUSH1 0x9 SLOAD PUSH1 0xA SLOAD PUSH2 0x1E4 SWAP2 DUP5 DUP7 PUSH2 0x1893 JUMP JUMPDEST PUSH1 0x1 PUSH1 0x5 SSTORE STOP JUMPDEST SWAP1 POP DUP3 DUP2 RETURNDATASIZE DUP4 GT PUSH2 0x219 JUMPI JUMPDEST PUSH2 0x201 DUP2 DUP4 PUSH2 0x155A JUMP JUMPDEST DUP2 ADD SUB SLT PUSH2 0x214 JUMPI PUSH2 0x1E4 SWAP2 MLOAD CODESIZE PUSH2 0x1D3 JUMP JUMPDEST PUSH1 0x0 DUP1 REVERT JUMPDEST POP RETURNDATASIZE PUSH2 0x1F7 JUMP JUMPDEST PUSH1 0x40 MLOAD RETURNDATASIZE PUSH1 0x0 DUP3 RETURNDATACOPY RETURNDATASIZE SWAP1 REVERT JUMPDEST SWAP1 SWAP3 POP DUP2 DUP2 DUP2 RETURNDATASIZE DUP4 GT PUSH2 0x254 JUMPI JUMPDEST PUSH2 0x244 DUP2 DUP4 PUSH2 0x155A JUMP JUMPDEST DUP2 ADD SUB SLT PUSH2 0x214 JUMPI MLOAD SWAP2 DUP2 PUSH2 0x1A9 JUMP JUMPDEST POP RETURNDATASIZE PUSH2 0x23A JUMP JUMPDEST CALLVALUE PUSH2 0x214 JUMPI PUSH1 0x40 CALLDATASIZE PUSH1 0x3 NOT ADD SLT PUSH2 0x214 JUMPI PUSH2 0x274 PUSH2 0x14C8 JUMP JUMPDEST PUSH2 0x27C PUSH2 0x14DE JUMP JUMPDEST SWAP1 PUSH1 0x1 DUP1 PUSH1 0xA0 SHL SUB DUP1 SWAP2 AND PUSH1 0x0 MSTORE PUSH1 0x1 PUSH1 0x20 MSTORE PUSH1 0x40 PUSH1 0x0 KECCAK256 SWAP2 AND PUSH1 0x0 MSTORE PUSH1 0x20 MSTORE PUSH1 0x20 PUSH1 0x40 PUSH1 0x0 KECCAK256 SLOAD PUSH1 0x40 MLOAD SWAP1 DUP2 MSTORE RETURN JUMPDEST PUSH2 0x153D JUMP JUMPDEST CALLVALUE PUSH2 0x214 JUMPI PUSH1 0x0 CALLDATASIZE PUSH1 0x3 NOT ADD SLT PUSH2 0x214 JUMPI PUSH1 0x8 SLOAD PUSH1 0x40 MLOAD PUSH1 0x1 PUSH1 0x1 PUSH1 0xA0 SHL SUB SWAP1 SWAP2 AND DUP2 MSTORE PUSH1 0x20 SWAP1 RETURN JUMPDEST CALLVALUE PUSH2 0x214 JUMPI PUSH1 0x0 CALLDATASIZE PUSH1 0x3 NOT ADD SLT PUSH2 0x214 JUMPI PUSH1 0x20 PUSH1 0xB SLOAD PUSH1 0x40 MLOAD SWAP1 DUP2 MSTORE RETURN JUMPDEST CALLVALUE PUSH2 0x214 JUMPI PUSH1 0x0 CALLDATASIZE PUSH1 0x3 NOT ADD SLT PUSH2 0x214 JUMPI PUSH1 0x6 SLOAD PUSH1 0x40 MLOAD PUSH1 0x1 PUSH1 0x1 PUSH1 0xA0 SHL SUB SWAP1 SWAP2 AND DUP2 MSTORE PUSH1 0x20 SWAP1 RETURN JUMPDEST CALLVALUE PUSH2 0x214 JUMPI PUSH1 0x40 CALLDATASIZE PUSH1 0x3 NOT ADD SLT PUSH2 0x214 JUMPI PUSH2 0x347 PUSH2 0x33D PUSH2 0x14C8 JUMP JUMPDEST PUSH1 0x24 CALLDATALOAD SWAP1 CALLER PUSH2 0x159F JUMP JUMPDEST PUSH1 0x20 PUSH1 0x40 MLOAD PUSH1 0x1 DUP2 MSTORE RETURN JUMPDEST CALLVALUE PUSH2 0x214 JUMPI PUSH1 0x40 CALLDATASIZE PUSH1 0x3 NOT ADD SLT PUSH2 0x214 JUMPI PUSH2 0x36B PUSH2 0x14C8 JUMP JUMPDEST PUSH1 0x24 CALLDATALOAD SWAP1 CALLER PUSH1 0x0 MSTORE PUSH1 0x1 PUSH1 0x20 MSTORE PUSH1 0x40 PUSH1 0x0 KECCAK256 PUSH1 0x1 DUP1 PUSH1 0xA0 SHL SUB DUP3 AND PUSH1 0x0 MSTORE PUSH1 0x20 MSTORE PUSH1 0x40 PUSH1 0x0 KECCAK256 SLOAD SWAP2 DUP1 DUP4 LT PUSH2 0x3A6 JUMPI PUSH2 0x347 SWAP3 SUB SWAP1 CALLER PUSH2 0x16FB JUMP JUMPDEST PUSH1 0x40 MLOAD PUSH3 0x461BCD PUSH1 0xE5 SHL DUP2 MSTORE PUSH1 0x20 PUSH1 0x4 DUP3 ADD MSTORE PUSH1 0x25 PUSH1 0x24 DUP3 ADD MSTORE PUSH32 0x45524332303A2064656372656173656420616C6C6F77616E63652062656C6F77 PUSH1 0x44 DUP3 ADD MSTORE PUSH5 0x207A65726F PUSH1 0xD8 SHL PUSH1 0x64 DUP3 ADD MSTORE PUSH1 0x84 SWAP1 REVERT JUMPDEST CALLVALUE PUSH2 0x214 JUMPI PUSH1 0x0 CALLDATASIZE PUSH1 0x3 NOT ADD SLT PUSH2 0x214 JUMPI PUSH1 0x40 MLOAD PUSH1 0x0 SWAP1 PUSH1 0x4 SLOAD PUSH1 0x1 DUP2 DUP2 SHR SWAP1 DUP1 DUP4 AND SWAP3 DUP4 ISZERO PUSH2 0x4F4 JUMPI JUMPDEST PUSH1 0x20 SWAP4 DUP5 DUP5 LT DUP2 EQ PUSH2 0x4DE JUMPI DUP4 DUP7 MSTORE SWAP1 DUP2 ISZERO PUSH2 0x4BE JUMPI POP PUSH1 0x1 EQ PUSH2 0x463 JUMPI JUMPDEST PUSH2 0x45F DUP5 PUSH2 0x453 DUP2 DUP9 SUB DUP3 PUSH2 0x155A JUMP JUMPDEST PUSH1 0x40 MLOAD SWAP2 DUP3 SWAP2 DUP3 PUSH2 0x14F4 JUMP JUMPDEST SUB SWAP1 RETURN JUMPDEST PUSH1 0x4 PUSH1 0x0 SWAP1 DUP2 MSTORE SWAP3 SWAP5 POP PUSH32 0x8A35ACFBC15FF81A39AE7D344FD709F28E8600B4AA8C65C6B64BFE7FE36BD19B JUMPDEST DUP3 DUP5 LT PUSH2 0x4AB JUMPI POP POP POP DUP2 PUSH2 0x45F SWAP4 PUSH2 0x453 SWAP3 DUP3 ADD ADD SWAP4 PUSH2 0x443 JUMP JUMPDEST DUP1 SLOAD DUP6 DUP6 ADD DUP8 ADD MSTORE SWAP3 DUP6 ADD SWAP3 DUP2 ADD PUSH2 0x48F JUMP JUMPDEST PUSH1 0xFF NOT AND DUP6 DUP6 ADD MSTORE POP POP ISZERO ISZERO PUSH1 0x5 SHL DUP3 ADD ADD SWAP2 POP PUSH2 0x453 DUP2 PUSH2 0x45F PUSH2 0x443 JUMP JUMPDEST PUSH4 0x4E487B71 PUSH1 0xE0 SHL PUSH1 0x0 MSTORE PUSH1 0x22 PUSH1 0x4 MSTORE PUSH1 0x24 PUSH1 0x0 REVERT JUMPDEST SWAP2 PUSH1 0x7F AND SWAP2 PUSH2 0x424 JUMP JUMPDEST CALLVALUE PUSH2 0x214 JUMPI PUSH1 0x20 DUP1 PUSH1 0x3 NOT CALLDATASIZE ADD SLT PUSH2 0x214 JUMPI PUSH2 0x518 PUSH2 0x14C8 JUMP JUMPDEST PUSH2 0x520 PUSH2 0x183D JUMP JUMPDEST PUSH1 0x9 SLOAD SWAP2 PUSH1 0xA SLOAD SWAP1 PUSH1 0x1 DUP1 PUSH1 0xA0 SHL SUB SWAP3 DUP4 PUSH1 0x7 SLOAD AND SWAP4 DUP1 PUSH1 0x8 SLOAD AND SWAP4 PUSH1 0x40 MLOAD SWAP5 PUSH4 0x70A08231 PUSH1 0xE0 SHL DUP1 DUP8 MSTORE ADDRESS PUSH1 0x4 DUP9 ADD MSTORE PUSH1 0x24 SWAP1 DUP7 DUP9 DUP4 DUP2 DUP13 GAS STATICCALL SWAP8 DUP9 ISZERO PUSH2 0x220 JUMPI PUSH1 0x0 SWAP9 PUSH2 0x864 JUMPI JUMPDEST POP PUSH1 0x40 MLOAD SWAP9 DUP2 DUP11 MSTORE ADDRESS PUSH1 0x4 DUP12 ADD MSTORE DUP8 DUP11 DUP5 DUP2 DUP8 GAS STATICCALL SWAP10 DUP11 ISZERO PUSH2 0x220 JUMPI PUSH1 0x0 SWAP11 PUSH2 0x835 JUMPI JUMPDEST POP ADDRESS PUSH1 0x0 MSTORE PUSH1 0x0 DUP9 MSTORE PUSH2 0x5CB PUSH1 0x40 PUSH1 0x0 KECCAK256 SLOAD SWAP10 PUSH2 0x5A9 PUSH2 0x1961 JUMP JUMPDEST POP PUSH2 0x5BF PUSH2 0x5C4 DUP13 PUSH2 0x5BF PUSH1 0x2 SLOAD SWAP5 DUP6 SWAP3 PUSH2 0x180A JUMP JUMPDEST PUSH2 0x181D JUMP JUMPDEST SWAP13 DUP13 PUSH2 0x180A JUMP JUMPDEST SWAP9 DUP11 ISZERO ISZERO DUP1 PUSH2 0x82C JUMPI JUMPDEST ISZERO PUSH2 0x7D9 JUMPI ADDRESS ISZERO PUSH2 0x78B JUMPI ADDRESS PUSH1 0x0 MSTORE PUSH1 0x0 DUP10 MSTORE PUSH1 0x40 PUSH1 0x0 KECCAK256 SLOAD DUP2 DUP2 LT PUSH2 0x73C JUMPI SWAP2 PUSH1 0x0 DUP3 DUP12 SWAP4 DUP8 SWAP7 SWAP6 ADDRESS DUP5 MSTORE DUP4 DUP7 MSTORE SUB PUSH1 0x40 DUP4 KECCAK256 SSTORE DUP1 PUSH1 0x2 SLOAD SUB PUSH1 0x2 SSTORE PUSH1 0x40 MLOAD SWAP1 DUP2 MSTORE PUSH1 0x0 DUP1 MLOAD PUSH1 0x20 PUSH2 0x1B17 DUP4 CODECOPY DUP2 MLOAD SWAP2 MSTORE DUP5 ADDRESS SWAP3 LOG3 PUSH2 0x636 DUP13 DUP11 DUP4 PUSH2 0x19DE JUMP JUMPDEST PUSH2 0x641 DUP12 DUP11 DUP9 PUSH2 0x19DE JUMP JUMPDEST PUSH1 0x40 MLOAD SWAP4 DUP5 DUP1 SWAP3 DUP6 DUP3 MSTORE ADDRESS PUSH1 0x4 DUP4 ADD MSTORE GAS STATICCALL SWAP3 DUP4 ISZERO PUSH2 0x220 JUMPI DUP9 SWAP3 PUSH1 0x0 SWAP5 PUSH2 0x70B JUMPI JUMPDEST POP PUSH1 0x40 MLOAD DUP1 SWAP6 DUP2 SWAP4 DUP3 MSTORE ADDRESS PUSH1 0x4 DUP4 ADD MSTORE GAS STATICCALL SWAP2 DUP3 ISZERO PUSH2 0x220 JUMPI PUSH1 0x0 SWAP3 PUSH2 0x6D5 JUMPI JUMPDEST POP SWAP8 PUSH2 0x694 SWAP3 SWAP2 PUSH1 0x40 SWAP10 PUSH2 0x1893 JUMP JUMPDEST DUP6 MLOAD SWAP2 DUP6 DUP4 MSTORE DUP5 DUP5 DUP5 ADD MSTORE AND SWAP1 PUSH32 0xDCCD412F0B1252819CB1FD330B93224CA42612892BB3F4F789976E6D81936496 DUP7 CALLER SWAP3 LOG3 PUSH1 0x1 PUSH1 0x5 SSTORE DUP4 MLOAD SWAP3 DUP4 MSTORE DUP3 ADD MSTORE RETURN JUMPDEST SWAP3 SWAP2 POP SWAP8 DUP6 DUP4 DUP2 RETURNDATASIZE DUP4 GT PUSH2 0x704 JUMPI JUMPDEST PUSH2 0x6EE DUP2 DUP4 PUSH2 0x155A JUMP JUMPDEST DUP2 ADD SUB SLT PUSH2 0x214 JUMPI SWAP2 MLOAD SWAP2 SWAP8 SWAP1 SWAP2 SWAP1 PUSH1 0x40 PUSH2 0x685 JUMP JUMPDEST POP RETURNDATASIZE PUSH2 0x6E4 JUMP JUMPDEST DUP4 DUP2 SWAP5 SWAP3 SWAP6 POP RETURNDATASIZE DUP4 GT PUSH2 0x735 JUMPI JUMPDEST PUSH2 0x723 DUP2 DUP4 PUSH2 0x155A JUMP JUMPDEST DUP2 ADD SUB SLT PUSH2 0x214 JUMPI DUP8 SWAP2 MLOAD SWAP3 DUP13 PUSH2 0x664 JUMP JUMPDEST POP RETURNDATASIZE PUSH2 0x719 JUMP JUMPDEST PUSH1 0x40 MLOAD PUSH3 0x461BCD PUSH1 0xE5 SHL DUP2 MSTORE PUSH1 0x4 DUP2 ADD DUP12 SWAP1 MSTORE PUSH1 0x22 DUP2 DUP8 ADD MSTORE PUSH32 0x45524332303A206275726E20616D6F756E7420657863656564732062616C616E PUSH1 0x44 DUP3 ADD MSTORE PUSH2 0x6365 PUSH1 0xF0 SHL PUSH1 0x64 DUP3 ADD MSTORE PUSH1 0x84 SWAP1 REVERT JUMPDEST PUSH1 0x40 MLOAD PUSH3 0x461BCD PUSH1 0xE5 SHL DUP2 MSTORE PUSH1 0x4 DUP2 ADD DUP11 SWAP1 MSTORE PUSH1 0x21 DUP2 DUP7 ADD MSTORE PUSH32 0x45524332303A206275726E2066726F6D20746865207A65726F20616464726573 PUSH1 0x44 DUP3 ADD MSTORE PUSH1 0x73 PUSH1 0xF8 SHL PUSH1 0x64 DUP3 ADD MSTORE PUSH1 0x84 SWAP1 REVERT JUMPDEST PUSH1 0x40 MLOAD PUSH3 0x461BCD PUSH1 0xE5 SHL DUP2 MSTORE PUSH1 0x4 DUP2 ADD DUP11 SWAP1 MSTORE PUSH1 0x26 DUP2 DUP7 ADD MSTORE PUSH32 0x446578506169723A20494E53554646494349454E545F4C49515549444954595F PUSH1 0x44 DUP3 ADD MSTORE PUSH6 0x109554939151 PUSH1 0xD2 SHL PUSH1 0x64 DUP3 ADD MSTORE PUSH1 0x84 SWAP1 REVERT JUMPDEST POP DUP10 ISZERO ISZERO PUSH2 0x5D5 JUMP JUMPDEST SWAP1 SWAP10 POP DUP8 DUP2 DUP2 RETURNDATASIZE DUP4 GT PUSH2 0x85D JUMPI JUMPDEST PUSH2 0x84D DUP2 DUP4 PUSH2 0x155A JUMP JUMPDEST DUP2 ADD SUB SLT PUSH2 0x214 JUMPI MLOAD SWAP9 DUP12 PUSH2 0x58E JUMP JUMPDEST POP RETURNDATASIZE PUSH2 0x843 JUMP JUMPDEST SWAP1 SWAP8 POP DUP7 DUP2 DUP2 RETURNDATASIZE DUP4 GT PUSH2 0x88C JUMPI JUMPDEST PUSH2 0x87C DUP2 DUP4 PUSH2 0x155A JUMP JUMPDEST DUP2 ADD SUB SLT PUSH2 0x214 JUMPI MLOAD SWAP7 DUP11 PUSH2 0x56A JUMP JUMPDEST POP RETURNDATASIZE PUSH2 0x872 JUMP JUMPDEST CALLVALUE PUSH2 0x214 JUMPI PUSH1 0x20 CALLDATASIZE PUSH1 0x3 NOT ADD SLT PUSH2 0x214 JUMPI PUSH1 0x1 PUSH1 0x1 PUSH1 0xA0 SHL SUB PUSH2 0x8B4 PUSH2 0x14C8 JUMP JUMPDEST AND PUSH1 0x0 MSTORE PUSH1 0x0 PUSH1 0x20 MSTORE PUSH1 0x20 PUSH1 0x40 PUSH1 0x0 KECCAK256 SLOAD PUSH1 0x40 MLOAD SWAP1 DUP2 MSTORE RETURN JUMPDEST CALLVALUE PUSH2 0x214 JUMPI PUSH1 0x20 DUP1 PUSH1 0x3 NOT CALLDATASIZE ADD SLT PUSH2 0x214 JUMPI PUSH2 0x8E7 PUSH2 0x14C8 JUMP JUMPDEST SWAP1 PUSH2 0x8F0 PUSH2 0x183D JUMP JUMPDEST PUSH1 0x9 SLOAD SWAP2 PUSH1 0xA SLOAD PUSH1 0x1 DUP1 PUSH1 0xA0 SHL SUB DUP1 PUSH1 0x7 SLOAD AND SWAP2 PUSH1 0x40 MLOAD SWAP6 DUP7 SWAP4 DUP7 DUP6 PUSH4 0x70A08231 PUSH1 0xE0 SHL SWAP3 DUP4 DUP3 MSTORE ADDRESS PUSH1 0x4 DUP4 ADD MSTORE PUSH1 0x24 SWAP11 DUP12 SWAP2 GAS STATICCALL SWAP5 DUP6 ISZERO PUSH2 0x220 JUMPI PUSH1 0x0 SWAP6 PUSH2 0xBFF JUMPI JUMPDEST POP DUP7 DUP5 PUSH1 0x8 SLOAD AND SWAP2 DUP10 PUSH1 0x40 MLOAD DUP1 SWAP5 DUP2 SWAP4 DUP3 MSTORE ADDRESS PUSH1 0x4 DUP4 ADD MSTORE GAS STATICCALL SWAP1 DUP2 ISZERO PUSH2 0x220 JUMPI PUSH1 0x0 SWAP2 PUSH2 0xBD2 JUMPI JUMPDEST POP PUSH2 0x968 DUP3 DUP7 PUSH2 0x17FD JUMP JUMPDEST SWAP5 PUSH2 0x973 DUP5 DUP4 PUSH2 0x17FD JUMP JUMPDEST SWAP5 PUSH2 0x97C PUSH2 0x1961 JUMP JUMPDEST POP PUSH1 0x2 SLOAD SWAP8 DUP9 PUSH2 0xB9E JUMPI PUSH2 0x990 DUP8 DUP10 PUSH2 0x180A JUMP JUMPDEST PUSH1 0x0 PUSH1 0x3 DUP3 GT ISZERO PUSH2 0xB90 JUMPI POP DUP1 PUSH1 0x1 SWAP1 DUP1 DUP3 SHR DUP3 DUP2 ADD DUP1 SWAP2 GT PUSH2 0xB7B JUMPI SWAP2 SWAP1 JUMPDEST DUP4 DUP4 LT PUSH2 0xB5B JUMPI POP POP POP JUMPDEST PUSH2 0x3E7 NOT DUP2 ADD SWAP1 DUP2 GT PUSH2 0xB46 JUMPI SWAP9 PUSH2 0x3E8 SWAP1 DUP2 DUP2 ADD DUP1 SWAP2 GT PUSH2 0xB31 JUMPI PUSH1 0x0 DUP1 MLOAD PUSH1 0x20 PUSH2 0x1B17 DUP4 CODECOPY DUP2 MLOAD SWAP2 MSTORE DUP13 PUSH1 0x1 SWAP4 PUSH1 0x0 SWAP4 PUSH1 0x2 SSTORE DUP5 DUP5 MSTORE DUP4 DUP3 MSTORE PUSH1 0x40 DUP5 KECCAK256 DUP2 DUP2 SLOAD ADD SWAP1 SSTORE PUSH1 0x40 MLOAD SWAP1 DUP2 MSTORE LOG3 JUMPDEST DUP9 ISZERO PUSH2 0xADE JUMPI AND DUP1 ISZERO PUSH2 0xA9A JUMPI SWAP1 PUSH2 0xA5D SWAP5 SWAP4 SWAP3 SWAP2 PUSH2 0xA29 DUP10 PUSH1 0x2 SLOAD PUSH2 0x1592 JUMP JUMPDEST PUSH1 0x2 SSTORE DUP1 PUSH1 0x0 MSTORE PUSH1 0x0 DUP11 MSTORE PUSH1 0x40 PUSH1 0x0 KECCAK256 DUP10 DUP2 SLOAD ADD SWAP1 SSTORE PUSH1 0x0 PUSH1 0x0 DUP1 MLOAD PUSH1 0x20 PUSH2 0x1B17 DUP4 CODECOPY DUP2 MLOAD SWAP2 MSTORE DUP12 PUSH1 0x40 MLOAD DUP13 DUP2 MSTORE LOG3 PUSH2 0x1893 JUMP JUMPDEST PUSH1 0x40 MLOAD SWAP2 DUP3 MSTORE DUP4 DUP3 ADD MSTORE PUSH32 0x4C209B5FC8AD50758F13E2E1088BA56A560DFF690A1C6FEF26394F4C03821C4F PUSH1 0x40 CALLER SWAP3 LOG2 PUSH1 0x1 PUSH1 0x5 SSTORE PUSH1 0x40 MLOAD SWAP1 DUP2 MSTORE RETURN JUMPDEST PUSH1 0x40 MLOAD PUSH3 0x461BCD PUSH1 0xE5 SHL DUP2 MSTORE PUSH1 0x4 DUP2 ADD DUP11 SWAP1 MSTORE PUSH1 0x1F DUP2 DUP13 ADD MSTORE PUSH32 0x45524332303A206D696E7420746F20746865207A65726F206164647265737300 PUSH1 0x44 DUP3 ADD MSTORE PUSH1 0x64 SWAP1 REVERT JUMPDEST PUSH1 0x40 MLOAD PUSH3 0x461BCD PUSH1 0xE5 SHL DUP2 MSTORE PUSH1 0x4 DUP2 ADD DUP12 SWAP1 MSTORE PUSH1 0x26 DUP2 DUP14 ADD MSTORE PUSH32 0x446578506169723A20494E53554646494349454E545F4C49515549444954595F PUSH1 0x44 DUP3 ADD MSTORE PUSH6 0x135253951151 PUSH1 0xD2 SHL PUSH1 0x64 DUP3 ADD MSTORE PUSH1 0x84 SWAP1 REVERT JUMPDEST DUP13 PUSH4 0x4E487B71 PUSH1 0xE0 SHL PUSH1 0x0 MSTORE PUSH1 0x11 PUSH1 0x4 MSTORE PUSH1 0x0 REVERT JUMPDEST DUP12 PUSH4 0x4E487B71 PUSH1 0xE0 SHL PUSH1 0x0 MSTORE PUSH1 0x11 PUSH1 0x4 MSTORE PUSH1 0x0 REVERT JUMPDEST SWAP1 SWAP2 SWAP3 POP PUSH2 0xB72 DUP4 PUSH2 0xB6D DUP2 DUP5 PUSH2 0x181D JUMP JUMPDEST PUSH2 0x1592 JUMP JUMPDEST DUP3 SHR SWAP2 SWAP1 PUSH2 0x9B0 JUMP JUMPDEST DUP15 PUSH4 0x4E487B71 PUSH1 0xE0 SHL PUSH1 0x0 MSTORE PUSH1 0x11 PUSH1 0x4 MSTORE PUSH1 0x0 REVERT JUMPDEST SWAP1 ISZERO PUSH2 0x9BB JUMPI POP PUSH1 0x1 PUSH2 0x9BB JUMP JUMPDEST SWAP8 PUSH2 0xBBB DUP7 PUSH2 0x5BF PUSH2 0xBB4 DUP9 PUSH2 0x5BF DUP7 DUP15 PUSH2 0x180A JUMP JUMPDEST SWAP4 DUP11 PUSH2 0x180A JUMP JUMPDEST DUP1 DUP3 LT ISZERO PUSH2 0xBCB JUMPI POP JUMPDEST SWAP8 PUSH2 0xA08 JUMP JUMPDEST SWAP1 POP PUSH2 0xBC5 JUMP JUMPDEST SWAP1 POP DUP7 DUP2 DUP2 RETURNDATASIZE DUP4 GT PUSH2 0xBF8 JUMPI JUMPDEST PUSH2 0xBE9 DUP2 DUP4 PUSH2 0x155A JUMP JUMPDEST DUP2 ADD SUB SLT PUSH2 0x214 JUMPI MLOAD DUP9 PUSH2 0x95D JUMP JUMPDEST POP RETURNDATASIZE PUSH2 0xBDF JUMP JUMPDEST SWAP1 SWAP5 POP DUP7 DUP2 DUP2 RETURNDATASIZE DUP4 GT PUSH2 0xC27 JUMPI JUMPDEST PUSH2 0xC17 DUP2 DUP4 PUSH2 0x155A JUMP JUMPDEST DUP2 ADD SUB SLT PUSH2 0x214 JUMPI MLOAD SWAP4 DUP9 PUSH2 0x934 JUMP JUMPDEST POP RETURNDATASIZE PUSH2 0xC0D JUMP JUMPDEST CALLVALUE PUSH2 0x214 JUMPI PUSH1 0x0 CALLDATASIZE PUSH1 0x3 NOT ADD SLT PUSH2 0x214 JUMPI PUSH1 0x20 PUSH1 0xA SLOAD PUSH1 0x40 MLOAD SWAP1 DUP2 MSTORE RETURN JUMPDEST CALLVALUE PUSH2 0x214 JUMPI PUSH1 0x0 CALLDATASIZE PUSH1 0x3 NOT ADD SLT PUSH2 0x214 JUMPI PUSH1 0x20 PUSH1 0xD SLOAD PUSH1 0x40 MLOAD SWAP1 DUP2 MSTORE RETURN JUMPDEST CALLVALUE PUSH2 0x214 JUMPI PUSH1 0x0 CALLDATASIZE PUSH1 0x3 NOT ADD SLT PUSH2 0x214 JUMPI PUSH1 0x20 PUSH1 0xC SLOAD PUSH1 0x40 MLOAD SWAP1 DUP2 MSTORE RETURN JUMPDEST CALLVALUE PUSH2 0x214 JUMPI PUSH1 0x40 CALLDATASIZE PUSH1 0x3 NOT ADD SLT PUSH2 0x214 JUMPI PUSH2 0xCA1 PUSH2 0x14C8 JUMP JUMPDEST PUSH2 0xCA9 PUSH2 0x14DE JUMP JUMPDEST PUSH1 0x6 SLOAD PUSH1 0x1 PUSH1 0x1 PUSH1 0xA0 SHL SUB SWAP2 SWAP1 DUP3 AND CALLER SUB PUSH2 0xCE9 JUMPI DUP2 PUSH12 0xFFFFFFFFFFFFFFFFFFFFFFFF PUSH1 0xA0 SHL SWAP4 AND DUP4 PUSH1 0x7 SLOAD AND OR PUSH1 0x7 SSTORE AND SWAP1 PUSH1 0x8 SLOAD AND OR PUSH1 0x8 SSTORE PUSH1 0x0 DUP1 RETURN JUMPDEST PUSH1 0x40 MLOAD PUSH3 0x461BCD PUSH1 0xE5 SHL DUP2 MSTORE PUSH1 0x20 PUSH1 0x4 DUP3 ADD MSTORE PUSH1 0x12 PUSH1 0x24 DUP3 ADD MSTORE PUSH18 0x2232BC2830B4B91D102327A92124A22222A7 PUSH1 0x71 SHL PUSH1 0x44 DUP3 ADD MSTORE PUSH1 0x64 SWAP1 REVERT JUMPDEST CALLVALUE PUSH2 0x214 JUMPI PUSH1 0x0 CALLDATASIZE PUSH1 0x3 NOT ADD SLT PUSH2 0x214 JUMPI PUSH1 0x20 PUSH1 0x9 SLOAD PUSH1 0x40 MLOAD SWAP1 DUP2 MSTORE RETURN JUMPDEST CALLVALUE PUSH2 0x214 JUMPI PUSH1 0x0 CALLDATASIZE PUSH1 0x3 NOT ADD SLT PUSH2 0x214 JUMPI PUSH1 0x20 PUSH1 0x40 MLOAD PUSH1 0x3 DUP2 MSTORE RETURN JUMPDEST CALLVALUE PUSH2 0x214 JUMPI PUSH1 0x40 CALLDATASIZE PUSH1 0x3 NOT ADD SLT PUSH2 0x214 JUMPI PUSH2 0x347 PUSH2 0xD79 PUSH2 0x14C8 JUMP JUMPDEST CALLER PUSH1 0x0 MSTORE PUSH1 0x1 PUSH1 0x20 MSTORE PUSH1 0x40 PUSH1 0x0 KECCAK256 PUSH1 0x1 DUP1 PUSH1 0xA0 SHL SUB DUP3 AND PUSH1 0x0 MSTORE PUSH1 0x20 MSTORE PUSH2 0xDA7 PUSH1 0x24 CALLDATALOAD PUSH1 0x40 PUSH1 0x0 KECCAK256 SLOAD PUSH2 0x1592 JUMP JUMPDEST SWAP1 CALLER PUSH2 0x16FB JUMP JUMPDEST CALLVALUE PUSH2 0x214 JUMPI PUSH1 0x0 CALLDATASIZE PUSH1 0x3 NOT ADD SLT PUSH2 0x214 JUMPI PUSH1 0x20 PUSH1 0x40 MLOAD PUSH1 0x12 DUP2 MSTORE RETURN JUMPDEST CALLVALUE PUSH2 0x214 JUMPI PUSH1 0x60 CALLDATASIZE PUSH1 0x3 NOT ADD SLT PUSH2 0x214 JUMPI PUSH2 0xDE3 PUSH2 0x14C8 JUMP JUMPDEST PUSH2 0xDEB PUSH2 0x14DE JUMP JUMPDEST PUSH1 0x44 CALLDATALOAD SWAP1 PUSH1 0x1 DUP1 PUSH1 0xA0 SHL SUB DUP4 AND PUSH1 0x0 MSTORE PUSH1 0x1 PUSH1 0x20 MSTORE PUSH1 0x40 PUSH1 0x0 KECCAK256 CALLER PUSH1 0x0 MSTORE PUSH1 0x20 MSTORE PUSH1 0x40 PUSH1 0x0 KECCAK256 SLOAD SWAP3 PUSH1 0x0 NOT DUP5 SUB PUSH2 0xE27 JUMPI JUMPDEST PUSH2 0x347 SWAP4 POP PUSH2 0x159F JUMP JUMPDEST DUP3 DUP5 LT PUSH2 0xE43 JUMPI PUSH2 0xE3E DUP4 PUSH2 0x347 SWAP6 SUB CALLER DUP4 PUSH2 0x16FB JUMP JUMPDEST PUSH2 0xE1D JUMP JUMPDEST PUSH1 0x40 MLOAD PUSH3 0x461BCD PUSH1 0xE5 SHL DUP2 MSTORE PUSH1 0x20 PUSH1 0x4 DUP3 ADD MSTORE PUSH1 0x1D PUSH1 0x24 DUP3 ADD MSTORE PUSH32 0x45524332303A20696E73756666696369656E7420616C6C6F77616E6365000000 PUSH1 0x44 DUP3 ADD MSTORE PUSH1 0x64 SWAP1 REVERT JUMPDEST CALLVALUE PUSH2 0x214 JUMPI PUSH1 0x0 CALLDATASIZE PUSH1 0x3 NOT ADD SLT PUSH2 0x214 JUMPI PUSH1 0x20 PUSH1 0x2 SLOAD PUSH1 0x40 MLOAD SWAP1 DUP2 MSTORE RETURN JUMPDEST CALLVALUE PUSH2 0x214 JUMPI PUSH1 0x0 CALLDATASIZE PUSH1 0x3 NOT ADD SLT PUSH2 0x214 JUMPI PUSH1 0x7 SLOAD PUSH1 0x40 MLOAD PUSH1 0x1 PUSH1 0x1 PUSH1 0xA0 SHL SUB SWAP1 SWAP2 AND DUP2 MSTORE PUSH1 0x20 SWAP1 RETURN JUMPDEST CALLVALUE PUSH2 0x214 JUMPI PUSH1 0x40 CALLDATASIZE PUSH1 0x3 NOT ADD SLT PUSH2 0x214 JUMPI PUSH2 0x347 PUSH2 0xEEB PUSH2 0x14C8 JUMP JUMPDEST PUSH1 0x24 CALLDATALOAD SWAP1 CALLER PUSH2 0x16FB JUMP JUMPDEST CALLVALUE PUSH2 0x214 JUMPI PUSH1 0x0 CALLDATASIZE PUSH1 0x3 NOT ADD SLT PUSH2 0x214 JUMPI PUSH1 0x60 PUSH1 0x9 SLOAD PUSH1 0xA SLOAD PUSH1 0xB SLOAD SWAP1 PUSH1 0x40 MLOAD SWAP3 DUP4 MSTORE PUSH1 0x20 DUP4 ADD MSTORE PUSH1 0x40 DUP3 ADD MSTORE RETURN JUMPDEST CALLVALUE PUSH2 0x214 JUMPI PUSH1 0x0 CALLDATASIZE PUSH1 0x3 NOT ADD SLT PUSH2 0x214 JUMPI PUSH1 0x40 MLOAD PUSH1 0x0 SWAP1 PUSH1 0x3 SLOAD PUSH1 0x1 DUP2 DUP2 SHR SWAP1 DUP1 DUP4 AND SWAP3 DUP4 ISZERO PUSH2 0xFD8 JUMPI JUMPDEST PUSH1 0x20 SWAP4 DUP5 DUP5 LT DUP2 EQ PUSH2 0x4DE JUMPI DUP4 DUP7 MSTORE SWAP1 DUP2 ISZERO PUSH2 0x4BE JUMPI POP PUSH1 0x1 EQ PUSH2 0xF7D JUMPI PUSH2 0x45F DUP5 PUSH2 0x453 DUP2 DUP9 SUB DUP3 PUSH2 0x155A JUMP JUMPDEST PUSH1 0x3 PUSH1 0x0 SWAP1 DUP2 MSTORE SWAP3 SWAP5 POP PUSH32 0xC2575A0E9E593C00F959F8C92F12DB2869C3395A3B0502D05E2516446F71F85B JUMPDEST DUP3 DUP5 LT PUSH2 0xFC5 JUMPI POP POP POP DUP2 PUSH2 0x45F SWAP4 PUSH2 0x453 SWAP3 DUP3 ADD ADD SWAP4 PUSH2 0x443 JUMP JUMPDEST DUP1 SLOAD DUP6 DUP6 ADD DUP8 ADD MSTORE SWAP3 DUP6 ADD SWAP3 DUP2 ADD PUSH2 0xFA9 JUMP JUMPDEST SWAP2 PUSH1 0x7F AND SWAP2 PUSH2 0xF4F JUMP JUMPDEST CALLVALUE PUSH2 0x214 JUMPI PUSH1 0x80 CALLDATASIZE PUSH1 0x3 NOT ADD SLT PUSH2 0x214 JUMPI PUSH1 0x44 CALLDATALOAD PUSH1 0x1 PUSH1 0x1 PUSH1 0xA0 SHL SUB DUP1 DUP3 AND DUP3 SUB PUSH2 0x214 JUMPI PUSH1 0x64 CALLDATALOAD PUSH8 0xFFFFFFFFFFFFFFFF DUP1 DUP3 GT PUSH2 0x214 JUMPI CALLDATASIZE PUSH1 0x23 DUP4 ADD SLT ISZERO PUSH2 0x214 JUMPI DUP2 PUSH1 0x4 ADD CALLDATALOAD SWAP1 DUP2 GT PUSH2 0x214 JUMPI CALLDATASIZE SWAP2 ADD PUSH1 0x24 ADD GT PUSH2 0x214 JUMPI PUSH2 0x1044 PUSH2 0x183D JUMP JUMPDEST PUSH1 0x4 CALLDATALOAD ISZERO SWAP2 DUP3 ISZERO DUP1 SWAP4 PUSH2 0x14BD JUMPI JUMPDEST ISZERO PUSH2 0x146C JUMPI PUSH1 0x9 SLOAD SWAP3 PUSH1 0xA SLOAD SWAP1 DUP5 PUSH1 0x4 CALLDATALOAD LT DUP1 PUSH2 0x1461 JUMPI JUMPDEST ISZERO PUSH2 0x141C JUMPI DUP4 PUSH1 0x7 SLOAD AND SWAP1 DUP2 DUP6 DUP6 AND EQ ISZERO DUP1 PUSH2 0x140C JUMPI JUMPDEST ISZERO PUSH2 0x13D1 JUMPI PUSH2 0x13BD JUMPI JUMPDEST POP PUSH1 0x24 CALLDATALOAD PUSH2 0x13A7 JUMPI JUMPDEST DUP3 PUSH1 0x7 SLOAD AND SWAP1 PUSH1 0x40 MLOAD SWAP1 PUSH1 0x20 DUP3 PUSH1 0x24 DUP2 PUSH4 0x70A08231 PUSH1 0xE0 SHL SWAP7 DUP8 DUP3 MSTORE ADDRESS PUSH1 0x4 DUP4 ADD MSTORE GAS STATICCALL SWAP2 DUP3 ISZERO PUSH2 0x220 JUMPI PUSH1 0x0 SWAP3 PUSH2 0x1373 JUMPI JUMPDEST POP PUSH1 0x20 DUP6 PUSH1 0x8 SLOAD AND SWAP4 PUSH1 0x24 PUSH1 0x40 MLOAD DUP1 SWAP7 DUP2 SWAP4 DUP3 MSTORE ADDRESS PUSH1 0x4 DUP4 ADD MSTORE GAS STATICCALL SWAP3 DUP4 ISZERO PUSH2 0x220 JUMPI PUSH1 0x0 SWAP4 PUSH2 0x133F JUMPI JUMPDEST POP PUSH2 0x10FF PUSH1 0x4 CALLDATALOAD DUP8 PUSH2 0x17FD JUMP JUMPDEST DUP3 GT ISZERO PUSH2 0x1337 JUMPI PUSH2 0x111B PUSH2 0x1115 PUSH1 0x4 CALLDATALOAD DUP9 PUSH2 0x17FD JUMP JUMPDEST DUP4 PUSH2 0x17FD JUMP JUMPDEST SWAP6 JUMPDEST PUSH2 0x1129 PUSH1 0x24 CALLDATALOAD DUP4 PUSH2 0x17FD JUMP JUMPDEST DUP5 GT ISZERO PUSH2 0x132F JUMPI PUSH2 0x1145 PUSH2 0x113F PUSH1 0x24 CALLDATALOAD DUP5 PUSH2 0x17FD JUMP JUMPDEST DUP6 PUSH2 0x17FD JUMP JUMPDEST SWAP4 JUMPDEST DUP8 ISZERO ISZERO DUP9 ISZERO PUSH2 0x1326 JUMPI JUMPDEST ISZERO PUSH2 0x12D6 JUMPI DUP4 PUSH2 0x3E8 DUP2 MUL DIV PUSH2 0x3E8 EQ DUP5 ISZERO OR ISZERO PUSH2 0x1297 JUMPI PUSH1 0x3 DUP9 MUL DUP9 DUP2 DIV PUSH1 0x3 EQ DUP10 ISZERO OR ISZERO PUSH2 0x1297 JUMPI PUSH2 0x1189 SWAP1 PUSH2 0x3E8 DUP7 MUL PUSH2 0x17FD JUMP JUMPDEST DUP2 PUSH2 0x3E8 DUP2 MUL DIV PUSH2 0x3E8 EQ DUP3 ISZERO OR ISZERO PUSH2 0x1297 JUMPI DUP6 PUSH1 0x3 DUP2 MUL DIV PUSH1 0x3 EQ DUP7 ISZERO OR ISZERO PUSH2 0x1297 JUMPI PUSH2 0x11C8 SWAP1 PUSH2 0x11C2 PUSH1 0x3 DUP9 MUL PUSH2 0x3E8 DUP6 MUL PUSH2 0x17FD JUMP JUMPDEST SWAP1 PUSH2 0x180A JUMP JUMPDEST PUSH2 0x11D2 DUP5 DUP5 PUSH2 0x180A JUMP JUMPDEST PUSH1 0x1 SWAP1 PUSH2 0x3E8 PUSH1 0x2 JUMPDEST PUSH1 0x1 DUP2 GT PUSH2 0x12AD JUMPI POP DUP1 PUSH1 0x0 NOT DIV DUP4 GT PUSH2 0x1297 JUMPI PUSH2 0x11FA SWAP3 MUL SWAP1 PUSH2 0x180A JUMP JUMPDEST GT PUSH2 0x1252 JUMPI PUSH2 0x1208 SWAP4 PUSH2 0x1893 JUMP JUMPDEST PUSH1 0x40 MLOAD SWAP4 DUP5 MSTORE PUSH1 0x20 DUP5 ADD MSTORE PUSH1 0x4 CALLDATALOAD PUSH1 0x40 DUP5 ADD MSTORE PUSH1 0x24 CALLDATALOAD PUSH1 0x60 DUP5 ADD MSTORE AND SWAP1 PUSH32 0xD78AD95FA46C994B6551D0DA85FC275FE613CE37657FB8D5E3D130840159D822 PUSH1 0x80 CALLER SWAP3 LOG3 PUSH1 0x1 PUSH1 0x5 SSTORE STOP JUMPDEST PUSH1 0x40 MLOAD PUSH3 0x461BCD PUSH1 0xE5 SHL DUP2 MSTORE PUSH1 0x20 PUSH1 0x4 DUP3 ADD MSTORE PUSH1 0x17 PUSH1 0x24 DUP3 ADD MSTORE PUSH32 0x446578506169723A204B5F494E53554646494349454E54000000000000000000 PUSH1 0x44 DUP3 ADD MSTORE PUSH1 0x64 SWAP1 REVERT JUMPDEST PUSH4 0x4E487B71 PUSH1 0xE0 SHL PUSH1 0x0 MSTORE PUSH1 0x11 PUSH1 0x4 MSTORE PUSH1 0x24 PUSH1 0x0 REVERT JUMPDEST SWAP1 DUP1 PUSH1 0x0 NOT DIV DUP2 GT PUSH2 0x1297 JUMPI PUSH1 0x1 DUP3 AND PUSH2 0x12CD JUMPI JUMPDEST DUP1 MUL SWAP1 PUSH1 0x1 SHR PUSH2 0x11DB JUMP JUMPDEST DUP1 SWAP4 MUL SWAP3 PUSH2 0x12C2 JUMP JUMPDEST PUSH1 0x40 MLOAD PUSH3 0x461BCD PUSH1 0xE5 SHL DUP2 MSTORE PUSH1 0x20 PUSH1 0x4 DUP3 ADD MSTORE PUSH1 0x22 PUSH1 0x24 DUP3 ADD MSTORE PUSH32 0x446578506169723A20494E53554646494349454E545F494E5055545F414D4F55 PUSH1 0x44 DUP3 ADD MSTORE PUSH2 0x1395 PUSH1 0xF2 SHL PUSH1 0x64 DUP3 ADD MSTORE PUSH1 0x84 SWAP1 REVERT JUMPDEST POP DUP5 ISZERO ISZERO PUSH2 0x1151 JUMP JUMPDEST PUSH1 0x0 SWAP4 PUSH2 0x1147 JUMP JUMPDEST PUSH1 0x0 SWAP6 PUSH2 0x111D JUMP JUMPDEST SWAP1 SWAP3 POP PUSH1 0x20 DUP2 RETURNDATASIZE PUSH1 0x20 GT PUSH2 0x136B JUMPI JUMPDEST DUP2 PUSH2 0x135B PUSH1 0x20 SWAP4 DUP4 PUSH2 0x155A JUMP JUMPDEST DUP2 ADD SUB SLT PUSH2 0x214 JUMPI MLOAD SWAP2 DUP7 PUSH2 0x10F2 JUMP JUMPDEST RETURNDATASIZE SWAP2 POP PUSH2 0x134E JUMP JUMPDEST SWAP1 SWAP2 POP PUSH1 0x20 DUP2 RETURNDATASIZE PUSH1 0x20 GT PUSH2 0x139F JUMPI JUMPDEST DUP2 PUSH2 0x138F PUSH1 0x20 SWAP4 DUP4 PUSH2 0x155A JUMP JUMPDEST DUP2 ADD SUB SLT PUSH2 0x214 JUMPI MLOAD SWAP1 DUP7 PUSH2 0x10C7 JUMP JUMPDEST RETURNDATASIZE SWAP2 POP PUSH2 0x1382 JUMP JUMPDEST PUSH2 0x13B8 PUSH1 0x24 CALLDATALOAD DUP4 DUP6 PUSH1 0x8 SLOAD AND PUSH2 0x19DE JUMP JUMPDEST PUSH2 0x1094 JUMP JUMPDEST PUSH2 0x13CB SWAP1 DUP4 PUSH1 0x4 CALLDATALOAD SWAP2 PUSH2 0x19DE JUMP JUMPDEST DUP5 PUSH2 0x108B JUMP JUMPDEST PUSH1 0x40 MLOAD PUSH3 0x461BCD PUSH1 0xE5 SHL DUP2 MSTORE PUSH1 0x20 PUSH1 0x4 DUP3 ADD MSTORE PUSH1 0x13 PUSH1 0x24 DUP3 ADD MSTORE PUSH19 0x446578506169723A20494E56414C49445F544F PUSH1 0x68 SHL PUSH1 0x44 DUP3 ADD MSTORE PUSH1 0x64 SWAP1 REVERT JUMPDEST POP DUP5 PUSH1 0x8 SLOAD AND DUP6 DUP6 AND EQ ISZERO PUSH2 0x1081 JUMP JUMPDEST PUSH1 0x40 MLOAD PUSH3 0x461BCD PUSH1 0xE5 SHL DUP2 MSTORE PUSH1 0x20 PUSH1 0x4 DUP3 ADD MSTORE PUSH1 0x1F PUSH1 0x24 DUP3 ADD MSTORE PUSH32 0x446578506169723A20494E53554646494349454E545F4C495155494449545900 PUSH1 0x44 DUP3 ADD MSTORE PUSH1 0x64 SWAP1 REVERT JUMPDEST POP DUP2 PUSH1 0x24 CALLDATALOAD LT PUSH2 0x106A JUMP JUMPDEST PUSH1 0x40 MLOAD PUSH3 0x461BCD PUSH1 0xE5 SHL DUP2 MSTORE PUSH1 0x20 PUSH1 0x4 DUP3 ADD MSTORE PUSH1 0x23 PUSH1 0x24 DUP3 ADD MSTORE PUSH32 0x446578506169723A20494E53554646494349454E545F4F55545055545F414D4F PUSH1 0x44 DUP3 ADD MSTORE PUSH3 0x155395 PUSH1 0xEA SHL PUSH1 0x64 DUP3 ADD MSTORE PUSH1 0x84 SWAP1 REVERT JUMPDEST POP PUSH1 0x24 CALLDATALOAD ISZERO ISZERO PUSH2 0x1052 JUMP JUMPDEST PUSH1 0x4 CALLDATALOAD SWAP1 PUSH1 0x1 PUSH1 0x1 PUSH1 0xA0 SHL SUB DUP3 AND DUP3 SUB PUSH2 0x214 JUMPI JUMP JUMPDEST PUSH1 0x24 CALLDATALOAD SWAP1 PUSH1 0x1 PUSH1 0x1 PUSH1 0xA0 SHL SUB DUP3 AND DUP3 SUB PUSH2 0x214 JUMPI JUMP JUMPDEST PUSH1 0x20 DUP1 DUP3 MSTORE DUP3 MLOAD DUP2 DUP4 ADD DUP2 SWAP1 MSTORE SWAP1 SWAP4 SWAP3 PUSH1 0x0 JUMPDEST DUP3 DUP2 LT PUSH2 0x1529 JUMPI POP POP PUSH1 0x40 SWAP3 SWAP4 POP PUSH1 0x0 DUP4 DUP3 DUP5 ADD ADD MSTORE PUSH1 0x1F DUP1 NOT SWAP2 ADD AND ADD ADD SWAP1 JUMP JUMPDEST DUP2 DUP2 ADD DUP7 ADD MLOAD DUP5 DUP3 ADD PUSH1 0x40 ADD MSTORE DUP6 ADD PUSH2 0x1507 JUMP JUMPDEST CALLVALUE PUSH2 0x214 JUMPI PUSH1 0x0 CALLDATASIZE PUSH1 0x3 NOT ADD SLT PUSH2 0x214 JUMPI PUSH1 0x20 PUSH1 0x40 MLOAD PUSH2 0x3E8 DUP2 MSTORE RETURN JUMPDEST SWAP1 PUSH1 0x1F DUP1 NOT SWAP2 ADD AND DUP2 ADD SWAP1 DUP2 LT PUSH8 0xFFFFFFFFFFFFFFFF DUP3 GT OR PUSH2 0x157C JUMPI PUSH1 0x40 MSTORE JUMP JUMPDEST PUSH4 0x4E487B71 PUSH1 0xE0 SHL PUSH1 0x0 MSTORE PUSH1 0x41 PUSH1 0x4 MSTORE PUSH1 0x24 PUSH1 0x0 REVERT JUMPDEST SWAP2 SWAP1 DUP3 ADD DUP1 SWAP3 GT PUSH2 0x1297 JUMPI JUMP JUMPDEST PUSH1 0x1 PUSH1 0x1 PUSH1 0xA0 SHL SUB SWAP1 DUP2 AND SWAP2 DUP3 ISZERO PUSH2 0x16A8 JUMPI AND SWAP2 DUP3 ISZERO PUSH2 0x1657 JUMPI PUSH1 0x0 DUP3 DUP2 MSTORE DUP1 PUSH1 0x20 MSTORE PUSH1 0x40 DUP2 KECCAK256 SLOAD SWAP2 DUP1 DUP4 LT PUSH2 0x1603 JUMPI PUSH1 0x40 DUP3 DUP3 PUSH1 0x0 DUP1 MLOAD PUSH1 0x20 PUSH2 0x1B17 DUP4 CODECOPY DUP2 MLOAD SWAP2 MSTORE SWAP6 DUP8 PUSH1 0x20 SWAP7 MSTORE DUP3 DUP7 MSTORE SUB DUP3 DUP3 KECCAK256 SSTORE DUP7 DUP2 MSTORE KECCAK256 DUP2 DUP2 SLOAD ADD SWAP1 SSTORE PUSH1 0x40 MLOAD SWAP1 DUP2 MSTORE LOG3 JUMP JUMPDEST PUSH1 0x40 MLOAD PUSH3 0x461BCD PUSH1 0xE5 SHL DUP2 MSTORE PUSH1 0x20 PUSH1 0x4 DUP3 ADD MSTORE PUSH1 0x26 PUSH1 0x24 DUP3 ADD MSTORE PUSH32 0x45524332303A207472616E7366657220616D6F756E7420657863656564732062 PUSH1 0x44 DUP3 ADD MSTORE PUSH6 0x616C616E6365 PUSH1 0xD0 SHL PUSH1 0x64 DUP3 ADD MSTORE PUSH1 0x84 SWAP1 REVERT JUMPDEST PUSH1 0x40 MLOAD PUSH3 0x461BCD PUSH1 0xE5 SHL DUP2 MSTORE PUSH1 0x20 PUSH1 0x4 DUP3 ADD MSTORE PUSH1 0x23 PUSH1 0x24 DUP3 ADD MSTORE PUSH32 0x45524332303A207472616E7366657220746F20746865207A65726F2061646472 PUSH1 0x44 DUP3 ADD MSTORE PUSH3 0x657373 PUSH1 0xE8 SHL PUSH1 0x64 DUP3 ADD MSTORE PUSH1 0x84 SWAP1 REVERT JUMPDEST PUSH1 0x40 MLOAD PUSH3 0x461BCD PUSH1 0xE5 SHL DUP2 MSTORE PUSH1 0x20 PUSH1 0x4 DUP3 ADD MSTORE PUSH1 0x25 PUSH1 0x24 DUP3 ADD MSTORE PUSH32 0x45524332303A207472616E736665722066726F6D20746865207A65726F206164 PUSH1 0x44 DUP3 ADD MSTORE PUSH5 0x6472657373 PUSH1 0xD8 SHL PUSH1 0x64 DUP3 ADD MSTORE PUSH1 0x84 SWAP1 REVERT JUMPDEST PUSH1 0x1 PUSH1 0x1 PUSH1 0xA0 SHL SUB SWAP1 DUP2 AND SWAP2 DUP3 ISZERO PUSH2 0x17AC JUMPI AND SWAP2 DUP3 ISZERO PUSH2 0x175C JUMPI PUSH1 0x20 PUSH32 0x8C5BE1E5EBEC7D5BD14F71427D1E84F3DD0314C0F7B2291E5B200AC8C7C3B925 SWAP2 DUP4 PUSH1 0x0 MSTORE PUSH1 0x1 DUP3 MSTORE PUSH1 0x40 PUSH1 0x0 KECCAK256 DUP6 PUSH1 0x0 MSTORE DUP3 MSTORE DUP1 PUSH1 0x40 PUSH1 0x0 KECCAK256 SSTORE PUSH1 0x40 MLOAD SWAP1 DUP2 MSTORE LOG3 JUMP JUMPDEST PUSH1 0x40 MLOAD PUSH3 0x461BCD PUSH1 0xE5 SHL DUP2 MSTORE PUSH1 0x20 PUSH1 0x4 DUP3 ADD MSTORE PUSH1 0x22 PUSH1 0x24 DUP3 ADD MSTORE PUSH32 0x45524332303A20617070726F766520746F20746865207A65726F206164647265 PUSH1 0x44 DUP3 ADD MSTORE PUSH2 0x7373 PUSH1 0xF0 SHL PUSH1 0x64 DUP3 ADD MSTORE PUSH1 0x84 SWAP1 REVERT JUMPDEST PUSH1 0x40 MLOAD PUSH3 0x461BCD PUSH1 0xE5 SHL DUP2 MSTORE PUSH1 0x20 PUSH1 0x4 DUP3 ADD MSTORE PUSH1 0x24 DUP1 DUP3 ADD MSTORE PUSH32 0x45524332303A20617070726F76652066726F6D20746865207A65726F20616464 PUSH1 0x44 DUP3 ADD MSTORE PUSH4 0x72657373 PUSH1 0xE0 SHL PUSH1 0x64 DUP3 ADD MSTORE PUSH1 0x84 SWAP1 REVERT JUMPDEST SWAP2 SWAP1 DUP3 SUB SWAP2 DUP3 GT PUSH2 0x1297 JUMPI JUMP JUMPDEST DUP2 DUP2 MUL SWAP3 SWAP2 DUP2 ISZERO SWAP2 DUP5 DIV EQ OR ISZERO PUSH2 0x1297 JUMPI JUMP JUMPDEST DUP2 ISZERO PUSH2 0x1827 JUMPI DIV SWAP1 JUMP JUMPDEST PUSH4 0x4E487B71 PUSH1 0xE0 SHL PUSH1 0x0 MSTORE PUSH1 0x12 PUSH1 0x4 MSTORE PUSH1 0x24 PUSH1 0x0 REVERT JUMPDEST PUSH1 0x2 PUSH1 0x5 SLOAD EQ PUSH2 0x184E JUMPI PUSH1 0x2 PUSH1 0x5 SSTORE JUMP JUMPDEST PUSH1 0x40 MLOAD PUSH3 0x461BCD PUSH1 0xE5 SHL DUP2 MSTORE PUSH1 0x20 PUSH1 0x4 DUP3 ADD MSTORE PUSH1 0x1F PUSH1 0x24 DUP3 ADD MSTORE PUSH32 0x5265656E7472616E637947756172643A207265656E7472616E742063616C6C00 PUSH1 0x44 DUP3 ADD MSTORE PUSH1 0x64 SWAP1 REVERT JUMPDEST SWAP1 SWAP3 SWAP2 SWAP3 PUSH4 0xFFFFFFFF SWAP4 DUP5 TIMESTAMP AND SWAP1 DUP6 PUSH1 0xB SLOAD AND DUP3 SUB SWAP5 DUP7 DUP7 GT PUSH2 0x1297 JUMPI PUSH32 0xCF2AA50876CDFBB541206F89AF0EE78D44A2ABF8D328E37FA4917F982149848A SWAP7 PUSH1 0x40 SWAP7 AND DUP1 ISZERO ISZERO DUP1 PUSH2 0x1958 JUMPI JUMPDEST DUP1 PUSH2 0x194F JUMPI JUMPDEST PUSH2 0x1905 JUMPI JUMPDEST POP POP POP DUP3 PUSH1 0x9 SSTORE DUP2 PUSH1 0xA SSTORE PUSH1 0xB SSTORE DUP3 MLOAD SWAP2 DUP3 MSTORE PUSH1 0x20 DUP3 ADD MSTORE LOG1 JUMP JUMPDEST PUSH2 0x1924 DUP3 DUP5 PUSH2 0x1931 PUSH2 0x1929 DUP6 PUSH2 0x1924 PUSH2 0x1944 SWAP10 PUSH2 0x193C SWAP10 PUSH1 0x70 SHL PUSH2 0x181D JUMP JUMPDEST PUSH2 0x180A JUMP JUMPDEST PUSH1 0xC SLOAD PUSH2 0x1592 JUMP JUMPDEST PUSH1 0xC SSTORE PUSH1 0x70 SHL PUSH2 0x181D JUMP JUMPDEST PUSH1 0xD SLOAD PUSH2 0x1592 JUMP JUMPDEST PUSH1 0xD SSTORE CODESIZE DUP1 DUP1 PUSH2 0x18EA JUMP JUMPDEST POP DUP2 ISZERO ISZERO PUSH2 0x18E5 JUMP JUMPDEST POP DUP3 ISZERO ISZERO PUSH2 0x18DF JUMP JUMPDEST PUSH1 0x6 SLOAD PUSH1 0x40 MLOAD PUSH3 0x2FCFCB PUSH1 0xE3 SHL DUP2 MSTORE PUSH1 0x1 PUSH1 0x1 PUSH1 0xA0 SHL SUB SWAP2 PUSH1 0x20 SWAP1 DUP3 SWAP1 PUSH1 0x4 SWAP1 DUP3 SWAP1 DUP7 AND GAS STATICCALL SWAP1 DUP2 ISZERO PUSH2 0x220 JUMPI PUSH1 0x0 SWAP2 PUSH2 0x199D JUMPI JUMPDEST POP AND ISZERO ISZERO SWAP1 JUMP JUMPDEST PUSH1 0x20 DUP2 RETURNDATASIZE DUP3 GT PUSH2 0x19D6 JUMPI JUMPDEST DUP2 PUSH2 0x19B5 PUSH1 0x20 SWAP4 DUP4 PUSH2 0x155A JUMP JUMPDEST DUP2 ADD SUB SLT PUSH2 0x19D2 JUMPI MLOAD SWAP1 DUP3 DUP3 AND DUP3 SUB PUSH2 0x19CF JUMPI POP CODESIZE PUSH2 0x1996 JUMP JUMPDEST DUP1 REVERT JUMPDEST POP DUP1 REVERT JUMPDEST RETURNDATASIZE SWAP2 POP PUSH2 0x19A8 JUMP JUMPDEST PUSH1 0x40 MLOAD PUSH4 0xA9059CBB PUSH1 0xE0 SHL PUSH1 0x20 DUP1 DUP4 ADD SWAP2 DUP3 MSTORE PUSH1 0x1 PUSH1 0x1 PUSH1 0xA0 SHL SUB SWAP1 SWAP5 AND PUSH1 0x24 DUP4 ADD MSTORE PUSH1 0x44 DUP1 DUP4 ADD SWAP6 SWAP1 SWAP6 MSTORE SWAP4 DUP2 MSTORE SWAP2 SWAP3 PUSH8 0xFFFFFFFFFFFFFFFF SWAP3 PUSH1 0x80 DUP2 ADD DUP5 DUP2 GT DUP3 DUP3 LT OR PUSH2 0x157C JUMPI PUSH1 0x40 MSTORE PUSH1 0x0 SWAP3 DUP4 SWAP3 DUP4 DUP1 SWAP4 MLOAD SWAP3 GAS CALL SWAP2 RETURNDATASIZE ISZERO PUSH2 0x1B0E JUMPI RETURNDATASIZE SWAP1 DUP2 GT PUSH2 0x1AFA JUMPI PUSH1 0x40 MLOAD SWAP1 PUSH2 0x1A5D PUSH1 0x1F DUP3 ADD PUSH1 0x1F NOT AND DUP7 ADD DUP4 PUSH2 0x155A JUMP JUMPDEST DUP2 MSTORE RETURNDATASIZE DUP3 DUP6 DUP4 ADD RETURNDATACOPY JUMPDEST DUP3 PUSH2 0x1ABA JUMPI JUMPDEST POP POP ISZERO PUSH2 0x1A76 JUMPI POP JUMP JUMPDEST PUSH1 0x64 SWAP1 PUSH1 0x40 MLOAD SWAP1 PUSH3 0x461BCD PUSH1 0xE5 SHL DUP3 MSTORE PUSH1 0x4 DUP3 ADD MSTORE PUSH1 0x18 PUSH1 0x24 DUP3 ADD MSTORE PUSH32 0x446578506169723A205452414E534645525F4641494C45440000000000000000 PUSH1 0x44 DUP3 ADD MSTORE REVERT JUMPDEST DUP1 MLOAD SWAP3 POP DUP3 ISZERO SWAP2 SWAP1 DUP5 DUP4 ISZERO PUSH2 0x1AD6 JUMPI JUMPDEST POP POP POP SWAP1 POP CODESIZE DUP1 PUSH2 0x1A6C JUMP JUMPDEST SWAP2 SWAP4 DUP2 DUP1 SWAP5 POP ADD SUB SLT PUSH2 0x19D2 JUMPI DUP3 ADD MLOAD SWAP1 DUP2 ISZERO ISZERO DUP3 SUB PUSH2 0x19CF JUMPI POP DUP1 CODESIZE DUP1 DUP5 PUSH2 0x1ACA JUMP JUMPDEST PUSH4 0x4E487B71 PUSH1 0xE0 SHL DUP3 MSTORE PUSH1 0x41 PUSH1 0x4 MSTORE PUSH1 0x24 DUP3 REVERT JUMPDEST POP PUSH1 0x60 PUSH2 0x1A66 JUMP INVALID 0xDD CALLCODE MSTORE 0xAD SHL 0xE2 0xC8 SWAP12 PUSH10 0xC2B068FC378DAA952BA7 CALL PUSH4 0xC4A11628 CREATE2 GAS 0x4D CREATE2 0x23 0xB3 0xEF LOG2 PUSH5 0x6970667358 0x22 SLT KECCAK256 0xEC JUMP 0xB2 DUP15 0x5F PUSH7 0xDBE793183F55 EXTCODEHASH 0x1E MSTORE8 PUSH24 0xDA848B842FF878D3C29EBBF8981AEF64736F6C6343000813 STOP CALLER "},"methodIdentifiers":{"FEE_DENOMINATOR()":"d73792a9","FEE_NUMERATOR()":"41cd47bf","MINIMUM_LIQUIDITY()":"ba9a7a56","allowance(address,address)":"dd62ed3e","approve(address,uint256)":"095ea7b3","balanceOf(address)":"70a08231","blockTimestampLast()":"c5700a02","burn(address)":"89afcb44","decimals()":"313ce567","decreaseAllowance(address,uint256)":"a457c2d7","factory()":"c45a0155","getReserves()":"0902f1ac","increaseAllowance(address,uint256)":"39509351","initialize(address,address)":"485cc955","mint(address)":"6a627842","name()":"06fdde03","price0CumulativeLast()":"5909c0d5","price1CumulativeLast()":"5a3d5493","reserve0()":"443cb4bc","reserve1()":"5a76f25e","swap(uint256,uint256,address,bytes)":"022c0d9f","symbol()":"95d89b41","sync()":"fff6cae9","token0()":"0dfe1681","token1()":"d21220a7","totalSupply()":"18160ddd","transfer(address,uint256)":"a9059cbb","transferFrom(address,address,uint256)":"23b872dd"}}}}}