{
  "_format": "hh-sol-artifact-1",
  "contractName": "Bridge",
  "sourceName": "contracts/Bridge.sol",
  "abi": [
    {
      "inputs": [
        {
          "internalType": "address",
          "name": "_feeRecipient",
          "type": "address"
        }
      ],
      "stateMutability": "nonpayable",
      "type": "constructor"
    },
    {
      "anonymous": false,
      "inputs": [
        {
          "indexed": false,
          "internalType": "uint256",
          "name": "newFee",
          "type": "uint256"
        }
      ],
      "name": "FeeUpdated",
      "type": "event"
    },
    {
      "anonymous": false,
      "inputs": [
        {
          "indexed": false,
          "internalType": "uint256",
          "name": "newMax",
          "type": "uint256"
        }
      ],
      "name": "MaxAmountUpdated",
      "type": "event"
    },
    {
      "anonymous": false,
      "inputs": [
        {
          "indexed": true,
          "internalType": "address",
          "name": "previousOwner",
          "type": "address"
        },
        {
          "indexed": true,
          "internalType": "address",
          "name": "newOwner",
          "type": "address"
        }
      ],
      "name": "OwnershipTransferred",
      "type": "event"
    },
    {
      "anonymous": false,
      "inputs": [
        {
          "indexed": true,
          "internalType": "address",
          "name": "user",
          "type": "address"
        },
        {
          "indexed": true,
          "internalType": "address",
          "name": "token",
          "type": "address"
        },
        {
          "indexed": false,
          "internalType": "uint256",
          "name": "amount",
          "type": "uint256"
        },
        {
          "indexed": false,
          "internalType": "uint256",
          "name": "fee",
          "type": "uint256"
        },
        {
          "indexed": false,
          "internalType": "uint256",
          "name": "timestamp",
          "type": "uint256"
        },
        {
          "indexed": false,
          "internalType": "string",
          "name": "destinationChain",
          "type": "string"
        }
      ],
      "name": "TokenBridged",
      "type": "event"
    },
    {
      "anonymous": false,
      "inputs": [
        {
          "indexed": true,
          "internalType": "address",
          "name": "token",
          "type": "address"
        }
      ],
      "name": "TokenRemoved",
      "type": "event"
    },
    {
      "anonymous": false,
      "inputs": [
        {
          "indexed": true,
          "internalType": "address",
          "name": "token",
          "type": "address"
        },
        {
          "indexed": false,
          "internalType": "string",
          "name": "name",
          "type": "string"
        }
      ],
      "name": "TokenSupported",
      "type": "event"
    },
    {
      "anonymous": false,
      "inputs": [
        {
          "indexed": true,
          "internalType": "address",
          "name": "user",
          "type": "address"
        },
        {
          "indexed": true,
          "internalType": "address",
          "name": "token",
          "type": "address"
        },
        {
          "indexed": false,
          "internalType": "uint256",
          "name": "amount",
          "type": "uint256"
        },
        {
          "indexed": false,
          "internalType": "uint256",
          "name": "timestamp",
          "type": "uint256"
        },
        {
          "indexed": false,
          "internalType": "string",
          "name": "sourceChain",
          "type": "string"
        }
      ],
      "name": "TokenUnbridged",
      "type": "event"
    },
    {
      "anonymous": false,
      "inputs": [
        {
          "indexed": true,
          "internalType": "address",
          "name": "original",
          "type": "address"
        },
        {
          "indexed": true,
          "internalType": "address",
          "name": "wrapped",
          "type": "address"
        }
      ],
      "name": "WrappedTokenCreated",
      "type": "event"
    },
    {
      "inputs": [
        {
          "internalType": "address",
          "name": "token",
          "type": "address"
        }
      ],
      "name": "addSupportedToken",
      "outputs": [],
      "stateMutability": "nonpayable",
      "type": "function"
    },
    {
      "inputs": [],
      "name": "bridgeFeePercentage",
      "outputs": [
        {
          "internalType": "uint256",
          "name": "",
          "type": "uint256"
        }
      ],
      "stateMutability": "view",
      "type": "function"
    },
    {
      "inputs": [
        {
          "internalType": "address",
          "name": "token",
          "type": "address"
        },
        {
          "internalType": "uint256",
          "name": "amount",
          "type": "uint256"
        },
        {
          "internalType": "string",
          "name": "destinationChain",
          "type": "string"
        }
      ],
      "name": "bridgeToken",
      "outputs": [],
      "stateMutability": "nonpayable",
      "type": "function"
    },
    {
      "inputs": [
        {
          "internalType": "address",
          "name": "token",
          "type": "address"
        },
        {
          "internalType": "uint256",
          "name": "amount",
          "type": "uint256"
        }
      ],
      "name": "calculateBridgeFee",
      "outputs": [
        {
          "internalType": "uint256",
          "name": "",
          "type": "uint256"
        }
      ],
      "stateMutability": "view",
      "type": "function"
    },
    {
      "inputs": [
        {
          "internalType": "address",
          "name": "token",
          "type": "address"
        }
      ],
      "name": "emergencyWithdraw",
      "outputs": [],
      "stateMutability": "nonpayable",
      "type": "function"
    },
    {
      "inputs": [],
      "name": "feeRecipient",
      "outputs": [
        {
          "internalType": "address",
          "name": "",
          "type": "address"
        }
      ],
      "stateMutability": "view",
      "type": "function"
    },
    {
      "inputs": [
        {
          "internalType": "address",
          "name": "user",
          "type": "address"
        }
      ],
      "name": "getUserBridgeHistory",
      "outputs": [
        {
          "components": [
            {
              "internalType": "address",
              "name": "token",
              "type": "address"
            },
            {
              "internalType": "uint256",
              "name": "amount",
              "type": "uint256"
            },
            {
              "internalType": "uint256",
              "name": "fee",
              "type": "uint256"
            },
            {
              "internalType": "uint256",
              "name": "timestamp",
              "type": "uint256"
            },
            {
              "internalType": "string",
              "name": "destinationChain",
              "type": "string"
            },
            {
              "internalType": "bool",
              "name": "completed",
              "type": "bool"
            }
          ],
          "internalType": "struct Bridge.BridgeTransaction[]",
          "name": "",
          "type": "tuple[]"
        }
      ],
      "stateMutability": "view",
      "type": "function"
    },
    {
      "inputs": [
        {
          "internalType": "address",
          "name": "user",
          "type": "address"
        }
      ],
      "name": "getUserBridgeHistoryLength",
      "outputs": [
        {
          "internalType": "uint256",
          "name": "",
          "type": "uint256"
        }
      ],
      "stateMutability": "view",
      "type": "function"
    },
    {
      "inputs": [
        {
          "internalType": "address",
          "name": "token",
          "type": "address"
        }
      ],
      "name": "isSupportedToken",
      "outputs": [
        {
          "internalType": "bool",
          "name": "",
          "type": "bool"
        }
      ],
      "stateMutability": "view",
      "type": "function"
    },
    {
      "inputs": [
        {
          "internalType": "address",
          "name": "",
          "type": "address"
        }
      ],
      "name": "isWrappedToken",
      "outputs": [
        {
          "internalType": "bool",
          "name": "",
          "type": "bool"
        }
      ],
      "stateMutability": "view",
      "type": "function"
    },
    {
      "inputs": [],
      "name": "maxBridgeAmount",
      "outputs": [
        {
          "internalType": "uint256",
          "name": "",
          "type": "uint256"
        }
      ],
      "stateMutability": "view",
      "type": "function"
    },
    {
      "inputs": [],
      "name": "minBridgeAmount",
      "outputs": [
        {
          "internalType": "uint256",
          "name": "",
          "type": "uint256"
        }
      ],
      "stateMutability": "view",
      "type": "function"
    },
    {
      "inputs": [
        {
          "internalType": "address",
          "name": "",
          "type": "address"
        }
      ],
      "name": "originalToWrapped",
      "outputs": [
        {
          "internalType": "address",
          "name": "",
          "type": "address"
        }
      ],
      "stateMutability": "view",
      "type": "function"
    },
    {
      "inputs": [],
      "name": "owner",
      "outputs": [
        {
          "internalType": "address",
          "name": "",
          "type": "address"
        }
      ],
      "stateMutability": "view",
      "type": "function"
    },
    {
      "inputs": [
        {
          "internalType": "address",
          "name": "token",
          "type": "address"
        }
      ],
      "name": "removeSupportedToken",
      "outputs": [],
      "stateMutability": "nonpayable",
      "type": "function"
    },
    {
      "inputs": [],
      "name": "renounceOwnership",
      "outputs": [],
      "stateMutability": "nonpayable",
      "type": "function"
    },
    {
      "inputs": [
        {
          "internalType": "uint256",
          "name": "newFeePercentage",
          "type": "uint256"
        }
      ],
      "name": "setBridgeFee",
      "outputs": [],
      "stateMutability": "nonpayable",
      "type": "function"
    },
    {
      "inputs": [
        {
          "internalType": "address",
          "name": "newFeeRecipient",
          "type": "address"
        }
      ],
      "name": "setFeeRecipient",
      "outputs": [],
      "stateMutability": "nonpayable",
      "type": "function"
    },
    {
      "inputs": [
        {
          "internalType": "uint256",
          "name": "newMax",
          "type": "uint256"
        }
      ],
      "name": "setMaxBridgeAmount",
      "outputs": [],
      "stateMutability": "nonpayable",
      "type": "function"
    },
    {
      "inputs": [
        {
          "internalType": "uint256",
          "name": "newMin",
          "type": "uint256"
        }
      ],
      "name": "setMinBridgeAmount",
      "outputs": [],
      "stateMutability": "nonpayable",
      "type": "function"
    },
    {
      "inputs": [
        {
          "internalType": "address",
          "name": "",
          "type": "address"
        }
      ],
      "name": "supportedTokens",
      "outputs": [
        {
          "internalType": "bool",
          "name": "",
          "type": "bool"
        }
      ],
      "stateMutability": "view",
      "type": "function"
    },
    {
      "inputs": [
        {
          "internalType": "address",
          "name": "",
          "type": "address"
        }
      ],
      "name": "tokenBridgedAmount",
      "outputs": [
        {
          "internalType": "uint256",
          "name": "",
          "type": "uint256"
        }
      ],
      "stateMutability": "view",
      "type": "function"
    },
    {
      "inputs": [],
      "name": "totalBridged",
      "outputs": [
        {
          "internalType": "uint256",
          "name": "",
          "type": "uint256"
        }
      ],
      "stateMutability": "view",
      "type": "function"
    },
    {
      "inputs": [
        {
          "internalType": "address",
          "name": "newOwner",
          "type": "address"
        }
      ],
      "name": "transferOwnership",
      "outputs": [],
      "stateMutability": "nonpayable",
      "type": "function"
    },
    {
      "inputs": [
        {
          "internalType": "address",
          "name": "token",
          "type": "address"
        },
        {
          "internalType": "address",
          "name": "user",
          "type": "address"
        },
        {
          "internalType": "uint256",
          "name": "amount",
          "type": "uint256"
        },
        {
          "internalType": "string",
          "name": "sourceChain",
          "type": "string"
        }
      ],
      "name": "unbridgeToken",
      "outputs": [],
      "stateMutability": "nonpayable",
      "type": "function"
    },
    {
      "inputs": [
        {
          "internalType": "address",
          "name": "",
          "type": "address"
        },
        {
          "internalType": "uint256",
          "name": "",
          "type": "uint256"
        }
      ],
      "name": "userBridgeHistory",
      "outputs": [
        {
          "internalType": "address",
          "name": "token",
          "type": "address"
        },
        {
          "internalType": "uint256",
          "name": "amount",
          "type": "uint256"
        },
        {
          "internalType": "uint256",
          "name": "fee",
          "type": "uint256"
        },
        {
          "internalType": "uint256",
          "name": "timestamp",
          "type": "uint256"
        },
        {
          "internalType": "string",
          "name": "destinationChain",
          "type": "string"
        },
        {
          "internalType": "bool",
          "name": "completed",
          "type": "bool"
        }
      ],
      "stateMutability": "view",
      "type": "function"
    },
    {
      "inputs": [
        {
          "internalType": "address",
          "name": "",
          "type": "address"
        }
      ],
      "name": "wrappedToOriginal",
      "outputs": [
        {
          "internalType": "address",
          "name": "",
          "type": "address"
        }
      ],
      "stateMutability": "view",
      "type": "function"
    }
  ],
  "bytecode": "0x6080346100c357601f61188138819003918201601f19168301916001600160401b038311848410176100c8578084926020946040528339810103126100c357516001600160a01b0390818116908190036100c357600160005560015460018060a01b0319903382821617600155604051933391167f8be0079c531659141344cd1fd0a4f28419497f9722a3daafe3b4186f6b6457e0600080a36019600255600019600355670de0b6b3a7640000600455600a541617600a556117a290816100df8239f35b600080fd5b634e487b7160e01b600052604160045260246000fdfe608080604052600436101561001357600080fd5b600090813560e01c908163081da8c114611146575080630ed611881461109c578063240028e8146109975780632ce68a1d14610c105780634690484014610be7578063469c7dd914610bc957806358b5b77714610b715780635e55727f14610a5157806360132c9c14610a3357806364fb065b146109f457806367a1791a146109d657806368c4ac26146109975780636d69fcaf1461089e5780636ff1c9bc146107af578063715018a61461075257806376319190146106d35780637c0db610146106975780638da5cb5b1461066e578063998cdf83146105d85780639aa6188f14610445578063c3c2247514610427578063d38b6bce146103ee578063d7d66e7114610376578063e610813b146102d2578063e74b981b1461024f578063f2fde38b146101855763fc3535ac1461014a57600080fd5b34610182576020366003190112610182576020906040906001600160a01b0361017161117f565b168152600983522054604051908152f35b80fd5b50346101825760203660031901126101825761019f61117f565b6101a76113a3565b6001600160a01b039081169081156101fb57600154826bffffffffffffffffffffffff60a01b821617600155167f8be0079c531659141344cd1fd0a4f28419497f9722a3daafe3b4186f6b6457e08380a380f35b60405162461bcd60e51b815260206004820152602660248201527f4f776e61626c653a206e6577206f776e657220697320746865207a65726f206160448201526564647265737360d01b6064820152608490fd5b50346101825760203660031901126101825761026961117f565b6102716113a3565b6001600160a01b0316801561029b576bffffffffffffffffffffffff60a01b600a541617600a5580f35b60405162461bcd60e51b815260206004820152600f60248201526e496e76616c6964206164647265737360881b6044820152606490fd5b5034610182576020366003190112610182576004356102ef6113a3565b8015610327576020817f6665fd65641a68406bcb28760786a4bd022ac69cb4468e649c1ec61ae398492392600355604051908152a180f35b60405162461bcd60e51b815260206004820152602160248201527f4d617820616d6f756e74206d7573742062652067726561746572207468616e206044820152600360fc1b6064820152608490fd5b5034610182576020366003190112610182576004356103936113a3565b801561039f5760045580f35b60405162461bcd60e51b815260206004820152602160248201527f4d696e20616d6f756e74206d7573742062652067726561746572207468616e206044820152600360fc1b6064820152608490fd5b5034610182576020366003190112610182576020906040906001600160a01b0361041661117f565b168152600c83522054604051908152f35b50346101825780600319360112610182576020600454604051908152f35b50346101825760209081600319360112610182576001600160a01b03908161046b61117f565b16815260098352604081209081549367ffffffffffffffff85116105c457604094939451906005946104a18282881b0184611238565b8083528183018095855282852085915b8383106105555750505050604051948186019282875251809352604083818801921b8701019493965b8388106104e75786860387f35b90919293948380600192603f198a8203018652885190858251168152828201518382015260408201516040820152606080830151908201526105386080808401519060c08091850152830190611300565b9160a08091015115159101529701930197019690939291936104da565b6006856001928c60ff8d9e9d60409c9a9b9c519261057284611206565b88541683528688015485840152600288015460408401526003880154606084015261059f6004890161125a565b608084015287015416151560a0820152815201920192019190989798959493956104b1565b634e487b7160e01b82526041600452602482fd5b5034610182576020366003190112610182576004356105f56113a3565b6103e88111610630576020817f8c4d35e54a3f2ef1134138fd8ea3daee6a3c89e10d2665996babdf70261e2c7692600255604051908152a180f35b60405162461bcd60e51b815260206004820152601660248201527546656520746f6f206869676820286d6178203130252960501b6044820152606490fd5b50346101825780600319360112610182576001546040516001600160a01b039091168152602090f35b5034610182576020366003190112610182576020906001600160a01b0390604090826106c161117f565b16815260078452205416604051908152f35b5034610182576020366003190112610182576106ed61117f565b6106f56113a3565b6001600160a01b0316808252600560205260408220546107179060ff166113fb565b808252600560205260408220805460ff191690557f4c910b69fe65a61f7531b9c5042b2329ca7179c77290aa7e2eb3afa3c8511fd38280a280f35b503461018257806003193601126101825761076b6113a3565b600180546001600160a01b0319811690915581906001600160a01b03167f8be0079c531659141344cd1fd0a4f28419497f9722a3daafe3b4186f6b6457e08280a380f35b50346101825760209081600319360112610182576107cb61117f565b6107d36113a3565b6040516370a0823160e01b8152306004820152906001600160a01b03908116908483602481855afa928315610893578493610860575b508215610823576108209394506001541690611515565b80f35b60405162461bcd60e51b81526004810186905260156024820152744e6f20746f6b656e7320746f20776974686472617760581b6044820152606490fd5b9092508481813d831161088c575b6108788183611238565b8101031261088857519138610809565b8380fd5b503d61086e565b6040513d86823e3d90fd5b503461018257602080600319360112610993576108b961117f565b6108c16113a3565b6001600160a01b0316906108d6821515611728565b8183526005815260ff60408420541661094f5760607f90948a754d0109958c2642888ac47a6f4b98cfbd57010afbaa66308b1344a866918385526005815260408520600160ff19825416179055601360405191808352820152722732bb9029bab83837b93a32b2102a37b5b2b760691b6040820152a280f35b6064906040519062461bcd60e51b82526004820152601760248201527f546f6b656e20616c726561647920737570706f727465640000000000000000006044820152fd5b5080fd5b50346101825760203660031901126101825760209060ff906040906001600160a01b036109c261117f565b168152600584522054166040519015158152f35b50346101825780600319360112610182576020600b54604051908152f35b50346101825760203660031901126101825760209060ff906040906001600160a01b03610a1f61117f565b168152600684522054166040519015158152f35b50346101825780600319360112610182576020600354604051908152f35b503461018257608036600319011261018257610a6b61117f565b6001600160a01b039060243582811691828203610b6d576044359360643567ffffffffffffffff8111610b6957610aa690369060040161135c565b91610aaf6113a3565b610ab76114bf565b1693610ac4851515611728565b8315610b2d57610b01817f92864b5de5a7bd165131eb62f14c719c388c886f4dc98473282085d13aa5ec6d94610afb82151561143d565b87611515565b610b236040519283928352426020840152606060408401526060830190611300565b0390a36001815580f35b60405162461bcd60e51b8152602060048201526014602482015273496e76616c69642075736572206164647265737360601b6044820152606490fd5b8680fd5b8480fd5b503461018257604036600319011261018257610bad9060ff906040906001600160a01b03610b9d61117f565b16815260056020522054166113fb565b6020612710610bc0600254602435611489565b04604051908152f35b50346101825780600319360112610182576020600254604051908152f35b5034610182578060031936011261018257600a546040516001600160a01b039091168152602090f35b503461018257606036600319011261018257610c2a61117f565b9060243560443567ffffffffffffffff811161109857610c4e90369060040161135c565b610c566114bf565b6001600160a01b038416835260056020526040832054610c789060ff166113fb565b610c8382151561143d565b600454821061105c57600354821161101e57612710610ca460025484611489565b0493828581031161100a576040516323b872dd60e01b60208201523360248201523060448201526064808201859052815260a0810167ffffffffffffffff811182821017610ff657604052610d02906001600160a01b038316611561565b84610fd5575b610d16858403600b546114b2565b600b556001600160a01b0381168452600c602052604084208054610d3d90878603906114b2565b90553384526009602052604084209460405195610d5987611206565b6001600160a01b03831687528185036020880152604087018290524260608801526080870184905260a0870186905280549068010000000000000000821015610fc15790610dac9160018201815561119a565b969096610fad57805187546001600160a01b0319166001600160a01b039190911617875560208101516001880155604081015160028801556060810151600388015560808101518051909790600482019067ffffffffffffffff8111610f9957610e1682546111cc565b601f8111610f54575b506020601f8211600114610ec757918160a094926005948c9d7f15e72d3c984010e318c48e442345edad5185a4e44cae23bc26c3650dd1c604349b9c9d92610ebc575b50508160011b916000199060031b1c19161790555b01910151151560ff80198354169116179055806040519503855260208501524260408501526080606085015260018060a01b03169280610b2333946080830190611300565b015190503880610e62565b828a5260208a209a601f1983168b5b818110610f3c5750927f15e72d3c984010e318c48e442345edad5185a4e44cae23bc26c3650dd1c60434999a9b9c600595936001938360a0999710610f23575b505050811b019055610e77565b015160001960f88460031b161c19169055388080610f16565b838301518e556001909d019c60209384019301610ed6565b828a5260208a20601f830160051c81019160208410610f8f575b601f0160051c01905b818110610f845750610e1f565b8a8155600101610f77565b9091508190610f6e565b634e487b7160e01b89526041600452602489fd5b634e487b7160e01b86526004869052602486fd5b634e487b7160e01b87526041600452602487fd5b600a54610ff19086906001600160a01b03908116908416611515565b610d08565b634e487b7160e01b86526041600452602486fd5b634e487b7160e01b84526011600452602484fd5b60405162461bcd60e51b8152602060048201526016602482015275416d6f756e742065786365656473206d6178696d756d60501b6044820152606490fd5b60405162461bcd60e51b8152602060048201526014602482015273416d6f756e742062656c6f77206d696e696d756d60601b6044820152606490fd5b8280fd5b5034610182576040366003190112610182576110b661117f565b6001600160a01b0390811682526009602052604082208054602435919082101561088857906110e49161119a565b509081541660018201549161113a600282015491600381015460ff600561110d6004850161125a565b9301541693604051968796875260208701526040860152606085015260c0608085015260c0840190611300565b90151560a08301520390f35b905034610993576020366003190112610993576020916001600160a01b03906040908261117161117f565b168152600885522054168152f35b600435906001600160a01b038216820361119557565b600080fd5b80548210156111b6576000526006602060002091020190600090565b634e487b7160e01b600052603260045260246000fd5b90600182811c921680156111fc575b60208310146111e657565b634e487b7160e01b600052602260045260246000fd5b91607f16916111db565b60c0810190811067ffffffffffffffff82111761122257604052565b634e487b7160e01b600052604160045260246000fd5b90601f8019910116810190811067ffffffffffffffff82111761122257604052565b906040519182600082549261126e846111cc565b9081845260019485811690816000146112dd575060011461129a575b505061129892500383611238565b565b9093915060005260209081600020936000915b8183106112c55750506112989350820101388061128a565b855488840185015294850194879450918301916112ad565b91505061129894506020925060ff191682840152151560051b820101388061128a565b919082519283825260005b84811061132c575050826000602080949584010152601f8019910116010190565b60208183018101518483018201520161130b565b67ffffffffffffffff811161122257601f01601f191660200190565b81601f820112156111955780359061137382611340565b926113816040519485611238565b8284526020838301011161119557816000926020809301838601378301015290565b6001546001600160a01b031633036113b757565b606460405162461bcd60e51b815260206004820152602060248201527f4f776e61626c653a2063616c6c6572206973206e6f7420746865206f776e65726044820152fd5b1561140257565b60405162461bcd60e51b8152602060048201526013602482015272151bdad95b881b9bdd081cdd5c1c1bdc9d1959606a1b6044820152606490fd5b1561144457565b60405162461bcd60e51b815260206004820152601d60248201527f416d6f756e74206d7573742062652067726561746572207468616e20300000006044820152606490fd5b8181029291811591840414171561149c57565b634e487b7160e01b600052601160045260246000fd5b9190820180921161149c57565b6002600054146114d0576002600055565b60405162461bcd60e51b815260206004820152601f60248201527f5265656e7472616e637947756172643a207265656e7472616e742063616c6c006044820152606490fd5b60405163a9059cbb60e01b60208201526001600160a01b039092166024830152604480830193909352918152608081019167ffffffffffffffff83118284101761122257611298926040525b60018060a01b031690604051604081019080821067ffffffffffffffff831117611222576115f1916040526020938482527f5361666545524332303a206c6f772d6c6576656c2063616c6c206661696c6564858301526000808587829751910182855af13d15611687573d916115d683611340565b926115e46040519485611238565b83523d868885013e61168b565b805191821591848315611663575b50505090501561160c5750565b6084906040519062461bcd60e51b82526004820152602a60248201527f5361666545524332303a204552433230206f7065726174696f6e20646964206e6044820152691bdd081cdd58d8d9595960b21b6064820152fd5b919381809450010312610993578201519081151582036101825750803880846115ff565b6060915b919290156116ed575081511561169f575090565b3b156116a85790565b60405162461bcd60e51b815260206004820152601d60248201527f416464726573733a2063616c6c20746f206e6f6e2d636f6e74726163740000006044820152606490fd5b8251909150156117005750805190602001fd5b60405162461bcd60e51b815260206004820152908190611724906024830190611300565b0390fd5b1561172f57565b60405162461bcd60e51b8152602060048201526015602482015274496e76616c696420746f6b656e206164647265737360581b6044820152606490fdfea26469706673582212209b25678c8d6b068896c7db68ed919cfa95ae4f9be81b5f0f75e23fa883b4291264736f6c63430008130033",
  "linkReferences": {},
  "deployedLinkReferences": {}
}