{
  "_format": "hh-sol-artifact-1",
  "contractName": "DexRouter",
  "sourceName": "contracts/DexRouter.sol",
  "abi": [
    {
      "inputs": [
        {
          "internalType": "address",
          "name": "_factory",
          "type": "address"
        }
      ],
      "stateMutability": "nonpayable",
      "type": "constructor"
    },
    {
      "anonymous": false,
      "inputs": [
        {
          "indexed": true,
          "internalType": "address",
          "name": "tokenA",
          "type": "address"
        },
        {
          "indexed": true,
          "internalType": "address",
          "name": "tokenB",
          "type": "address"
        },
        {
          "indexed": false,
          "internalType": "uint256",
          "name": "amountA",
          "type": "uint256"
        },
        {
          "indexed": false,
          "internalType": "uint256",
          "name": "amountB",
          "type": "uint256"
        },
        {
          "indexed": false,
          "internalType": "uint256",
          "name": "liquidity",
          "type": "uint256"
        }
      ],
      "name": "AddLiquidity",
      "type": "event"
    },
    {
      "anonymous": false,
      "inputs": [
        {
          "indexed": true,
          "internalType": "address",
          "name": "tokenA",
          "type": "address"
        },
        {
          "indexed": true,
          "internalType": "address",
          "name": "tokenB",
          "type": "address"
        },
        {
          "indexed": false,
          "internalType": "uint256",
          "name": "amountA",
          "type": "uint256"
        },
        {
          "indexed": false,
          "internalType": "uint256",
          "name": "amountB",
          "type": "uint256"
        },
        {
          "indexed": false,
          "internalType": "uint256",
          "name": "liquidity",
          "type": "uint256"
        }
      ],
      "name": "RemoveLiquidity",
      "type": "event"
    },
    {
      "inputs": [],
      "name": "FEE_DENOMINATOR",
      "outputs": [
        {
          "internalType": "uint256",
          "name": "",
          "type": "uint256"
        }
      ],
      "stateMutability": "view",
      "type": "function"
    },
    {
      "inputs": [],
      "name": "FEE_NUMERATOR",
      "outputs": [
        {
          "internalType": "uint256",
          "name": "",
          "type": "uint256"
        }
      ],
      "stateMutability": "view",
      "type": "function"
    },
    {
      "inputs": [
        {
          "internalType": "address",
          "name": "tokenA",
          "type": "address"
        },
        {
          "internalType": "address",
          "name": "tokenB",
          "type": "address"
        },
        {
          "internalType": "uint256",
          "name": "amountADesired",
          "type": "uint256"
        },
        {
          "internalType": "uint256",
          "name": "amountBDesired",
          "type": "uint256"
        },
        {
          "internalType": "uint256",
          "name": "amountAMin",
          "type": "uint256"
        },
        {
          "internalType": "uint256",
          "name": "amountBMin",
          "type": "uint256"
        },
        {
          "internalType": "address",
          "name": "to",
          "type": "address"
        },
        {
          "internalType": "uint256",
          "name": "deadline",
          "type": "uint256"
        }
      ],
      "name": "addLiquidity",
      "outputs": [
        {
          "internalType": "uint256",
          "name": "amountA",
          "type": "uint256"
        },
        {
          "internalType": "uint256",
          "name": "amountB",
          "type": "uint256"
        },
        {
          "internalType": "uint256",
          "name": "liquidity",
          "type": "uint256"
        }
      ],
      "stateMutability": "nonpayable",
      "type": "function"
    },
    {
      "inputs": [],
      "name": "factory",
      "outputs": [
        {
          "internalType": "address",
          "name": "",
          "type": "address"
        }
      ],
      "stateMutability": "view",
      "type": "function"
    },
    {
      "inputs": [
        {
          "internalType": "uint256",
          "name": "amountOut",
          "type": "uint256"
        },
        {
          "internalType": "uint256",
          "name": "reserveIn",
          "type": "uint256"
        },
        {
          "internalType": "uint256",
          "name": "reserveOut",
          "type": "uint256"
        }
      ],
      "name": "getAmountIn",
      "outputs": [
        {
          "internalType": "uint256",
          "name": "amountIn",
          "type": "uint256"
        }
      ],
      "stateMutability": "pure",
      "type": "function"
    },
    {
      "inputs": [
        {
          "internalType": "uint256",
          "name": "amountIn",
          "type": "uint256"
        },
        {
          "internalType": "uint256",
          "name": "reserveIn",
          "type": "uint256"
        },
        {
          "internalType": "uint256",
          "name": "reserveOut",
          "type": "uint256"
        }
      ],
      "name": "getAmountOut",
      "outputs": [
        {
          "internalType": "uint256",
          "name": "amountOut",
          "type": "uint256"
        }
      ],
      "stateMutability": "pure",
      "type": "function"
    },
    {
      "inputs": [
        {
          "internalType": "uint256",
          "name": "amountOut",
          "type": "uint256"
        },
        {
          "internalType": "address[]",
          "name": "path",
          "type": "address[]"
        }
      ],
      "name": "getAmountsIn",
      "outputs": [
        {
          "internalType": "uint256[]",
          "name": "amounts",
          "type": "uint256[]"
        }
      ],
      "stateMutability": "view",
      "type": "function"
    },
    {
      "inputs": [
        {
          "internalType": "uint256",
          "name": "amountIn",
          "type": "uint256"
        },
        {
          "internalType": "address[]",
          "name": "path",
          "type": "address[]"
        }
      ],
      "name": "getAmountsOut",
      "outputs": [
        {
          "internalType": "uint256[]",
          "name": "amounts",
          "type": "uint256[]"
        }
      ],
      "stateMutability": "view",
      "type": "function"
    },
    {
      "inputs": [
        {
          "internalType": "address",
          "name": "tokenA",
          "type": "address"
        },
        {
          "internalType": "address",
          "name": "tokenB",
          "type": "address"
        }
      ],
      "name": "getPair",
      "outputs": [
        {
          "internalType": "address",
          "name": "",
          "type": "address"
        }
      ],
      "stateMutability": "view",
      "type": "function"
    },
    {
      "inputs": [
        {
          "internalType": "address",
          "name": "tokenA",
          "type": "address"
        },
        {
          "internalType": "address",
          "name": "tokenB",
          "type": "address"
        }
      ],
      "name": "getReserves",
      "outputs": [
        {
          "internalType": "uint256",
          "name": "reserveA",
          "type": "uint256"
        },
        {
          "internalType": "uint256",
          "name": "reserveB",
          "type": "uint256"
        }
      ],
      "stateMutability": "view",
      "type": "function"
    },
    {
      "inputs": [
        {
          "internalType": "address",
          "name": "tokenA",
          "type": "address"
        },
        {
          "internalType": "address",
          "name": "tokenB",
          "type": "address"
        },
        {
          "internalType": "uint256",
          "name": "liquidity",
          "type": "uint256"
        },
        {
          "internalType": "uint256",
          "name": "amountAMin",
          "type": "uint256"
        },
        {
          "internalType": "uint256",
          "name": "amountBMin",
          "type": "uint256"
        },
        {
          "internalType": "address",
          "name": "to",
          "type": "address"
        },
        {
          "internalType": "uint256",
          "name": "deadline",
          "type": "uint256"
        }
      ],
      "name": "removeLiquidity",
      "outputs": [
        {
          "internalType": "uint256",
          "name": "amountA",
          "type": "uint256"
        },
        {
          "internalType": "uint256",
          "name": "amountB",
          "type": "uint256"
        }
      ],
      "stateMutability": "nonpayable",
      "type": "function"
    },
    {
      "inputs": [
        {
          "internalType": "uint256",
          "name": "amountIn",
          "type": "uint256"
        },
        {
          "internalType": "uint256",
          "name": "amountOutMin",
          "type": "uint256"
        },
        {
          "internalType": "address[]",
          "name": "path",
          "type": "address[]"
        },
        {
          "internalType": "address",
          "name": "to",
          "type": "address"
        },
        {
          "internalType": "uint256",
          "name": "deadline",
          "type": "uint256"
        }
      ],
      "name": "swapExactTokensForTokens",
      "outputs": [
        {
          "internalType": "uint256[]",
          "name": "amounts",
          "type": "uint256[]"
        }
      ],
      "stateMutability": "nonpayable",
      "type": "function"
    },
    {
      "inputs": [
        {
          "internalType": "uint256",
          "name": "amountOut",
          "type": "uint256"
        },
        {
          "internalType": "uint256",
          "name": "amountInMax",
          "type": "uint256"
        },
        {
          "internalType": "address[]",
          "name": "path",
          "type": "address[]"
        },
        {
          "internalType": "address",
          "name": "to",
          "type": "address"
        },
        {
          "internalType": "uint256",
          "name": "deadline",
          "type": "uint256"
        }
      ],
      "name": "swapTokensForExactTokens",
      "outputs": [
        {
          "internalType": "uint256[]",
          "name": "amounts",
          "type": "uint256[]"
        }
      ],
      "stateMutability": "nonpayable",
      "type": "function"
    }
  ],
  "bytecode": "0x60a03461008d57601f61177e38819003918201601f19168301916001600160401b038311848410176100925780849260209460405283398101031261008d57516001600160a01b038116810361008d576080526040516116d590816100a98239608051818181610135015281816104f0015281816105a90152818161082b01528181610bcb015261129e0152f35b600080fd5b634e487b7160e01b600052604160045260246000fdfe6040608081526004908136101561001557600080fd5b600091823560e01c8063054d50d4146109ee5780631f00ca74146109d157806338ed17391461096f57806341cd47bf1461095357806385f8c259146109305780638803dbee1461078c578063baa2abde1461051f578063c45a0155146104db578063d06ca61f146104b3578063d52bb6f41461047b578063d73792a91461045e578063e6a439051461041f5763e8e33700146100b057600080fd5b3461041b5761010036600319011261041b576100ca610ac9565b6100d2610adf565b6001600160a01b03946044359491906064359060c435888116908190036104175790859392916101064260e4351015611147565b855163e6a4390560e01b81526001600160a01b03978816898201908152978516602089810191909152979093907f00000000000000000000000000000000000000000000000000000000000000008c16908990869081906040010381845afa94851561040d5789939291879186976103ee575b508d871615610362575b505061018f8688610c2e565b91908c81158061035a575b156102bf575050602491509a995b6101b48b87338b61155d565b6101c08c87338a61155d565b848d8a5197889586946335313c2160e11b8652850152165af19586156102b3578196610259575b5050507f2f3289d16dbc3007471d28c4936df3a95222bc938112449400d049637e3309ce876102559697988551931693169180610237878b8b846040919493926060820195825260208201520152565b0390a351938493846040919493926060820195825260208201520152565b0390f35b909180999650813d83116102ac575b6102728183610b44565b810103126102a95750955192957f2f3289d16dbc3007471d28c4936df3a95222bc938112449400d049637e3309ce610255386101e7565b80fd5b503d610268565b508451903d90823e3d90fd5b83826102ca9261121e565b928284116102ed575050506024906102e660a4358210156111d3565b9a996101a8565b9091809495506102fd935061121e565b998a116103175790602488926102e66084358d1015611188565b865162461bcd60e51b8152808a01899052601b60248201527f446578526f757465723a20494e56414c49445f414d4f554e545f4100000000006044820152606490fd5b50831561019a565b89516364e329cb60e11b81526001600160a01b03808b16828f019081529316602084015292965092939192839182908790829060400103925af19081156103e4579088929184916103b7575b50938538610183565b6103d79150833d85116103dd575b6103cf8183610b44565b810190610b7c565b386103ae565b503d6103c5565b87513d85823e3d90fd5b610406919750853d87116103dd576103cf8183610b44565b9538610179565b88513d86823e3d90fd5b5080fd5b8280fd5b50503461041757806003193601126104175760209061044d61043f610ac9565b610447610adf565b90610b9b565b90516001600160a01b039091168152f35b505034610417578160031936011261041757602090516103e88152f35b8284346102a957816003193601126102a957506104a7610499610ac9565b6104a1610adf565b90610c2e565b82519182526020820152f35b50503461041757610255906104d06104ca36610a5a565b91610ff1565b905191829182610a8e565b505034610417578160031936011261041757517f00000000000000000000000000000000000000000000000000000000000000006001600160a01b03168152602090f35b508290346104175760e03660031901126104175761053b610ac9565b90610544610adf565b604435929060a4356001600160a01b038181169182900361070a5761056d4260c4351015611147565b875163e6a4390560e01b81526001600160a01b0380861687830190815290851660208281019190915296919391908790859081906040010381867f0000000000000000000000000000000000000000000000000000000000000000165afa938415610782578994610763575b50828416938415610720578a92916105f58a602493338161155d565b8a8451968794859363226bf2d160e21b85528401525af196871561071557809281986106db575b508382169480831694868610156106d35750905b501682036106a75761069a7feb755d537a0caac69ccb1ac1dc2b7397a32bb19f93bd06013c57ac0b2e5dd69c9196955b61066e606435891015611188565b61067c6084358810156111d3565b8851918291888a846040919493926060820195825260208201520152565b0390a38351928352820152f35b937feb755d537a0caac69ccb1ac1dc2b7397a32bb19f93bd06013c57ac0b2e5dd69c9061069a90610660565b905090610630565b89809299508194503d831161070e575b6106f58183610b44565b8101031261070a57848251920151968961061c565b8680fd5b503d6106eb565b8851903d90823e3d90fd5b8a5162461bcd60e51b8152808301899052601a60248201527f446578526f757465723a20504149525f4e4f545f4558495354530000000000006044820152606490fd5b61077b919450873d89116103dd576103cf8183610b44565b928a6105d9565b8a513d8b823e3d90fd5b50903461041b576107bb6107b66107a236610af5565b94829684969a959a98949298421115611147565b61108f565b956107c587610f87565b51116108e35782156108d0576107da82610fdd565b906107e483610fdd565b84600110156108bd576020906107fb828601610fdd565b885163e6a4390560e01b81526001600160a01b0392831694810194855291166020840152918290819060400103817f00000000000000000000000000000000000000000000000000000000000000006001600160a01b03165afa9081156108b357916108859161088b969594936102559a91610895575b5061087c89610f87565b5191339061155d565b85611290565b5191829182610a8e565b6108ad915060203d81116103dd576103cf8183610b44565b38610872565b86513d8a823e3d90fd5b634e487b7160e01b895260328252602489fd5b634e487b7160e01b875260329052602486fd5b608490602086519162461bcd60e51b8352820152602160248201527f446578526f757465723a204558434553534956455f494e5055545f414d4f554e6044820152601560fa1b6064820152fd5b5050346104175760209061094c61094636610a0a565b91610e82565b9051908152f35b5050346104175781600319360112610417576020905160038152f35b50903461041b5761098a6109856107a236610af5565b610ff1565b95865160001981019081116109be57906109a76109af9289610faa565b511015610e28565b82156108d0576107da82610fdd565b634e487b7160e01b895260118352602489fd5b50503461041757610255906104d06109e836610a5a565b9161108f565b5050346104175760209061094c610a0436610a0a565b91610d7e565b6060906003190112610a2457600435906024359060443590565b600080fd5b9181601f84011215610a245782359167ffffffffffffffff8311610a24576020808501948460051b010111610a2457565b906040600319830112610a2457600435916024359067ffffffffffffffff8211610a2457610a8a91600401610a29565b9091565b6020908160408183019282815285518094520193019160005b828110610ab5575050505090565b835185529381019392810192600101610aa7565b600435906001600160a01b0382168203610a2457565b602435906001600160a01b0382168203610a2457565b60a0600319820112610a245760043591602435916044359067ffffffffffffffff8211610a2457610b2891600401610a29565b90916064356001600160a01b0381168103610a24579060843590565b90601f8019910116810190811067ffffffffffffffff821117610b6657604052565b634e487b7160e01b600052604160045260246000fd5b90816020910312610a2457516001600160a01b0381168103610a245790565b60405163e6a4390560e01b81526001600160a01b03918216600482015291166024820152602081806044810103817f00000000000000000000000000000000000000000000000000000000000000006001600160a01b03165afa908115610c2257600091610c07575090565b610c1f915060203d81116103dd576103cf8183610b44565b90565b6040513d6000823e3d90fd5b906004906001600160a01b03808416916060908290610c5790828116861015610cc15787610b9b565b1660405194858092630240bc6b60e21b82525afa938415610c22576000938495610c86575b501603610a8a5791565b939094506060843d8211610cb9575b81610ca260609383610b44565b810103126102a95750602083519301519338610c7c565b3d9150610c95565b8097610b9b565b15610ccf57565b60405162461bcd60e51b815260206004820152602160248201527f446578526f757465723a20494e53554646494349454e545f4c495155494449546044820152605960f81b6064820152608490fd5b906103e591828102928184041490151715610d3557565b634e487b7160e01b600052601160045260246000fd5b81810292918115918404141715610d3557565b8115610d68570490565b634e487b7160e01b600052601260045260246000fd5b918215610dd757610dab610da4831594851580610dce575b610d9f90610cc8565b610d1e565b9182610d4b565b926103e8808402938404141715610d35578101809111610d3557610c1f91610d5e565b50831515610d96565b60405162461bcd60e51b8152602060048201526024808201527f446578526f757465723a20494e53554646494349454e545f494e5055545f414d60448201526313d5539560e21b6064820152608490fd5b15610e2f57565b60405162461bcd60e51b815260206004820152602560248201527f446578526f757465723a20494e53554646494349454e545f4f55545055545f416044820152641353d5539560da1b6064820152608490fd5b9081610eaa91610e93821515610e28565b80151580610ee8575b610ea590610cc8565b610d4b565b906103e891828102928184041490151715610d35578203918211610d3557610ed4610eda92610d1e565b90610d5e565b60018101809111610d355790565b50841515610e9c565b15610ef857565b60405162461bcd60e51b815260206004820152601760248201527f446578526f757465723a20494e56414c49445f504154480000000000000000006044820152606490fd5b67ffffffffffffffff8111610b665760051b60200190565b90610f5f82610f3d565b610f6c6040519182610b44565b8281528092610f7d601f1991610f3d565b0190602036910137565b805115610f945760200190565b634e487b7160e01b600052603260045260246000fd5b8051821015610f945760209160051b010190565b6000198114610d355760010190565b9190811015610f945760051b0190565b356001600160a01b0381168103610a245790565b909291926110026002851015610ef1565b61100b84610f55565b9161101583610f87565b5260005b6000198501858111610d35578110156110895761103f61103a828785610fcd565b610fdd565b9060018101808211610d355761107e611077611066611084956104a161103a868d8b610fcd565b90611071868a610faa565b51610d7e565b9186610faa565b52610fbe565b611019565b50509150565b909291926110a06002851015610ef1565b6110a984610f55565b9384519260001993848101908111610d35576110c59087610faa565b52828101818111610d3557805b6110dc5750505050565b8381018181116111325761112361111c61110b6110fd61103a85888a610fcd565b6104a161103a87898b610fcd565b90611116868c610faa565b51610e82565b9188610faa565b528015611132578301806110d2565b60246000634e487b7160e01b81526011600452fd5b1561114e57565b60405162461bcd60e51b815260206004820152601260248201527111195e149bdd5d195c8e881156141254915160721b6044820152606490fd5b1561118f57565b606460405162461bcd60e51b815260206004820152602060248201527f446578526f757465723a20494e53554646494349454e545f415f414d4f554e546044820152fd5b156111da57565b606460405162461bcd60e51b815260206004820152602060248201527f446578526f757465723a20494e53554646494349454e545f425f414d4f554e546044820152fd5b801561124b57610c1f9261123d918315158061124257610ea590610cc8565b610d5e565b50811515610e9c565b60405162461bcd60e51b815260206004820152601e60248201527f446578526f757465723a20494e53554646494349454e545f414d4f554e5400006044820152606490fd5b929392916001600160a01b037f000000000000000000000000000000000000000000000000000000000000000081169060005b6000198401848111610d3557811015611553576112e461103a828688610fcd565b6001820190818311610d35576112fe61103a83888a610fcd565b90848116858316811015611548578561131983955b8c610faa565b5194160361154057600092905b6001198801888111610d355785101561153a5760028501808611610d355761103a611352918a8c610fcd565b6040805163e6a4390560e01b81526001600160a01b03868116600483015292909216602483015290602080826044818d5afa9283156115305750600092611513575b50505b6040805163e6a4390560e01b81526001600160a01b03938416600480830191909152959093166024840152939160209081816044818d5afa908115611508579089916000916114eb575b5016908551908082019367ffffffffffffffff94838110868211176114d657885260008352833b15610a2457979192908a8851998a9463022c0d9f60e01b865288860152602498898601521660448401526080606484015283519081608485015260005b8281106114bf575050600080945083918260a49183838284010152601f801991011681010301925af180156114b45761148c575b505050505061148790610fbe565b6112c3565b84116114a15750505261148738808080611479565b604190634e487b7160e01b600052526000fd5b84513d6000823e3d90fd5b8086018201518b820160a401528a94508101611445565b604187634e487b7160e01b6000525260246000fd5b6115029150833d85116103dd576103cf8183610b44565b386113e1565b86513d6000823e3d90fd5b6115299250803d106103dd576103cf8183610b44565b3880611394565b513d6000823e3d90fd5b8b611397565b600090611326565b856113198495611313565b5050505050509050565b6040516323b872dd60e01b60208083019182526001600160a01b039485166024840152939094166044820152606480820195909552938452909267ffffffffffffffff929060a0810184811182821017610b6657604052600092839283809351925af1913d15611697573d90811161168357604051906115e6601f8201601f1916860183610b44565b81523d828583013e5b82611643575b5050156115ff5750565b6064906040519062461bcd60e51b82526004820152601f60248201527f446578526f757465723a205452414e534645525f46524f4d5f4641494c4544006044820152fd5b805192508215919084831561165f575b505050905038806115f5565b919381809450010312610417578201519081151582036102a9575080388084611653565b634e487b7160e01b82526041600452602482fd5b5060606115ef56fea26469706673582212203f08b22c114df8f51fec1c8f856e868938e2f4a2a9bf73df08aae5833141c75a64736f6c63430008130033",
  "linkReferences": {},
  "deployedLinkReferences": {}
}